{
	"contracts/auction.sol": {
		"Auction": {
			"abi": [
				{
					"inputs": [
						{
							"internalType": "uint256",
							"name": "_duration",
							"type": "uint256"
						}
					],
					"stateMutability": "nonpayable",
					"type": "constructor"
				},
				{
					"anonymous": false,
					"inputs": [
						{
							"indexed": true,
							"internalType": "address",
							"name": "winner",
							"type": "address"
						},
						{
							"indexed": false,
							"internalType": "uint256",
							"name": "amount",
							"type": "uint256"
						}
					],
					"name": "AuctionEnded",
					"type": "event"
				},
				{
					"anonymous": false,
					"inputs": [
						{
							"indexed": true,
							"internalType": "address",
							"name": "bidder",
							"type": "address"
						},
						{
							"indexed": false,
							"internalType": "uint256",
							"name": "amount",
							"type": "uint256"
						}
					],
					"name": "NewBid",
					"type": "event"
				},
				{
					"anonymous": false,
					"inputs": [
						{
							"indexed": true,
							"internalType": "address",
							"name": "bidder",
							"type": "address"
						},
						{
							"indexed": false,
							"internalType": "uint256",
							"name": "amount",
							"type": "uint256"
						}
					],
					"name": "Withdrawn",
					"type": "event"
				},
				{
					"inputs": [],
					"name": "bid",
					"outputs": [],
					"stateMutability": "payable",
					"type": "function"
				},
				{
					"inputs": [
						{
							"internalType": "uint256",
							"name": "",
							"type": "uint256"
						}
					],
					"name": "bidders",
					"outputs": [
						{
							"internalType": "address",
							"name": "",
							"type": "address"
						}
					],
					"stateMutability": "view",
					"type": "function"
				},
				{
					"inputs": [
						{
							"internalType": "address",
							"name": "",
							"type": "address"
						}
					],
					"name": "bids",
					"outputs": [
						{
							"internalType": "uint256",
							"name": "",
							"type": "uint256"
						}
					],
					"stateMutability": "view",
					"type": "function"
				},
				{
					"inputs": [],
					"name": "endAuction",
					"outputs": [],
					"stateMutability": "nonpayable",
					"type": "function"
				},
				{
					"inputs": [],
					"name": "endTime",
					"outputs": [
						{
							"internalType": "uint256",
							"name": "",
							"type": "uint256"
						}
					],
					"stateMutability": "view",
					"type": "function"
				},
				{
					"inputs": [],
					"name": "ended",
					"outputs": [
						{
							"internalType": "bool",
							"name": "",
							"type": "bool"
						}
					],
					"stateMutability": "view",
					"type": "function"
				},
				{
					"inputs": [],
					"name": "getBidders",
					"outputs": [
						{
							"internalType": "address[]",
							"name": "",
							"type": "address[]"
						},
						{
							"internalType": "uint256[]",
							"name": "",
							"type": "uint256[]"
						}
					],
					"stateMutability": "view",
					"type": "function"
				},
				{
					"inputs": [],
					"name": "getWinner",
					"outputs": [
						{
							"internalType": "address",
							"name": "",
							"type": "address"
						},
						{
							"internalType": "uint256",
							"name": "",
							"type": "uint256"
						}
					],
					"stateMutability": "view",
					"type": "function"
				},
				{
					"inputs": [],
					"name": "highestBid",
					"outputs": [
						{
							"internalType": "uint256",
							"name": "",
							"type": "uint256"
						}
					],
					"stateMutability": "view",
					"type": "function"
				},
				{
					"inputs": [],
					"name": "highestBidder",
					"outputs": [
						{
							"internalType": "address",
							"name": "",
							"type": "address"
						}
					],
					"stateMutability": "view",
					"type": "function"
				},
				{
					"inputs": [],
					"name": "owner",
					"outputs": [
						{
							"internalType": "address",
							"name": "",
							"type": "address"
						}
					],
					"stateMutability": "view",
					"type": "function"
				},
				{
					"inputs": [],
					"name": "timeLeft",
					"outputs": [
						{
							"internalType": "uint256",
							"name": "",
							"type": "uint256"
						}
					],
					"stateMutability": "view",
					"type": "function"
				},
				{
					"inputs": [],
					"name": "withdrawExcess",
					"outputs": [],
					"stateMutability": "nonpayable",
					"type": "function"
				}
			],
			"devdoc": {
				"kind": "dev",
				"methods": {},
				"version": 1
			},
			"evm": {
				"assembly": "    /* \"contracts/auction.sol\":28:4822  contract Auction {... */\n  mstore(0x40, 0x80)\n    /* \"contracts/auction.sol\":1077:1193  constructor(uint256 _duration) {... */\n  callvalue\n  dup1\n  iszero\n  tag_1\n  jumpi\n  revert(0x00, 0x00)\ntag_1:\n  pop\n  mload(0x40)\n  sub(codesize, bytecodeSize)\n  dup1\n  bytecodeSize\n  dup4\n  codecopy\n  dup2\n  dup2\n  add\n  0x40\n  mstore\n  dup2\n  add\n  swap1\n  tag_2\n  swap2\n  swap1\n  tag_3\n  jump\t// in\ntag_2:\n    /* \"contracts/auction.sol\":1127:1137  msg.sender */\n  caller\n    /* \"contracts/auction.sol\":1119:1124  owner */\n  0x00\n  0x00\n    /* \"contracts/auction.sol\":1119:1137  owner = msg.sender */\n  0x0100\n  exp\n  dup2\n  sload\n  dup2\n  0xffffffffffffffffffffffffffffffffffffffff\n  mul\n  not\n  and\n  swap1\n  dup4\n  0xffffffffffffffffffffffffffffffffffffffff\n  and\n  mul\n  or\n  swap1\n  sstore\n  pop\n    /* \"contracts/auction.sol\":1176:1185  _duration */\n  dup1\n    /* \"contracts/auction.sol\":1158:1173  block.timestamp */\n  timestamp\n    /* \"contracts/auction.sol\":1158:1185  block.timestamp + _duration */\n  tag_6\n  swap2\n  swap1\n  tag_7\n  jump\t// in\ntag_6:\n    /* \"contracts/auction.sol\":1148:1155  endTime */\n  0x03\n    /* \"contracts/auction.sol\":1148:1185  endTime = block.timestamp + _duration */\n  dup2\n  swap1\n  sstore\n  pop\n    /* \"contracts/auction.sol\":1077:1193  constructor(uint256 _duration) {... */\n  pop\n    /* \"contracts/auction.sol\":28:4822  contract Auction {... */\n  jump(tag_8)\n    /* \"#utility.yul\":88:205   */\ntag_10:\n    /* \"#utility.yul\":197:198   */\n  0x00\n    /* \"#utility.yul\":194:195   */\n  0x00\n    /* \"#utility.yul\":187:199   */\n  revert\n    /* \"#utility.yul\":334:411   */\ntag_12:\n    /* \"#utility.yul\":371:378   */\n  0x00\n    /* \"#utility.yul\":400:405   */\n  dup2\n    /* \"#utility.yul\":389:405   */\n  swap1\n  pop\n    /* \"#utility.yul\":334:411   */\n  swap2\n  swap1\n  pop\n  jump\t// out\n    /* \"#utility.yul\":417:539   */\ntag_13:\n    /* \"#utility.yul\":490:514   */\n  tag_22\n    /* \"#utility.yul\":508:513   */\n  dup2\n    /* \"#utility.yul\":490:514   */\n  tag_12\n  jump\t// in\ntag_22:\n    /* \"#utility.yul\":483:488   */\n  dup2\n    /* \"#utility.yul\":480:515   */\n  eq\n    /* \"#utility.yul\":470:533   */\n  tag_23\n  jumpi\n    /* \"#utility.yul\":529:530   */\n  0x00\n    /* \"#utility.yul\":526:527   */\n  0x00\n    /* \"#utility.yul\":519:531   */\n  revert\n    /* \"#utility.yul\":470:533   */\ntag_23:\n    /* \"#utility.yul\":417:539   */\n  pop\n  jump\t// out\n    /* \"#utility.yul\":545:688   */\ntag_14:\n    /* \"#utility.yul\":602:607   */\n  0x00\n    /* \"#utility.yul\":633:639   */\n  dup2\n    /* \"#utility.yul\":627:640   */\n  mload\n    /* \"#utility.yul\":618:640   */\n  swap1\n  pop\n    /* \"#utility.yul\":649:682   */\n  tag_25\n    /* \"#utility.yul\":676:681   */\n  dup2\n    /* \"#utility.yul\":649:682   */\n  tag_13\n  jump\t// in\ntag_25:\n    /* \"#utility.yul\":545:688   */\n  swap3\n  swap2\n  pop\n  pop\n  jump\t// out\n    /* \"#utility.yul\":694:1045   */\ntag_3:\n    /* \"#utility.yul\":764:770   */\n  0x00\n    /* \"#utility.yul\":813:815   */\n  0x20\n    /* \"#utility.yul\":801:810   */\n  dup3\n    /* \"#utility.yul\":792:799   */\n  dup5\n    /* \"#utility.yul\":788:811   */\n  sub\n    /* \"#utility.yul\":784:816   */\n  slt\n    /* \"#utility.yul\":781:900   */\n  iszero\n  tag_27\n  jumpi\n    /* \"#utility.yul\":819:898   */\n  tag_28\n  tag_10\n  jump\t// in\ntag_28:\n    /* \"#utility.yul\":781:900   */\ntag_27:\n    /* \"#utility.yul\":939:940   */\n  0x00\n    /* \"#utility.yul\":964:1028   */\n  tag_29\n    /* \"#utility.yul\":1020:1027   */\n  dup5\n    /* \"#utility.yul\":1011:1017   */\n  dup3\n    /* \"#utility.yul\":1000:1009   */\n  dup6\n    /* \"#utility.yul\":996:1018   */\n  add\n    /* \"#utility.yul\":964:1028   */\n  tag_14\n  jump\t// in\ntag_29:\n    /* \"#utility.yul\":954:1028   */\n  swap2\n  pop\n    /* \"#utility.yul\":910:1038   */\n  pop\n    /* \"#utility.yul\":694:1045   */\n  swap3\n  swap2\n  pop\n  pop\n  jump\t// out\n    /* \"#utility.yul\":1051:1231   */\ntag_15:\n    /* \"#utility.yul\":1099:1176   */\n  0x4e487b7100000000000000000000000000000000000000000000000000000000\n    /* \"#utility.yul\":1096:1097   */\n  0x00\n    /* \"#utility.yul\":1089:1177   */\n  mstore\n    /* \"#utility.yul\":1196:1200   */\n  0x11\n    /* \"#utility.yul\":1193:1194   */\n  0x04\n    /* \"#utility.yul\":1186:1201   */\n  mstore\n    /* \"#utility.yul\":1220:1224   */\n  0x24\n    /* \"#utility.yul\":1217:1218   */\n  0x00\n    /* \"#utility.yul\":1210:1225   */\n  revert\n    /* \"#utility.yul\":1237:1428   */\ntag_7:\n    /* \"#utility.yul\":1277:1280   */\n  0x00\n    /* \"#utility.yul\":1296:1316   */\n  tag_32\n    /* \"#utility.yul\":1314:1315   */\n  dup3\n    /* \"#utility.yul\":1296:1316   */\n  tag_12\n  jump\t// in\ntag_32:\n    /* \"#utility.yul\":1291:1316   */\n  swap2\n  pop\n    /* \"#utility.yul\":1330:1350   */\n  tag_33\n    /* \"#utility.yul\":1348:1349   */\n  dup4\n    /* \"#utility.yul\":1330:1350   */\n  tag_12\n  jump\t// in\ntag_33:\n    /* \"#utility.yul\":1325:1350   */\n  swap3\n  pop\n    /* \"#utility.yul\":1373:1374   */\n  dup3\n    /* \"#utility.yul\":1370:1371   */\n  dup3\n    /* \"#utility.yul\":1366:1375   */\n  add\n    /* \"#utility.yul\":1359:1375   */\n  swap1\n  pop\n    /* \"#utility.yul\":1394:1397   */\n  dup1\n    /* \"#utility.yul\":1391:1392   */\n  dup3\n    /* \"#utility.yul\":1388:1398   */\n  gt\n    /* \"#utility.yul\":1385:1421   */\n  iszero\n  tag_34\n  jumpi\n    /* \"#utility.yul\":1401:1419   */\n  tag_35\n  tag_15\n  jump\t// in\ntag_35:\n    /* \"#utility.yul\":1385:1421   */\ntag_34:\n    /* \"#utility.yul\":1237:1428   */\n  swap3\n  swap2\n  pop\n  pop\n  jump\t// out\n    /* \"contracts/auction.sol\":28:4822  contract Auction {... */\ntag_8:\n  dataSize(sub_0)\n  dup1\n  dataOffset(sub_0)\n  0x00\n  codecopy\n  0x00\n  return\nstop\n\nsub_0: assembly {\n        /* \"contracts/auction.sol\":28:4822  contract Auction {... */\n      mstore(0x40, 0x80)\n      jumpi(tag_1, lt(calldatasize, 0x04))\n      shr(0xe0, calldataload(0x00))\n      dup1\n      0x8e7ea5b2\n      gt\n      tag_15\n      jumpi\n      dup1\n      0xcb6632ef\n      gt\n      tag_16\n      jumpi\n      dup1\n      0xcb6632ef\n      eq\n      tag_11\n      jumpi\n      dup1\n      0xcff29dfd\n      eq\n      tag_12\n      jumpi\n      dup1\n      0xd57bde79\n      eq\n      tag_13\n      jumpi\n      dup1\n      0xfe67a54b\n      eq\n      tag_14\n      jumpi\n      jump(tag_1)\n    tag_16:\n      dup1\n      0x8e7ea5b2\n      eq\n      tag_8\n      jumpi\n      dup1\n      0x91f90157\n      eq\n      tag_9\n      jumpi\n      dup1\n      0xc264a063\n      eq\n      tag_10\n      jumpi\n      jump(tag_1)\n    tag_15:\n      dup1\n      0x12fa6feb\n      eq\n      tag_2\n      jumpi\n      dup1\n      0x1300a6d1\n      eq\n      tag_3\n      jumpi\n      dup1\n      0x1998aeef\n      eq\n      tag_4\n      jumpi\n      dup1\n      0x3197cbb6\n      eq\n      tag_5\n      jumpi\n      dup1\n      0x62ea82db\n      eq\n      tag_6\n      jumpi\n      dup1\n      0x8da5cb5b\n      eq\n      tag_7\n      jumpi\n    tag_1:\n      revert(0x00, 0x00)\n        /* \"contracts/auction.sol\":175:192  bool public ended */\n    tag_2:\n      callvalue\n      dup1\n      iszero\n      tag_17\n      jumpi\n      revert(0x00, 0x00)\n    tag_17:\n      pop\n      tag_18\n      tag_19\n      jump\t// in\n    tag_18:\n      mload(0x40)\n      tag_20\n      swap2\n      swap1\n      tag_21\n      jump\t// in\n    tag_20:\n      mload(0x40)\n      dup1\n      swap2\n      sub\n      swap1\n      return\n        /* \"contracts/auction.sol\":4665:4819  function timeLeft() external view returns (uint256) {... */\n    tag_3:\n      callvalue\n      dup1\n      iszero\n      tag_22\n      jumpi\n      revert(0x00, 0x00)\n    tag_22:\n      pop\n      tag_23\n      tag_24\n      jump\t// in\n    tag_23:\n      mload(0x40)\n      tag_25\n      swap2\n      swap1\n      tag_26\n      jump\t// in\n    tag_25:\n      mload(0x40)\n      dup1\n      swap2\n      sub\n      swap1\n      return\n        /* \"contracts/auction.sol\":1230:2335  function bid() external payable auctionActive {... */\n    tag_4:\n      tag_27\n      tag_28\n      jump\t// in\n    tag_27:\n      stop\n        /* \"contracts/auction.sol\":146:168  uint256 public endTime */\n    tag_5:\n      callvalue\n      dup1\n      iszero\n      tag_29\n      jumpi\n      revert(0x00, 0x00)\n    tag_29:\n      pop\n      tag_30\n      tag_31\n      jump\t// in\n    tag_30:\n      mload(0x40)\n      tag_32\n      swap2\n      swap1\n      tag_26\n      jump\t// in\n    tag_32:\n      mload(0x40)\n      dup1\n      swap2\n      sub\n      swap1\n      return\n        /* \"contracts/auction.sol\":451:490  mapping(address => uint256) public bids */\n    tag_6:\n      callvalue\n      dup1\n      iszero\n      tag_33\n      jumpi\n      revert(0x00, 0x00)\n    tag_33:\n      pop\n      tag_34\n      0x04\n      dup1\n      calldatasize\n      sub\n      dup2\n      add\n      swap1\n      tag_35\n      swap2\n      swap1\n      tag_36\n      jump\t// in\n    tag_35:\n      tag_37\n      jump\t// in\n    tag_34:\n      mload(0x40)\n      tag_38\n      swap2\n      swap1\n      tag_26\n      jump\t// in\n    tag_38:\n      mload(0x40)\n      dup1\n      swap2\n      sub\n      swap1\n      return\n        /* \"contracts/auction.sol\":52:72  address public owner */\n    tag_7:\n      callvalue\n      dup1\n      iszero\n      tag_39\n      jumpi\n      revert(0x00, 0x00)\n    tag_39:\n      pop\n      tag_40\n      tag_41\n      jump\t// in\n    tag_40:\n      mload(0x40)\n      tag_42\n      swap2\n      swap1\n      tag_43\n      jump\t// in\n    tag_42:\n      mload(0x40)\n      dup1\n      swap2\n      sub\n      swap1\n      return\n        /* \"contracts/auction.sol\":4500:4615  function getWinner() external view returns (address, uint256) {... */\n    tag_8:\n      callvalue\n      dup1\n      iszero\n      tag_44\n      jumpi\n      revert(0x00, 0x00)\n    tag_44:\n      pop\n      tag_45\n      tag_46\n      jump\t// in\n    tag_45:\n      mload(0x40)\n      tag_47\n      swap3\n      swap2\n      swap1\n      tag_48\n      jump\t// in\n    tag_47:\n      mload(0x40)\n      dup1\n      swap2\n      sub\n      swap1\n      return\n        /* \"contracts/auction.sol\":79:107  address public highestBidder */\n    tag_9:\n      callvalue\n      dup1\n      iszero\n      tag_49\n      jumpi\n      revert(0x00, 0x00)\n    tag_49:\n      pop\n      tag_50\n      tag_51\n      jump\t// in\n    tag_50:\n      mload(0x40)\n      tag_52\n      swap2\n      swap1\n      tag_43\n      jump\t// in\n    tag_52:\n      mload(0x40)\n      dup1\n      swap2\n      sub\n      swap1\n      return\n        /* \"contracts/auction.sol\":2415:3426  function withdrawExcess() external {... */\n    tag_10:\n      callvalue\n      dup1\n      iszero\n      tag_53\n      jumpi\n      revert(0x00, 0x00)\n    tag_53:\n      pop\n      tag_54\n      tag_55\n      jump\t// in\n    tag_54:\n      stop\n        /* \"contracts/auction.sol\":4131:4451  function getBidders() external view returns (address[] memory, uint256[] memory) {... */\n    tag_11:\n      callvalue\n      dup1\n      iszero\n      tag_56\n      jumpi\n      revert(0x00, 0x00)\n    tag_56:\n      pop\n      tag_57\n      tag_58\n      jump\t// in\n    tag_57:\n      mload(0x40)\n      tag_59\n      swap3\n      swap2\n      swap1\n      tag_60\n      jump\t// in\n    tag_59:\n      mload(0x40)\n      dup1\n      swap2\n      sub\n      swap1\n      return\n        /* \"contracts/auction.sol\":523:547  address[] public bidders */\n    tag_12:\n      callvalue\n      dup1\n      iszero\n      tag_61\n      jumpi\n      revert(0x00, 0x00)\n    tag_61:\n      pop\n      tag_62\n      0x04\n      dup1\n      calldatasize\n      sub\n      dup2\n      add\n      swap1\n      tag_63\n      swap2\n      swap1\n      tag_64\n      jump\t// in\n    tag_63:\n      tag_65\n      jump\t// in\n    tag_62:\n      mload(0x40)\n      tag_66\n      swap2\n      swap1\n      tag_43\n      jump\t// in\n    tag_66:\n      mload(0x40)\n      dup1\n      swap2\n      sub\n      swap1\n      return\n        /* \"contracts/auction.sol\":114:139  uint256 public highestBid */\n    tag_13:\n      callvalue\n      dup1\n      iszero\n      tag_67\n      jumpi\n      revert(0x00, 0x00)\n    tag_67:\n      pop\n      tag_68\n      tag_69\n      jump\t// in\n    tag_68:\n      mload(0x40)\n      tag_70\n      swap2\n      swap1\n      tag_26\n      jump\t// in\n    tag_70:\n      mload(0x40)\n      dup1\n      swap2\n      sub\n      swap1\n      return\n        /* \"contracts/auction.sol\":3467:4061  function endAuction() external {... */\n    tag_14:\n      callvalue\n      dup1\n      iszero\n      tag_71\n      jumpi\n      revert(0x00, 0x00)\n    tag_71:\n      pop\n      tag_72\n      tag_73\n      jump\t// in\n    tag_72:\n      stop\n        /* \"contracts/auction.sol\":175:192  bool public ended */\n    tag_19:\n      0x04\n      0x00\n      swap1\n      sload\n      swap1\n      0x0100\n      exp\n      swap1\n      div\n      0xff\n      and\n      dup2\n      jump\t// out\n        /* \"contracts/auction.sol\":4665:4819  function timeLeft() external view returns (uint256) {... */\n    tag_24:\n        /* \"contracts/auction.sol\":4708:4715  uint256 */\n      0x00\n        /* \"contracts/auction.sol\":4751:4758  endTime */\n      sload(0x03)\n        /* \"contracts/auction.sol\":4732:4747  block.timestamp */\n      timestamp\n        /* \"contracts/auction.sol\":4732:4758  block.timestamp >= endTime */\n      lt\n        /* \"contracts/auction.sol\":4728:4768  if (block.timestamp >= endTime) return 0 */\n      tag_75\n      jumpi\n        /* \"contracts/auction.sol\":4767:4768  0 */\n      0x00\n        /* \"contracts/auction.sol\":4760:4768  return 0 */\n      swap1\n      pop\n      jump(tag_74)\n        /* \"contracts/auction.sol\":4728:4768  if (block.timestamp >= endTime) return 0 */\n    tag_75:\n        /* \"contracts/auction.sol\":4796:4811  block.timestamp */\n      timestamp\n        /* \"contracts/auction.sol\":4786:4793  endTime */\n      sload(0x03)\n        /* \"contracts/auction.sol\":4786:4811  endTime - block.timestamp */\n      tag_76\n      swap2\n      swap1\n      tag_77\n      jump\t// in\n    tag_76:\n        /* \"contracts/auction.sol\":4779:4811  return endTime - block.timestamp */\n      swap1\n      pop\n        /* \"contracts/auction.sol\":4665:4819  function timeLeft() external view returns (uint256) {... */\n    tag_74:\n      swap1\n      jump\t// out\n        /* \"contracts/auction.sol\":1230:2335  function bid() external payable auctionActive {... */\n    tag_28:\n        /* \"contracts/auction.sol\":947:954  endTime */\n      sload(0x03)\n        /* \"contracts/auction.sol\":929:944  block.timestamp */\n      timestamp\n        /* \"contracts/auction.sol\":929:954  block.timestamp < endTime */\n      lt\n        /* \"contracts/auction.sol\":921:977  require(block.timestamp < endTime, \"Subasta finalizada\") */\n      tag_79\n      jumpi\n      mload(0x40)\n      0x08c379a000000000000000000000000000000000000000000000000000000000\n      dup2\n      mstore\n      0x04\n      add\n      tag_80\n      swap1\n      tag_81\n      jump\t// in\n    tag_80:\n      mload(0x40)\n      dup1\n      swap2\n      sub\n      swap1\n      revert\n    tag_79:\n        /* \"contracts/auction.sol\":997:1002  ended */\n      0x04\n      0x00\n      swap1\n      sload\n      swap1\n      0x0100\n      exp\n      swap1\n      div\n      0xff\n      and\n        /* \"contracts/auction.sol\":996:1002  !ended */\n      iszero\n        /* \"contracts/auction.sol\":988:1025  require(!ended, \"Subasta ya cerrada\") */\n      tag_82\n      jumpi\n      mload(0x40)\n      0x08c379a000000000000000000000000000000000000000000000000000000000\n      dup2\n      mstore\n      0x04\n      add\n      tag_83\n      swap1\n      tag_84\n      jump\t// in\n    tag_83:\n      mload(0x40)\n      dup1\n      swap2\n      sub\n      swap1\n      revert\n    tag_82:\n        /* \"contracts/auction.sol\":1373:1374  0 */\n      0x00\n        /* \"contracts/auction.sol\":1361:1370  msg.value */\n      callvalue\n        /* \"contracts/auction.sol\":1361:1374  msg.value > 0 */\n      gt\n        /* \"contracts/auction.sol\":1353:1410  require(msg.value > 0, \"La oferta debe ser mayor a cero\") */\n      tag_86\n      jumpi\n      mload(0x40)\n      0x08c379a000000000000000000000000000000000000000000000000000000000\n      dup2\n      mstore\n      0x04\n      add\n      tag_87\n      swap1\n      tag_88\n      jump\t// in\n    tag_87:\n      mload(0x40)\n      dup1\n      swap2\n      sub\n      swap1\n      revert\n    tag_86:\n        /* \"contracts/auction.sol\":1421:1437  uint256 totalBid */\n      0x00\n        /* \"contracts/auction.sol\":1459:1468  msg.value */\n      callvalue\n        /* \"contracts/auction.sol\":1440:1444  bids */\n      0x05\n        /* \"contracts/auction.sol\":1440:1456  bids[msg.sender] */\n      0x00\n        /* \"contracts/auction.sol\":1445:1455  msg.sender */\n      caller\n        /* \"contracts/auction.sol\":1440:1456  bids[msg.sender] */\n      0xffffffffffffffffffffffffffffffffffffffff\n      and\n      0xffffffffffffffffffffffffffffffffffffffff\n      and\n      dup2\n      mstore\n      0x20\n      add\n      swap1\n      dup2\n      mstore\n      0x20\n      add\n      0x00\n      keccak256\n      sload\n        /* \"contracts/auction.sol\":1440:1468  bids[msg.sender] + msg.value */\n      tag_89\n      swap2\n      swap1\n      tag_90\n      jump\t// in\n    tag_89:\n        /* \"contracts/auction.sol\":1421:1468  uint256 totalBid = bids[msg.sender] + msg.value */\n      swap1\n      pop\n        /* \"contracts/auction.sol\":1569:1572  100 */\n      0x64\n        /* \"contracts/auction.sol\":243:244  5 */\n      0x05\n        /* \"contracts/auction.sol\":1537:1547  highestBid */\n      sload(0x02)\n        /* \"contracts/auction.sol\":1537:1566  highestBid * MIN_BID_INCREASE */\n      tag_91\n      swap2\n      swap1\n      tag_92\n      jump\t// in\n    tag_91:\n        /* \"contracts/auction.sol\":1537:1572  highestBid * MIN_BID_INCREASE / 100 */\n      tag_93\n      swap2\n      swap1\n      tag_94\n      jump\t// in\n    tag_93:\n        /* \"contracts/auction.sol\":1523:1533  highestBid */\n      sload(0x02)\n        /* \"contracts/auction.sol\":1523:1573  highestBid + (highestBid * MIN_BID_INCREASE / 100) */\n      tag_95\n      swap2\n      swap1\n      tag_90\n      jump\t// in\n    tag_95:\n        /* \"contracts/auction.sol\":1511:1519  totalBid */\n      dup2\n        /* \"contracts/auction.sol\":1511:1573  totalBid >= highestBid + (highestBid * MIN_BID_INCREASE / 100) */\n      lt\n      iszero\n        /* \"contracts/auction.sol\":1489:1620  require(... */\n      tag_96\n      jumpi\n      mload(0x40)\n      0x08c379a000000000000000000000000000000000000000000000000000000000\n      dup2\n      mstore\n      0x04\n      add\n      tag_97\n      swap1\n      tag_98\n      jump\t// in\n    tag_97:\n      mload(0x40)\n      dup1\n      swap2\n      sub\n      swap1\n      revert\n    tag_96:\n        /* \"contracts/auction.sol\":1739:1740  0 */\n      0x00\n        /* \"contracts/auction.sol\":1719:1723  bids */\n      0x05\n        /* \"contracts/auction.sol\":1719:1735  bids[msg.sender] */\n      0x00\n        /* \"contracts/auction.sol\":1724:1734  msg.sender */\n      caller\n        /* \"contracts/auction.sol\":1719:1735  bids[msg.sender] */\n      0xffffffffffffffffffffffffffffffffffffffff\n      and\n      0xffffffffffffffffffffffffffffffffffffffff\n      and\n      dup2\n      mstore\n      0x20\n      add\n      swap1\n      dup2\n      mstore\n      0x20\n      add\n      0x00\n      keccak256\n      sload\n        /* \"contracts/auction.sol\":1719:1740  bids[msg.sender] == 0 */\n      sub\n        /* \"contracts/auction.sol\":1715:1793  if (bids[msg.sender] == 0) {... */\n      tag_99\n      jumpi\n        /* \"contracts/auction.sol\":1757:1764  bidders */\n      0x06\n        /* \"contracts/auction.sol\":1770:1780  msg.sender */\n      caller\n        /* \"contracts/auction.sol\":1757:1781  bidders.push(msg.sender) */\n      swap1\n      dup1\n      0x01\n      dup2\n      sload\n      add\n      dup1\n      dup3\n      sstore\n      dup1\n      swap2\n      pop\n      pop\n      0x01\n      swap1\n      sub\n      swap1\n      0x00\n      mstore\n      keccak256(0x00, 0x20)\n      add\n      0x00\n      swap1\n      swap2\n      swap1\n      swap2\n      swap1\n      swap2\n      0x0100\n      exp\n      dup2\n      sload\n      dup2\n      0xffffffffffffffffffffffffffffffffffffffff\n      mul\n      not\n      and\n      swap1\n      dup4\n      0xffffffffffffffffffffffffffffffffffffffff\n      and\n      mul\n      or\n      swap1\n      sstore\n      pop\n        /* \"contracts/auction.sol\":1715:1793  if (bids[msg.sender] == 0) {... */\n    tag_99:\n        /* \"contracts/auction.sol\":1874:1882  totalBid */\n      dup1\n        /* \"contracts/auction.sol\":1855:1859  bids */\n      0x05\n        /* \"contracts/auction.sol\":1855:1871  bids[msg.sender] */\n      0x00\n        /* \"contracts/auction.sol\":1860:1870  msg.sender */\n      caller\n        /* \"contracts/auction.sol\":1855:1871  bids[msg.sender] */\n      0xffffffffffffffffffffffffffffffffffffffff\n      and\n      0xffffffffffffffffffffffffffffffffffffffff\n      and\n      dup2\n      mstore\n      0x20\n      add\n      swap1\n      dup2\n      mstore\n      0x20\n      add\n      0x00\n      keccak256\n        /* \"contracts/auction.sol\":1855:1882  bids[msg.sender] = totalBid */\n      dup2\n      swap1\n      sstore\n      pop\n        /* \"contracts/auction.sol\":1973:1983  highestBid */\n      sload(0x02)\n        /* \"contracts/auction.sol\":1962:1970  totalBid */\n      dup2\n        /* \"contracts/auction.sol\":1962:1983  totalBid > highestBid */\n      gt\n        /* \"contracts/auction.sol\":1958:2328  if (totalBid > highestBid) {... */\n      iszero\n      tag_101\n      jumpi\n        /* \"contracts/auction.sol\":2016:2026  msg.sender */\n      caller\n        /* \"contracts/auction.sol\":2000:2013  highestBidder */\n      0x01\n      0x00\n        /* \"contracts/auction.sol\":2000:2026  highestBidder = msg.sender */\n      0x0100\n      exp\n      dup2\n      sload\n      dup2\n      0xffffffffffffffffffffffffffffffffffffffff\n      mul\n      not\n      and\n      swap1\n      dup4\n      0xffffffffffffffffffffffffffffffffffffffff\n      and\n      mul\n      or\n      swap1\n      sstore\n      pop\n        /* \"contracts/auction.sol\":2054:2062  totalBid */\n      dup1\n        /* \"contracts/auction.sol\":2041:2051  highestBid */\n      0x02\n        /* \"contracts/auction.sol\":2041:2062  highestBid = totalBid */\n      dup2\n      swap1\n      sstore\n      pop\n        /* \"contracts/auction.sol\":2183:2190  endTime */\n      sload(0x03)\n        /* \"contracts/auction.sol\":385:395  10 minutes */\n      0x0258\n        /* \"contracts/auction.sol\":2148:2163  block.timestamp */\n      timestamp\n        /* \"contracts/auction.sol\":2148:2180  block.timestamp + TIME_EXTENSION */\n      tag_102\n      swap2\n      swap1\n      tag_90\n      jump\t// in\n    tag_102:\n        /* \"contracts/auction.sol\":2148:2190  block.timestamp + TIME_EXTENSION > endTime */\n      gt\n        /* \"contracts/auction.sol\":2144:2269  if (block.timestamp + TIME_EXTENSION > endTime) {... */\n      iszero\n      tag_103\n      jumpi\n        /* \"contracts/auction.sol\":385:395  10 minutes */\n      0x0258\n        /* \"contracts/auction.sol\":2221:2236  block.timestamp */\n      timestamp\n        /* \"contracts/auction.sol\":2221:2253  block.timestamp + TIME_EXTENSION */\n      tag_104\n      swap2\n      swap1\n      tag_90\n      jump\t// in\n    tag_104:\n        /* \"contracts/auction.sol\":2211:2218  endTime */\n      0x03\n        /* \"contracts/auction.sol\":2211:2253  endTime = block.timestamp + TIME_EXTENSION */\n      dup2\n      swap1\n      sstore\n      pop\n        /* \"contracts/auction.sol\":2144:2269  if (block.timestamp + TIME_EXTENSION > endTime) {... */\n    tag_103:\n        /* \"contracts/auction.sol\":2295:2305  msg.sender */\n      caller\n        /* \"contracts/auction.sol\":2288:2316  NewBid(msg.sender, totalBid) */\n      0xffffffffffffffffffffffffffffffffffffffff\n      and\n      0xdd0b6c6a77960e2066c96171b4d7ac9e8b4c184011f38544afa36a5bb63ec59f\n        /* \"contracts/auction.sol\":2307:2315  totalBid */\n      dup3\n        /* \"contracts/auction.sol\":2288:2316  NewBid(msg.sender, totalBid) */\n      mload(0x40)\n      tag_105\n      swap2\n      swap1\n      tag_26\n      jump\t// in\n    tag_105:\n      mload(0x40)\n      dup1\n      swap2\n      sub\n      swap1\n      log2\n        /* \"contracts/auction.sol\":1958:2328  if (totalBid > highestBid) {... */\n    tag_101:\n        /* \"contracts/auction.sol\":1276:2335  {... */\n      pop\n        /* \"contracts/auction.sol\":1230:2335  function bid() external payable auctionActive {... */\n      jump\t// out\n        /* \"contracts/auction.sol\":146:168  uint256 public endTime */\n    tag_31:\n      sload(0x03)\n      dup2\n      jump\t// out\n        /* \"contracts/auction.sol\":451:490  mapping(address => uint256) public bids */\n    tag_37:\n      mstore(0x20, 0x05)\n      dup1\n      0x00\n      mstore\n      keccak256(0x00, 0x40)\n      0x00\n      swap2\n      pop\n      swap1\n      pop\n      sload\n      dup2\n      jump\t// out\n        /* \"contracts/auction.sol\":52:72  address public owner */\n    tag_41:\n      0x00\n      0x00\n      swap1\n      sload\n      swap1\n      0x0100\n      exp\n      swap1\n      div\n      0xffffffffffffffffffffffffffffffffffffffff\n      and\n      dup2\n      jump\t// out\n        /* \"contracts/auction.sol\":4500:4615  function getWinner() external view returns (address, uint256) {... */\n    tag_46:\n        /* \"contracts/auction.sol\":4544:4551  address */\n      0x00\n        /* \"contracts/auction.sol\":4553:4560  uint256 */\n      0x00\n        /* \"contracts/auction.sol\":4581:4594  highestBidder */\n      0x01\n      0x00\n      swap1\n      sload\n      swap1\n      0x0100\n      exp\n      swap1\n      div\n      0xffffffffffffffffffffffffffffffffffffffff\n      and\n        /* \"contracts/auction.sol\":4596:4606  highestBid */\n      sload(0x02)\n        /* \"contracts/auction.sol\":4573:4607  return (highestBidder, highestBid) */\n      swap2\n      pop\n      swap2\n      pop\n        /* \"contracts/auction.sol\":4500:4615  function getWinner() external view returns (address, uint256) {... */\n      swap1\n      swap2\n      jump\t// out\n        /* \"contracts/auction.sol\":79:107  address public highestBidder */\n    tag_51:\n      0x01\n      0x00\n      swap1\n      sload\n      swap1\n      0x0100\n      exp\n      swap1\n      div\n      0xffffffffffffffffffffffffffffffffffffffff\n      and\n      dup2\n      jump\t// out\n        /* \"contracts/auction.sol\":2415:3426  function withdrawExcess() external {... */\n    tag_55:\n        /* \"contracts/auction.sol\":2461:2479  uint256 currentBid */\n      0x00\n        /* \"contracts/auction.sol\":2482:2486  bids */\n      0x05\n        /* \"contracts/auction.sol\":2482:2498  bids[msg.sender] */\n      0x00\n        /* \"contracts/auction.sol\":2487:2497  msg.sender */\n      caller\n        /* \"contracts/auction.sol\":2482:2498  bids[msg.sender] */\n      0xffffffffffffffffffffffffffffffffffffffff\n      and\n      0xffffffffffffffffffffffffffffffffffffffff\n      and\n      dup2\n      mstore\n      0x20\n      add\n      swap1\n      dup2\n      mstore\n      0x20\n      add\n      0x00\n      keccak256\n      sload\n        /* \"contracts/auction.sol\":2461:2498  uint256 currentBid = bids[msg.sender] */\n      swap1\n      pop\n        /* \"contracts/auction.sol\":2617:2630  highestBidder */\n      0x01\n      0x00\n      swap1\n      sload\n      swap1\n      0x0100\n      exp\n      swap1\n      div\n      0xffffffffffffffffffffffffffffffffffffffff\n      and\n        /* \"contracts/auction.sol\":2603:2630  msg.sender == highestBidder */\n      0xffffffffffffffffffffffffffffffffffffffff\n      and\n        /* \"contracts/auction.sol\":2603:2613  msg.sender */\n      caller\n        /* \"contracts/auction.sol\":2603:2630  msg.sender == highestBidder */\n      0xffffffffffffffffffffffffffffffffffffffff\n      and\n      sub\n        /* \"contracts/auction.sol\":2599:3419  if (msg.sender == highestBidder) {... */\n      tag_108\n      jumpi\n        /* \"contracts/auction.sol\":2647:2666  uint256 minRequired */\n      0x00\n        /* \"contracts/auction.sol\":2669:2679  highestBid */\n      sload(0x02)\n        /* \"contracts/auction.sol\":2647:2679  uint256 minRequired = highestBid */\n      swap1\n      pop\n        /* \"contracts/auction.sol\":2715:2726  minRequired */\n      dup1\n        /* \"contracts/auction.sol\":2702:2712  currentBid */\n      dup3\n        /* \"contracts/auction.sol\":2702:2726  currentBid > minRequired */\n      gt\n        /* \"contracts/auction.sol\":2694:2757  require(currentBid > minRequired, \"No hay exceso para retirar\") */\n      tag_109\n      jumpi\n      mload(0x40)\n      0x08c379a000000000000000000000000000000000000000000000000000000000\n      dup2\n      mstore\n      0x04\n      add\n      tag_110\n      swap1\n      tag_111\n      jump\t// in\n    tag_110:\n      mload(0x40)\n      dup1\n      swap2\n      sub\n      swap1\n      revert\n    tag_109:\n        /* \"contracts/auction.sol\":2786:2806  uint256 excessAmount */\n      0x00\n        /* \"contracts/auction.sol\":2822:2833  minRequired */\n      dup2\n        /* \"contracts/auction.sol\":2809:2819  currentBid */\n      dup4\n        /* \"contracts/auction.sol\":2809:2833  currentBid - minRequired */\n      tag_112\n      swap2\n      swap1\n      tag_77\n      jump\t// in\n    tag_112:\n        /* \"contracts/auction.sol\":2786:2833  uint256 excessAmount = currentBid - minRequired */\n      swap1\n      pop\n        /* \"contracts/auction.sol\":2867:2878  minRequired */\n      dup2\n        /* \"contracts/auction.sol\":2848:2852  bids */\n      0x05\n        /* \"contracts/auction.sol\":2848:2864  bids[msg.sender] */\n      0x00\n        /* \"contracts/auction.sol\":2853:2863  msg.sender */\n      caller\n        /* \"contracts/auction.sol\":2848:2864  bids[msg.sender] */\n      0xffffffffffffffffffffffffffffffffffffffff\n      and\n      0xffffffffffffffffffffffffffffffffffffffff\n      and\n      dup2\n      mstore\n      0x20\n      add\n      swap1\n      dup2\n      mstore\n      0x20\n      add\n      0x00\n      keccak256\n        /* \"contracts/auction.sol\":2848:2878  bids[msg.sender] = minRequired */\n      dup2\n      swap1\n      sstore\n      pop\n        /* \"contracts/auction.sol\":2908:2917  bool sent */\n      0x00\n        /* \"contracts/auction.sol\":2923:2933  msg.sender */\n      caller\n        /* \"contracts/auction.sol\":2923:2938  msg.sender.call */\n      0xffffffffffffffffffffffffffffffffffffffff\n      and\n        /* \"contracts/auction.sol\":2946:2958  excessAmount */\n      dup3\n        /* \"contracts/auction.sol\":2923:2963  msg.sender.call{value: excessAmount}(\"\") */\n      mload(0x40)\n      tag_113\n      swap1\n      tag_114\n      jump\t// in\n    tag_113:\n      0x00\n      mload(0x40)\n      dup1\n      dup4\n      sub\n      dup2\n      dup6\n      dup8\n      gas\n      call\n      swap3\n      pop\n      pop\n      pop\n      returndatasize\n      dup1\n      0x00\n      dup2\n      eq\n      tag_117\n      jumpi\n      mload(0x40)\n      swap2\n      pop\n      and(add(returndatasize, 0x3f), not(0x1f))\n      dup3\n      add\n      0x40\n      mstore\n      returndatasize\n      dup3\n      mstore\n      returndatasize\n      0x00\n      0x20\n      dup5\n      add\n      returndatacopy\n      jump(tag_116)\n    tag_117:\n      0x60\n      swap2\n      pop\n    tag_116:\n      pop\n        /* \"contracts/auction.sol\":2907:2963  (bool sent, ) = msg.sender.call{value: excessAmount}(\"\") */\n      pop\n      swap1\n      pop\n        /* \"contracts/auction.sol\":2986:2990  sent */\n      dup1\n        /* \"contracts/auction.sol\":2978:3014  require(sent, \"Error al enviar ETH\") */\n      tag_118\n      jumpi\n      mload(0x40)\n      0x08c379a000000000000000000000000000000000000000000000000000000000\n      dup2\n      mstore\n      0x04\n      add\n      tag_119\n      swap1\n      tag_120\n      jump\t// in\n    tag_119:\n      mload(0x40)\n      dup1\n      swap2\n      sub\n      swap1\n      revert\n    tag_118:\n        /* \"contracts/auction.sol\":3058:3068  msg.sender */\n      caller\n        /* \"contracts/auction.sol\":3048:3083  Withdrawn(msg.sender, excessAmount) */\n      0xffffffffffffffffffffffffffffffffffffffff\n      and\n      0x7084f5476618d8e60b11ef0d7d3f06914655adb8793e28ff7f018d4c76d505d5\n        /* \"contracts/auction.sol\":3070:3082  excessAmount */\n      dup4\n        /* \"contracts/auction.sol\":3048:3083  Withdrawn(msg.sender, excessAmount) */\n      mload(0x40)\n      tag_121\n      swap2\n      swap1\n      tag_26\n      jump\t// in\n    tag_121:\n      mload(0x40)\n      dup1\n      swap2\n      sub\n      swap1\n      log2\n        /* \"contracts/auction.sol\":2632:3095  {... */\n      pop\n      pop\n      pop\n        /* \"contracts/auction.sol\":2599:3419  if (msg.sender == highestBidder) {... */\n      jump(tag_122)\n    tag_108:\n        /* \"contracts/auction.sol\":3118:3119  0 */\n      0x00\n        /* \"contracts/auction.sol\":3105:3115  currentBid */\n      dup2\n        /* \"contracts/auction.sol\":3105:3119  currentBid > 0 */\n      gt\n        /* \"contracts/auction.sol\":3101:3419  if (currentBid > 0) {... */\n      iszero\n      tag_123\n      jumpi\n        /* \"contracts/auction.sol\":3205:3206  0 */\n      0x00\n        /* \"contracts/auction.sol\":3186:3190  bids */\n      0x05\n        /* \"contracts/auction.sol\":3186:3202  bids[msg.sender] */\n      0x00\n        /* \"contracts/auction.sol\":3191:3201  msg.sender */\n      caller\n        /* \"contracts/auction.sol\":3186:3202  bids[msg.sender] */\n      0xffffffffffffffffffffffffffffffffffffffff\n      and\n      0xffffffffffffffffffffffffffffffffffffffff\n      and\n      dup2\n      mstore\n      0x20\n      add\n      swap1\n      dup2\n      mstore\n      0x20\n      add\n      0x00\n      keccak256\n        /* \"contracts/auction.sol\":3186:3206  bids[msg.sender] = 0 */\n      dup2\n      swap1\n      sstore\n      pop\n        /* \"contracts/auction.sol\":3236:3245  bool sent */\n      0x00\n        /* \"contracts/auction.sol\":3251:3261  msg.sender */\n      caller\n        /* \"contracts/auction.sol\":3251:3266  msg.sender.call */\n      0xffffffffffffffffffffffffffffffffffffffff\n      and\n        /* \"contracts/auction.sol\":3274:3284  currentBid */\n      dup3\n        /* \"contracts/auction.sol\":3251:3289  msg.sender.call{value: currentBid}(\"\") */\n      mload(0x40)\n      tag_124\n      swap1\n      tag_114\n      jump\t// in\n    tag_124:\n      0x00\n      mload(0x40)\n      dup1\n      dup4\n      sub\n      dup2\n      dup6\n      dup8\n      gas\n      call\n      swap3\n      pop\n      pop\n      pop\n      returndatasize\n      dup1\n      0x00\n      dup2\n      eq\n      tag_127\n      jumpi\n      mload(0x40)\n      swap2\n      pop\n      and(add(returndatasize, 0x3f), not(0x1f))\n      dup3\n      add\n      0x40\n      mstore\n      returndatasize\n      dup3\n      mstore\n      returndatasize\n      0x00\n      0x20\n      dup5\n      add\n      returndatacopy\n      jump(tag_126)\n    tag_127:\n      0x60\n      swap2\n      pop\n    tag_126:\n      pop\n        /* \"contracts/auction.sol\":3235:3289  (bool sent, ) = msg.sender.call{value: currentBid}(\"\") */\n      pop\n      swap1\n      pop\n        /* \"contracts/auction.sol\":3312:3316  sent */\n      dup1\n        /* \"contracts/auction.sol\":3304:3340  require(sent, \"Error al enviar ETH\") */\n      tag_128\n      jumpi\n      mload(0x40)\n      0x08c379a000000000000000000000000000000000000000000000000000000000\n      dup2\n      mstore\n      0x04\n      add\n      tag_129\n      swap1\n      tag_120\n      jump\t// in\n    tag_129:\n      mload(0x40)\n      dup1\n      swap2\n      sub\n      swap1\n      revert\n    tag_128:\n        /* \"contracts/auction.sol\":3384:3394  msg.sender */\n      caller\n        /* \"contracts/auction.sol\":3374:3407  Withdrawn(msg.sender, currentBid) */\n      0xffffffffffffffffffffffffffffffffffffffff\n      and\n      0x7084f5476618d8e60b11ef0d7d3f06914655adb8793e28ff7f018d4c76d505d5\n        /* \"contracts/auction.sol\":3396:3406  currentBid */\n      dup4\n        /* \"contracts/auction.sol\":3374:3407  Withdrawn(msg.sender, currentBid) */\n      mload(0x40)\n      tag_130\n      swap2\n      swap1\n      tag_26\n      jump\t// in\n    tag_130:\n      mload(0x40)\n      dup1\n      swap2\n      sub\n      swap1\n      log2\n        /* \"contracts/auction.sol\":3121:3419  {... */\n      pop\n        /* \"contracts/auction.sol\":3101:3419  if (currentBid > 0) {... */\n    tag_123:\n        /* \"contracts/auction.sol\":2599:3419  if (msg.sender == highestBidder) {... */\n    tag_122:\n        /* \"contracts/auction.sol\":2450:3426  {... */\n      pop\n        /* \"contracts/auction.sol\":2415:3426  function withdrawExcess() external {... */\n      jump\t// out\n        /* \"contracts/auction.sol\":4131:4451  function getBidders() external view returns (address[] memory, uint256[] memory) {... */\n    tag_58:\n        /* \"contracts/auction.sol\":4176:4192  address[] memory */\n      0x60\n        /* \"contracts/auction.sol\":4194:4210  uint256[] memory */\n      dup1\n        /* \"contracts/auction.sol\":4223:4247  uint256[] memory amounts */\n      0x00\n        /* \"contracts/auction.sol\":4264:4271  bidders */\n      0x06\n        /* \"contracts/auction.sol\":4264:4278  bidders.length */\n      dup1\n      sload\n      swap1\n      pop\n        /* \"contracts/auction.sol\":4250:4279  new uint256[](bidders.length) */\n      0xffffffffffffffff\n      dup2\n      gt\n      iszero\n      tag_132\n      jumpi\n      tag_133\n      tag_134\n      jump\t// in\n    tag_133:\n    tag_132:\n      mload(0x40)\n      swap1\n      dup1\n      dup3\n      mstore\n      dup1\n      0x20\n      mul\n      0x20\n      add\n      dup3\n      add\n      0x40\n      mstore\n      dup1\n      iszero\n      tag_135\n      jumpi\n      dup2\n      0x20\n      add\n      0x20\n      dup3\n      mul\n      dup1\n      calldatasize\n      dup4\n      calldatacopy\n      dup1\n      dup3\n      add\n      swap2\n      pop\n      pop\n      swap1\n      pop\n    tag_135:\n      pop\n        /* \"contracts/auction.sol\":4223:4279  uint256[] memory amounts = new uint256[](bidders.length) */\n      swap1\n      pop\n        /* \"contracts/auction.sol\":4305:4311  uint i */\n      0x00\n        /* \"contracts/auction.sol\":4314:4315  0 */\n      0x00\n        /* \"contracts/auction.sol\":4305:4315  uint i = 0 */\n      swap1\n      pop\n        /* \"contracts/auction.sol\":4300:4398  for (uint i = 0; i < bidders.length; i++) {... */\n    tag_136:\n        /* \"contracts/auction.sol\":4321:4328  bidders */\n      0x06\n        /* \"contracts/auction.sol\":4321:4335  bidders.length */\n      dup1\n      sload\n      swap1\n      pop\n        /* \"contracts/auction.sol\":4317:4318  i */\n      dup2\n        /* \"contracts/auction.sol\":4317:4335  i < bidders.length */\n      lt\n        /* \"contracts/auction.sol\":4300:4398  for (uint i = 0; i < bidders.length; i++) {... */\n      iszero\n      tag_137\n      jumpi\n        /* \"contracts/auction.sol\":4370:4374  bids */\n      0x05\n        /* \"contracts/auction.sol\":4370:4386  bids[bidders[i]] */\n      0x00\n        /* \"contracts/auction.sol\":4375:4382  bidders */\n      0x06\n        /* \"contracts/auction.sol\":4383:4384  i */\n      dup4\n        /* \"contracts/auction.sol\":4375:4385  bidders[i] */\n      dup2\n      sload\n      dup2\n      lt\n      tag_139\n      jumpi\n      tag_140\n      tag_141\n      jump\t// in\n    tag_140:\n    tag_139:\n      swap1\n      0x00\n      mstore\n      keccak256(0x00, 0x20)\n      add\n      0x00\n      swap1\n      sload\n      swap1\n      0x0100\n      exp\n      swap1\n      div\n      0xffffffffffffffffffffffffffffffffffffffff\n      and\n        /* \"contracts/auction.sol\":4370:4386  bids[bidders[i]] */\n      0xffffffffffffffffffffffffffffffffffffffff\n      and\n      0xffffffffffffffffffffffffffffffffffffffff\n      and\n      dup2\n      mstore\n      0x20\n      add\n      swap1\n      dup2\n      mstore\n      0x20\n      add\n      0x00\n      keccak256\n      sload\n        /* \"contracts/auction.sol\":4357:4364  amounts */\n      dup3\n        /* \"contracts/auction.sol\":4365:4366  i */\n      dup3\n        /* \"contracts/auction.sol\":4357:4367  amounts[i] */\n      dup2\n      mload\n      dup2\n      lt\n      tag_143\n      jumpi\n      tag_144\n      tag_141\n      jump\t// in\n    tag_144:\n    tag_143:\n      0x20\n      mul\n      0x20\n      add\n      add\n        /* \"contracts/auction.sol\":4357:4386  amounts[i] = bids[bidders[i]] */\n      dup2\n      dup2\n      mstore\n      pop\n      pop\n        /* \"contracts/auction.sol\":4337:4340  i++ */\n      dup1\n      dup1\n      0x01\n      add\n      swap2\n      pop\n      pop\n        /* \"contracts/auction.sol\":4300:4398  for (uint i = 0; i < bidders.length; i++) {... */\n      jump(tag_136)\n    tag_137:\n      pop\n        /* \"contracts/auction.sol\":4426:4433  bidders */\n      0x06\n        /* \"contracts/auction.sol\":4435:4442  amounts */\n      dup2\n        /* \"contracts/auction.sol\":4418:4443  return (bidders, amounts) */\n      dup2\n      dup1\n      sload\n      dup1\n      0x20\n      mul\n      0x20\n      add\n      mload(0x40)\n      swap1\n      dup2\n      add\n      0x40\n      mstore\n      dup1\n      swap3\n      swap2\n      swap1\n      dup2\n      dup2\n      mstore\n      0x20\n      add\n      dup3\n      dup1\n      sload\n      dup1\n      iszero\n      tag_145\n      jumpi\n      0x20\n      mul\n      dup3\n      add\n      swap2\n      swap1\n      0x00\n      mstore\n      keccak256(0x00, 0x20)\n      swap1\n    tag_146:\n      dup2\n      0x00\n      swap1\n      sload\n      swap1\n      0x0100\n      exp\n      swap1\n      div\n      0xffffffffffffffffffffffffffffffffffffffff\n      and\n      0xffffffffffffffffffffffffffffffffffffffff\n      and\n      dup2\n      mstore\n      0x20\n      add\n      swap1\n      0x01\n      add\n      swap1\n      dup1\n      dup4\n      gt\n      tag_146\n      jumpi\n    tag_145:\n      pop\n      pop\n      pop\n      pop\n      pop\n      swap2\n      pop\n      swap3\n      pop\n      swap3\n      pop\n      pop\n        /* \"contracts/auction.sol\":4131:4451  function getBidders() external view returns (address[] memory, uint256[] memory) {... */\n      swap1\n      swap2\n      jump\t// out\n        /* \"contracts/auction.sol\":523:547  address[] public bidders */\n    tag_65:\n      0x06\n      dup2\n      dup2\n      sload\n      dup2\n      lt\n      tag_147\n      jumpi\n      0x00\n      dup1\n      revert\n    tag_147:\n      swap1\n      0x00\n      mstore\n      keccak256(0x00, 0x20)\n      add\n      0x00\n      swap2\n      pop\n      sload\n      swap1\n      0x0100\n      exp\n      swap1\n      div\n      0xffffffffffffffffffffffffffffffffffffffff\n      and\n      dup2\n      jump\t// out\n        /* \"contracts/auction.sol\":114:139  uint256 public highestBid */\n    tag_69:\n      sload(0x02)\n      dup2\n      jump\t// out\n        /* \"contracts/auction.sol\":3467:4061  function endAuction() external {... */\n    tag_73:\n        /* \"contracts/auction.sol\":3535:3542  endTime */\n      sload(0x03)\n        /* \"contracts/auction.sol\":3517:3532  block.timestamp */\n      timestamp\n        /* \"contracts/auction.sol\":3517:3542  block.timestamp > endTime */\n      gt\n        /* \"contracts/auction.sol\":3517:3565  block.timestamp > endTime || msg.sender == owner */\n      dup1\n      tag_150\n      jumpi\n      pop\n        /* \"contracts/auction.sol\":3560:3565  owner */\n      0x00\n      0x00\n      swap1\n      sload\n      swap1\n      0x0100\n      exp\n      swap1\n      div\n      0xffffffffffffffffffffffffffffffffffffffff\n      and\n        /* \"contracts/auction.sol\":3546:3565  msg.sender == owner */\n      0xffffffffffffffffffffffffffffffffffffffff\n      and\n        /* \"contracts/auction.sol\":3546:3556  msg.sender */\n      caller\n        /* \"contracts/auction.sol\":3546:3565  msg.sender == owner */\n      0xffffffffffffffffffffffffffffffffffffffff\n      and\n      eq\n        /* \"contracts/auction.sol\":3517:3565  block.timestamp > endTime || msg.sender == owner */\n    tag_150:\n        /* \"contracts/auction.sol\":3509:3586  require(block.timestamp > endTime || msg.sender == owner, \"Subasta en curso\") */\n      tag_151\n      jumpi\n      mload(0x40)\n      0x08c379a000000000000000000000000000000000000000000000000000000000\n      dup2\n      mstore\n      0x04\n      add\n      tag_152\n      swap1\n      tag_153\n      jump\t// in\n    tag_152:\n      mload(0x40)\n      dup1\n      swap2\n      sub\n      swap1\n      revert\n    tag_151:\n        /* \"contracts/auction.sol\":3606:3611  ended */\n      0x04\n      0x00\n      swap1\n      sload\n      swap1\n      0x0100\n      exp\n      swap1\n      div\n      0xff\n      and\n        /* \"contracts/auction.sol\":3605:3611  !ended */\n      iszero\n        /* \"contracts/auction.sol\":3597:3637  require(!ended, \"Subasta ya finalizada\") */\n      tag_154\n      jumpi\n      mload(0x40)\n      0x08c379a000000000000000000000000000000000000000000000000000000000\n      dup2\n      mstore\n      0x04\n      add\n      tag_155\n      swap1\n      tag_156\n      jump\t// in\n    tag_155:\n      mload(0x40)\n      dup1\n      swap2\n      sub\n      swap1\n      revert\n    tag_154:\n        /* \"contracts/auction.sol\":3666:3670  true */\n      0x01\n        /* \"contracts/auction.sol\":3658:3663  ended */\n      0x04\n      0x00\n        /* \"contracts/auction.sol\":3658:3670  ended = true */\n      0x0100\n      exp\n      dup2\n      sload\n      dup2\n      0xff\n      mul\n      not\n      and\n      swap1\n      dup4\n      iszero\n      iszero\n      mul\n      or\n      swap1\n      sstore\n      pop\n        /* \"contracts/auction.sol\":3709:3727  uint256 commission */\n      0x00\n        /* \"contracts/auction.sol\":3763:3766  100 */\n      0x64\n        /* \"contracts/auction.sol\":319:320  2 */\n      0x02\n        /* \"contracts/auction.sol\":3731:3741  highestBid */\n      dup1\n      sload\n        /* \"contracts/auction.sol\":3731:3759  highestBid * COMMISSION_RATE */\n      tag_157\n      swap2\n      swap1\n      tag_92\n      jump\t// in\n    tag_157:\n        /* \"contracts/auction.sol\":3730:3766  (highestBid * COMMISSION_RATE) / 100 */\n      tag_158\n      swap2\n      swap1\n      tag_94\n      jump\t// in\n    tag_158:\n        /* \"contracts/auction.sol\":3709:3766  uint256 commission = (highestBid * COMMISSION_RATE) / 100 */\n      swap1\n      pop\n        /* \"contracts/auction.sol\":3777:3799  uint256 paymentToOwner */\n      0x00\n        /* \"contracts/auction.sol\":3815:3825  commission */\n      dup2\n        /* \"contracts/auction.sol\":3802:3812  highestBid */\n      sload(0x02)\n        /* \"contracts/auction.sol\":3802:3825  highestBid - commission */\n      tag_159\n      swap2\n      swap1\n      tag_77\n      jump\t// in\n    tag_159:\n        /* \"contracts/auction.sol\":3777:3825  uint256 paymentToOwner = highestBid - commission */\n      swap1\n      pop\n        /* \"contracts/auction.sol\":3880:3889  bool sent */\n      0x00\n        /* \"contracts/auction.sol\":3895:3900  owner */\n      0x00\n      0x00\n      swap1\n      sload\n      swap1\n      0x0100\n      exp\n      swap1\n      div\n      0xffffffffffffffffffffffffffffffffffffffff\n      and\n        /* \"contracts/auction.sol\":3895:3905  owner.call */\n      0xffffffffffffffffffffffffffffffffffffffff\n      and\n        /* \"contracts/auction.sol\":3913:3927  paymentToOwner */\n      dup3\n        /* \"contracts/auction.sol\":3895:3932  owner.call{value: paymentToOwner}(\"\") */\n      mload(0x40)\n      tag_160\n      swap1\n      tag_114\n      jump\t// in\n    tag_160:\n      0x00\n      mload(0x40)\n      dup1\n      dup4\n      sub\n      dup2\n      dup6\n      dup8\n      gas\n      call\n      swap3\n      pop\n      pop\n      pop\n      returndatasize\n      dup1\n      0x00\n      dup2\n      eq\n      tag_163\n      jumpi\n      mload(0x40)\n      swap2\n      pop\n      and(add(returndatasize, 0x3f), not(0x1f))\n      dup3\n      add\n      0x40\n      mstore\n      returndatasize\n      dup3\n      mstore\n      returndatasize\n      0x00\n      0x20\n      dup5\n      add\n      returndatacopy\n      jump(tag_162)\n    tag_163:\n      0x60\n      swap2\n      pop\n    tag_162:\n      pop\n        /* \"contracts/auction.sol\":3879:3932  (bool sent, ) = owner.call{value: paymentToOwner}(\"\") */\n      pop\n      swap1\n      pop\n        /* \"contracts/auction.sol\":3951:3955  sent */\n      dup1\n        /* \"contracts/auction.sol\":3943:3988  require(sent, \"Error al enviar ETH al dueno\") */\n      tag_164\n      jumpi\n      mload(0x40)\n      0x08c379a000000000000000000000000000000000000000000000000000000000\n      dup2\n      mstore\n      0x04\n      add\n      tag_165\n      swap1\n      tag_166\n      jump\t// in\n    tag_165:\n      mload(0x40)\n      dup1\n      swap2\n      sub\n      swap1\n      revert\n    tag_164:\n        /* \"contracts/auction.sol\":4027:4040  highestBidder */\n      0x01\n      0x00\n      swap1\n      sload\n      swap1\n      0x0100\n      exp\n      swap1\n      div\n      0xffffffffffffffffffffffffffffffffffffffff\n      and\n        /* \"contracts/auction.sol\":4014:4053  AuctionEnded(highestBidder, highestBid) */\n      0xffffffffffffffffffffffffffffffffffffffff\n      and\n      0xdaec4582d5d9595688c8c98545fdd1c696d41c6aeaeb636737e84ed2f5c00eda\n        /* \"contracts/auction.sol\":4042:4052  highestBid */\n      sload(0x02)\n        /* \"contracts/auction.sol\":4014:4053  AuctionEnded(highestBidder, highestBid) */\n      mload(0x40)\n      tag_167\n      swap2\n      swap1\n      tag_26\n      jump\t// in\n    tag_167:\n      mload(0x40)\n      dup1\n      swap2\n      sub\n      swap1\n      log2\n        /* \"contracts/auction.sol\":3498:4061  {... */\n      pop\n      pop\n      pop\n        /* \"contracts/auction.sol\":3467:4061  function endAuction() external {... */\n      jump\t// out\n        /* \"#utility.yul\":7:97   */\n    tag_168:\n        /* \"#utility.yul\":41:48   */\n      0x00\n        /* \"#utility.yul\":84:89   */\n      dup2\n        /* \"#utility.yul\":77:90   */\n      iszero\n        /* \"#utility.yul\":70:91   */\n      iszero\n        /* \"#utility.yul\":59:91   */\n      swap1\n      pop\n        /* \"#utility.yul\":7:97   */\n      swap2\n      swap1\n      pop\n      jump\t// out\n        /* \"#utility.yul\":103:212   */\n    tag_169:\n        /* \"#utility.yul\":184:205   */\n      tag_223\n        /* \"#utility.yul\":199:204   */\n      dup2\n        /* \"#utility.yul\":184:205   */\n      tag_168\n      jump\t// in\n    tag_223:\n        /* \"#utility.yul\":179:182   */\n      dup3\n        /* \"#utility.yul\":172:206   */\n      mstore\n        /* \"#utility.yul\":103:212   */\n      pop\n      pop\n      jump\t// out\n        /* \"#utility.yul\":218:428   */\n    tag_21:\n        /* \"#utility.yul\":305:309   */\n      0x00\n        /* \"#utility.yul\":343:345   */\n      0x20\n        /* \"#utility.yul\":332:341   */\n      dup3\n        /* \"#utility.yul\":328:346   */\n      add\n        /* \"#utility.yul\":320:346   */\n      swap1\n      pop\n        /* \"#utility.yul\":356:421   */\n      tag_225\n        /* \"#utility.yul\":418:419   */\n      0x00\n        /* \"#utility.yul\":407:416   */\n      dup4\n        /* \"#utility.yul\":403:420   */\n      add\n        /* \"#utility.yul\":394:400   */\n      dup5\n        /* \"#utility.yul\":356:421   */\n      tag_169\n      jump\t// in\n    tag_225:\n        /* \"#utility.yul\":218:428   */\n      swap3\n      swap2\n      pop\n      pop\n      jump\t// out\n        /* \"#utility.yul\":434:511   */\n    tag_170:\n        /* \"#utility.yul\":471:478   */\n      0x00\n        /* \"#utility.yul\":500:505   */\n      dup2\n        /* \"#utility.yul\":489:505   */\n      swap1\n      pop\n        /* \"#utility.yul\":434:511   */\n      swap2\n      swap1\n      pop\n      jump\t// out\n        /* \"#utility.yul\":517:635   */\n    tag_171:\n        /* \"#utility.yul\":604:628   */\n      tag_228\n        /* \"#utility.yul\":622:627   */\n      dup2\n        /* \"#utility.yul\":604:628   */\n      tag_170\n      jump\t// in\n    tag_228:\n        /* \"#utility.yul\":599:602   */\n      dup3\n        /* \"#utility.yul\":592:629   */\n      mstore\n        /* \"#utility.yul\":517:635   */\n      pop\n      pop\n      jump\t// out\n        /* \"#utility.yul\":641:863   */\n    tag_26:\n        /* \"#utility.yul\":734:738   */\n      0x00\n        /* \"#utility.yul\":772:774   */\n      0x20\n        /* \"#utility.yul\":761:770   */\n      dup3\n        /* \"#utility.yul\":757:775   */\n      add\n        /* \"#utility.yul\":749:775   */\n      swap1\n      pop\n        /* \"#utility.yul\":785:856   */\n      tag_230\n        /* \"#utility.yul\":853:854   */\n      0x00\n        /* \"#utility.yul\":842:851   */\n      dup4\n        /* \"#utility.yul\":838:855   */\n      add\n        /* \"#utility.yul\":829:835   */\n      dup5\n        /* \"#utility.yul\":785:856   */\n      tag_171\n      jump\t// in\n    tag_230:\n        /* \"#utility.yul\":641:863   */\n      swap3\n      swap2\n      pop\n      pop\n      jump\t// out\n        /* \"#utility.yul\":950:1067   */\n    tag_173:\n        /* \"#utility.yul\":1059:1060   */\n      0x00\n        /* \"#utility.yul\":1056:1057   */\n      0x00\n        /* \"#utility.yul\":1049:1061   */\n      revert\n        /* \"#utility.yul\":1196:1322   */\n    tag_175:\n        /* \"#utility.yul\":1233:1240   */\n      0x00\n        /* \"#utility.yul\":1273:1315   */\n      0xffffffffffffffffffffffffffffffffffffffff\n        /* \"#utility.yul\":1266:1271   */\n      dup3\n        /* \"#utility.yul\":1262:1316   */\n      and\n        /* \"#utility.yul\":1251:1316   */\n      swap1\n      pop\n        /* \"#utility.yul\":1196:1322   */\n      swap2\n      swap1\n      pop\n      jump\t// out\n        /* \"#utility.yul\":1328:1424   */\n    tag_176:\n        /* \"#utility.yul\":1365:1372   */\n      0x00\n        /* \"#utility.yul\":1394:1418   */\n      tag_236\n        /* \"#utility.yul\":1412:1417   */\n      dup3\n        /* \"#utility.yul\":1394:1418   */\n      tag_175\n      jump\t// in\n    tag_236:\n        /* \"#utility.yul\":1383:1418   */\n      swap1\n      pop\n        /* \"#utility.yul\":1328:1424   */\n      swap2\n      swap1\n      pop\n      jump\t// out\n        /* \"#utility.yul\":1430:1552   */\n    tag_177:\n        /* \"#utility.yul\":1503:1527   */\n      tag_238\n        /* \"#utility.yul\":1521:1526   */\n      dup2\n        /* \"#utility.yul\":1503:1527   */\n      tag_176\n      jump\t// in\n    tag_238:\n        /* \"#utility.yul\":1496:1501   */\n      dup2\n        /* \"#utility.yul\":1493:1528   */\n      eq\n        /* \"#utility.yul\":1483:1546   */\n      tag_239\n      jumpi\n        /* \"#utility.yul\":1542:1543   */\n      0x00\n        /* \"#utility.yul\":1539:1540   */\n      0x00\n        /* \"#utility.yul\":1532:1544   */\n      revert\n        /* \"#utility.yul\":1483:1546   */\n    tag_239:\n        /* \"#utility.yul\":1430:1552   */\n      pop\n      jump\t// out\n        /* \"#utility.yul\":1558:1697   */\n    tag_178:\n        /* \"#utility.yul\":1604:1609   */\n      0x00\n        /* \"#utility.yul\":1642:1648   */\n      dup2\n        /* \"#utility.yul\":1629:1649   */\n      calldataload\n        /* \"#utility.yul\":1620:1649   */\n      swap1\n      pop\n        /* \"#utility.yul\":1658:1691   */\n      tag_241\n        /* \"#utility.yul\":1685:1690   */\n      dup2\n        /* \"#utility.yul\":1658:1691   */\n      tag_177\n      jump\t// in\n    tag_241:\n        /* \"#utility.yul\":1558:1697   */\n      swap3\n      swap2\n      pop\n      pop\n      jump\t// out\n        /* \"#utility.yul\":1703:2032   */\n    tag_36:\n        /* \"#utility.yul\":1762:1768   */\n      0x00\n        /* \"#utility.yul\":1811:1813   */\n      0x20\n        /* \"#utility.yul\":1799:1808   */\n      dup3\n        /* \"#utility.yul\":1790:1797   */\n      dup5\n        /* \"#utility.yul\":1786:1809   */\n      sub\n        /* \"#utility.yul\":1782:1814   */\n      slt\n        /* \"#utility.yul\":1779:1898   */\n      iszero\n      tag_243\n      jumpi\n        /* \"#utility.yul\":1817:1896   */\n      tag_244\n      tag_173\n      jump\t// in\n    tag_244:\n        /* \"#utility.yul\":1779:1898   */\n    tag_243:\n        /* \"#utility.yul\":1937:1938   */\n      0x00\n        /* \"#utility.yul\":1962:2015   */\n      tag_245\n        /* \"#utility.yul\":2007:2014   */\n      dup5\n        /* \"#utility.yul\":1998:2004   */\n      dup3\n        /* \"#utility.yul\":1987:1996   */\n      dup6\n        /* \"#utility.yul\":1983:2005   */\n      add\n        /* \"#utility.yul\":1962:2015   */\n      tag_178\n      jump\t// in\n    tag_245:\n        /* \"#utility.yul\":1952:2015   */\n      swap2\n      pop\n        /* \"#utility.yul\":1908:2025   */\n      pop\n        /* \"#utility.yul\":1703:2032   */\n      swap3\n      swap2\n      pop\n      pop\n      jump\t// out\n        /* \"#utility.yul\":2038:2156   */\n    tag_179:\n        /* \"#utility.yul\":2125:2149   */\n      tag_247\n        /* \"#utility.yul\":2143:2148   */\n      dup2\n        /* \"#utility.yul\":2125:2149   */\n      tag_176\n      jump\t// in\n    tag_247:\n        /* \"#utility.yul\":2120:2123   */\n      dup3\n        /* \"#utility.yul\":2113:2150   */\n      mstore\n        /* \"#utility.yul\":2038:2156   */\n      pop\n      pop\n      jump\t// out\n        /* \"#utility.yul\":2162:2384   */\n    tag_43:\n        /* \"#utility.yul\":2255:2259   */\n      0x00\n        /* \"#utility.yul\":2293:2295   */\n      0x20\n        /* \"#utility.yul\":2282:2291   */\n      dup3\n        /* \"#utility.yul\":2278:2296   */\n      add\n        /* \"#utility.yul\":2270:2296   */\n      swap1\n      pop\n        /* \"#utility.yul\":2306:2377   */\n      tag_249\n        /* \"#utility.yul\":2374:2375   */\n      0x00\n        /* \"#utility.yul\":2363:2372   */\n      dup4\n        /* \"#utility.yul\":2359:2376   */\n      add\n        /* \"#utility.yul\":2350:2356   */\n      dup5\n        /* \"#utility.yul\":2306:2377   */\n      tag_179\n      jump\t// in\n    tag_249:\n        /* \"#utility.yul\":2162:2384   */\n      swap3\n      swap2\n      pop\n      pop\n      jump\t// out\n        /* \"#utility.yul\":2390:2722   */\n    tag_48:\n        /* \"#utility.yul\":2511:2515   */\n      0x00\n        /* \"#utility.yul\":2549:2551   */\n      0x40\n        /* \"#utility.yul\":2538:2547   */\n      dup3\n        /* \"#utility.yul\":2534:2552   */\n      add\n        /* \"#utility.yul\":2526:2552   */\n      swap1\n      pop\n        /* \"#utility.yul\":2562:2633   */\n      tag_251\n        /* \"#utility.yul\":2630:2631   */\n      0x00\n        /* \"#utility.yul\":2619:2628   */\n      dup4\n        /* \"#utility.yul\":2615:2632   */\n      add\n        /* \"#utility.yul\":2606:2612   */\n      dup6\n        /* \"#utility.yul\":2562:2633   */\n      tag_179\n      jump\t// in\n    tag_251:\n        /* \"#utility.yul\":2643:2715   */\n      tag_252\n        /* \"#utility.yul\":2711:2713   */\n      0x20\n        /* \"#utility.yul\":2700:2709   */\n      dup4\n        /* \"#utility.yul\":2696:2714   */\n      add\n        /* \"#utility.yul\":2687:2693   */\n      dup5\n        /* \"#utility.yul\":2643:2715   */\n      tag_171\n      jump\t// in\n    tag_252:\n        /* \"#utility.yul\":2390:2722   */\n      swap4\n      swap3\n      pop\n      pop\n      pop\n      jump\t// out\n        /* \"#utility.yul\":2728:2842   */\n    tag_180:\n        /* \"#utility.yul\":2795:2801   */\n      0x00\n        /* \"#utility.yul\":2829:2834   */\n      dup2\n        /* \"#utility.yul\":2823:2835   */\n      mload\n        /* \"#utility.yul\":2813:2835   */\n      swap1\n      pop\n        /* \"#utility.yul\":2728:2842   */\n      swap2\n      swap1\n      pop\n      jump\t// out\n        /* \"#utility.yul\":2848:3032   */\n    tag_181:\n        /* \"#utility.yul\":2947:2958   */\n      0x00\n        /* \"#utility.yul\":2981:2987   */\n      dup3\n        /* \"#utility.yul\":2976:2979   */\n      dup3\n        /* \"#utility.yul\":2969:2988   */\n      mstore\n        /* \"#utility.yul\":3021:3025   */\n      0x20\n        /* \"#utility.yul\":3016:3019   */\n      dup3\n        /* \"#utility.yul\":3012:3026   */\n      add\n        /* \"#utility.yul\":2997:3026   */\n      swap1\n      pop\n        /* \"#utility.yul\":2848:3032   */\n      swap3\n      swap2\n      pop\n      pop\n      jump\t// out\n        /* \"#utility.yul\":3038:3170   */\n    tag_182:\n        /* \"#utility.yul\":3105:3109   */\n      0x00\n        /* \"#utility.yul\":3128:3131   */\n      dup2\n        /* \"#utility.yul\":3120:3131   */\n      swap1\n      pop\n        /* \"#utility.yul\":3158:3162   */\n      0x20\n        /* \"#utility.yul\":3153:3156   */\n      dup3\n        /* \"#utility.yul\":3149:3163   */\n      add\n        /* \"#utility.yul\":3141:3163   */\n      swap1\n      pop\n        /* \"#utility.yul\":3038:3170   */\n      swap2\n      swap1\n      pop\n      jump\t// out\n        /* \"#utility.yul\":3176:3284   */\n    tag_183:\n        /* \"#utility.yul\":3253:3277   */\n      tag_257\n        /* \"#utility.yul\":3271:3276   */\n      dup2\n        /* \"#utility.yul\":3253:3277   */\n      tag_176\n      jump\t// in\n    tag_257:\n        /* \"#utility.yul\":3248:3251   */\n      dup3\n        /* \"#utility.yul\":3241:3278   */\n      mstore\n        /* \"#utility.yul\":3176:3284   */\n      pop\n      pop\n      jump\t// out\n        /* \"#utility.yul\":3290:3469   */\n    tag_184:\n        /* \"#utility.yul\":3359:3369   */\n      0x00\n        /* \"#utility.yul\":3380:3426   */\n      tag_259\n        /* \"#utility.yul\":3422:3425   */\n      dup4\n        /* \"#utility.yul\":3414:3420   */\n      dup4\n        /* \"#utility.yul\":3380:3426   */\n      tag_183\n      jump\t// in\n    tag_259:\n        /* \"#utility.yul\":3458:3462   */\n      0x20\n        /* \"#utility.yul\":3453:3456   */\n      dup4\n        /* \"#utility.yul\":3449:3463   */\n      add\n        /* \"#utility.yul\":3435:3463   */\n      swap1\n      pop\n        /* \"#utility.yul\":3290:3469   */\n      swap3\n      swap2\n      pop\n      pop\n      jump\t// out\n        /* \"#utility.yul\":3475:3588   */\n    tag_185:\n        /* \"#utility.yul\":3545:3549   */\n      0x00\n        /* \"#utility.yul\":3577:3581   */\n      0x20\n        /* \"#utility.yul\":3572:3575   */\n      dup3\n        /* \"#utility.yul\":3568:3582   */\n      add\n        /* \"#utility.yul\":3560:3582   */\n      swap1\n      pop\n        /* \"#utility.yul\":3475:3588   */\n      swap2\n      swap1\n      pop\n      jump\t// out\n        /* \"#utility.yul\":3624:4356   */\n    tag_186:\n        /* \"#utility.yul\":3743:3746   */\n      0x00\n        /* \"#utility.yul\":3772:3826   */\n      tag_262\n        /* \"#utility.yul\":3820:3825   */\n      dup3\n        /* \"#utility.yul\":3772:3826   */\n      tag_180\n      jump\t// in\n    tag_262:\n        /* \"#utility.yul\":3842:3928   */\n      tag_263\n        /* \"#utility.yul\":3921:3927   */\n      dup2\n        /* \"#utility.yul\":3916:3919   */\n      dup6\n        /* \"#utility.yul\":3842:3928   */\n      tag_181\n      jump\t// in\n    tag_263:\n        /* \"#utility.yul\":3835:3928   */\n      swap4\n      pop\n        /* \"#utility.yul\":3952:4008   */\n      tag_264\n        /* \"#utility.yul\":4002:4007   */\n      dup4\n        /* \"#utility.yul\":3952:4008   */\n      tag_182\n      jump\t// in\n    tag_264:\n        /* \"#utility.yul\":4031:4038   */\n      dup1\n        /* \"#utility.yul\":4062:4063   */\n      0x00\n        /* \"#utility.yul\":4047:4331   */\n    tag_265:\n        /* \"#utility.yul\":4072:4078   */\n      dup4\n        /* \"#utility.yul\":4069:4070   */\n      dup2\n        /* \"#utility.yul\":4066:4079   */\n      lt\n        /* \"#utility.yul\":4047:4331   */\n      iszero\n      tag_267\n      jumpi\n        /* \"#utility.yul\":4148:4154   */\n      dup2\n        /* \"#utility.yul\":4142:4155   */\n      mload\n        /* \"#utility.yul\":4175:4238   */\n      tag_268\n        /* \"#utility.yul\":4234:4237   */\n      dup9\n        /* \"#utility.yul\":4219:4232   */\n      dup3\n        /* \"#utility.yul\":4175:4238   */\n      tag_184\n      jump\t// in\n    tag_268:\n        /* \"#utility.yul\":4168:4238   */\n      swap8\n      pop\n        /* \"#utility.yul\":4261:4321   */\n      tag_269\n        /* \"#utility.yul\":4314:4320   */\n      dup4\n        /* \"#utility.yul\":4261:4321   */\n      tag_185\n      jump\t// in\n    tag_269:\n        /* \"#utility.yul\":4251:4321   */\n      swap3\n      pop\n        /* \"#utility.yul\":4107:4331   */\n      pop\n        /* \"#utility.yul\":4094:4095   */\n      0x01\n        /* \"#utility.yul\":4091:4092   */\n      dup2\n        /* \"#utility.yul\":4087:4096   */\n      add\n        /* \"#utility.yul\":4082:4096   */\n      swap1\n      pop\n        /* \"#utility.yul\":4047:4331   */\n      jump(tag_265)\n    tag_267:\n        /* \"#utility.yul\":4051:4065   */\n      pop\n        /* \"#utility.yul\":4347:4350   */\n      dup6\n        /* \"#utility.yul\":4340:4350   */\n      swap4\n      pop\n        /* \"#utility.yul\":3748:4356   */\n      pop\n      pop\n      pop\n        /* \"#utility.yul\":3624:4356   */\n      swap3\n      swap2\n      pop\n      pop\n      jump\t// out\n        /* \"#utility.yul\":4362:4476   */\n    tag_187:\n        /* \"#utility.yul\":4429:4435   */\n      0x00\n        /* \"#utility.yul\":4463:4468   */\n      dup2\n        /* \"#utility.yul\":4457:4469   */\n      mload\n        /* \"#utility.yul\":4447:4469   */\n      swap1\n      pop\n        /* \"#utility.yul\":4362:4476   */\n      swap2\n      swap1\n      pop\n      jump\t// out\n        /* \"#utility.yul\":4482:4666   */\n    tag_188:\n        /* \"#utility.yul\":4581:4592   */\n      0x00\n        /* \"#utility.yul\":4615:4621   */\n      dup3\n        /* \"#utility.yul\":4610:4613   */\n      dup3\n        /* \"#utility.yul\":4603:4622   */\n      mstore\n        /* \"#utility.yul\":4655:4659   */\n      0x20\n        /* \"#utility.yul\":4650:4653   */\n      dup3\n        /* \"#utility.yul\":4646:4660   */\n      add\n        /* \"#utility.yul\":4631:4660   */\n      swap1\n      pop\n        /* \"#utility.yul\":4482:4666   */\n      swap3\n      swap2\n      pop\n      pop\n      jump\t// out\n        /* \"#utility.yul\":4672:4804   */\n    tag_189:\n        /* \"#utility.yul\":4739:4743   */\n      0x00\n        /* \"#utility.yul\":4762:4765   */\n      dup2\n        /* \"#utility.yul\":4754:4765   */\n      swap1\n      pop\n        /* \"#utility.yul\":4792:4796   */\n      0x20\n        /* \"#utility.yul\":4787:4790   */\n      dup3\n        /* \"#utility.yul\":4783:4797   */\n      add\n        /* \"#utility.yul\":4775:4797   */\n      swap1\n      pop\n        /* \"#utility.yul\":4672:4804   */\n      swap2\n      swap1\n      pop\n      jump\t// out\n        /* \"#utility.yul\":4810:4918   */\n    tag_190:\n        /* \"#utility.yul\":4887:4911   */\n      tag_274\n        /* \"#utility.yul\":4905:4910   */\n      dup2\n        /* \"#utility.yul\":4887:4911   */\n      tag_170\n      jump\t// in\n    tag_274:\n        /* \"#utility.yul\":4882:4885   */\n      dup3\n        /* \"#utility.yul\":4875:4912   */\n      mstore\n        /* \"#utility.yul\":4810:4918   */\n      pop\n      pop\n      jump\t// out\n        /* \"#utility.yul\":4924:5103   */\n    tag_191:\n        /* \"#utility.yul\":4993:5003   */\n      0x00\n        /* \"#utility.yul\":5014:5060   */\n      tag_276\n        /* \"#utility.yul\":5056:5059   */\n      dup4\n        /* \"#utility.yul\":5048:5054   */\n      dup4\n        /* \"#utility.yul\":5014:5060   */\n      tag_190\n      jump\t// in\n    tag_276:\n        /* \"#utility.yul\":5092:5096   */\n      0x20\n        /* \"#utility.yul\":5087:5090   */\n      dup4\n        /* \"#utility.yul\":5083:5097   */\n      add\n        /* \"#utility.yul\":5069:5097   */\n      swap1\n      pop\n        /* \"#utility.yul\":4924:5103   */\n      swap3\n      swap2\n      pop\n      pop\n      jump\t// out\n        /* \"#utility.yul\":5109:5222   */\n    tag_192:\n        /* \"#utility.yul\":5179:5183   */\n      0x00\n        /* \"#utility.yul\":5211:5215   */\n      0x20\n        /* \"#utility.yul\":5206:5209   */\n      dup3\n        /* \"#utility.yul\":5202:5216   */\n      add\n        /* \"#utility.yul\":5194:5216   */\n      swap1\n      pop\n        /* \"#utility.yul\":5109:5222   */\n      swap2\n      swap1\n      pop\n      jump\t// out\n        /* \"#utility.yul\":5258:5990   */\n    tag_193:\n        /* \"#utility.yul\":5377:5380   */\n      0x00\n        /* \"#utility.yul\":5406:5460   */\n      tag_279\n        /* \"#utility.yul\":5454:5459   */\n      dup3\n        /* \"#utility.yul\":5406:5460   */\n      tag_187\n      jump\t// in\n    tag_279:\n        /* \"#utility.yul\":5476:5562   */\n      tag_280\n        /* \"#utility.yul\":5555:5561   */\n      dup2\n        /* \"#utility.yul\":5550:5553   */\n      dup6\n        /* \"#utility.yul\":5476:5562   */\n      tag_188\n      jump\t// in\n    tag_280:\n        /* \"#utility.yul\":5469:5562   */\n      swap4\n      pop\n        /* \"#utility.yul\":5586:5642   */\n      tag_281\n        /* \"#utility.yul\":5636:5641   */\n      dup4\n        /* \"#utility.yul\":5586:5642   */\n      tag_189\n      jump\t// in\n    tag_281:\n        /* \"#utility.yul\":5665:5672   */\n      dup1\n        /* \"#utility.yul\":5696:5697   */\n      0x00\n        /* \"#utility.yul\":5681:5965   */\n    tag_282:\n        /* \"#utility.yul\":5706:5712   */\n      dup4\n        /* \"#utility.yul\":5703:5704   */\n      dup2\n        /* \"#utility.yul\":5700:5713   */\n      lt\n        /* \"#utility.yul\":5681:5965   */\n      iszero\n      tag_284\n      jumpi\n        /* \"#utility.yul\":5782:5788   */\n      dup2\n        /* \"#utility.yul\":5776:5789   */\n      mload\n        /* \"#utility.yul\":5809:5872   */\n      tag_285\n        /* \"#utility.yul\":5868:5871   */\n      dup9\n        /* \"#utility.yul\":5853:5866   */\n      dup3\n        /* \"#utility.yul\":5809:5872   */\n      tag_191\n      jump\t// in\n    tag_285:\n        /* \"#utility.yul\":5802:5872   */\n      swap8\n      pop\n        /* \"#utility.yul\":5895:5955   */\n      tag_286\n        /* \"#utility.yul\":5948:5954   */\n      dup4\n        /* \"#utility.yul\":5895:5955   */\n      tag_192\n      jump\t// in\n    tag_286:\n        /* \"#utility.yul\":5885:5955   */\n      swap3\n      pop\n        /* \"#utility.yul\":5741:5965   */\n      pop\n        /* \"#utility.yul\":5728:5729   */\n      0x01\n        /* \"#utility.yul\":5725:5726   */\n      dup2\n        /* \"#utility.yul\":5721:5730   */\n      add\n        /* \"#utility.yul\":5716:5730   */\n      swap1\n      pop\n        /* \"#utility.yul\":5681:5965   */\n      jump(tag_282)\n    tag_284:\n        /* \"#utility.yul\":5685:5699   */\n      pop\n        /* \"#utility.yul\":5981:5984   */\n      dup6\n        /* \"#utility.yul\":5974:5984   */\n      swap4\n      pop\n        /* \"#utility.yul\":5382:5990   */\n      pop\n      pop\n      pop\n        /* \"#utility.yul\":5258:5990   */\n      swap3\n      swap2\n      pop\n      pop\n      jump\t// out\n        /* \"#utility.yul\":5996:6630   */\n    tag_60:\n        /* \"#utility.yul\":6217:6221   */\n      0x00\n        /* \"#utility.yul\":6255:6257   */\n      0x40\n        /* \"#utility.yul\":6244:6253   */\n      dup3\n        /* \"#utility.yul\":6240:6258   */\n      add\n        /* \"#utility.yul\":6232:6258   */\n      swap1\n      pop\n        /* \"#utility.yul\":6304:6313   */\n      dup2\n        /* \"#utility.yul\":6298:6302   */\n      dup2\n        /* \"#utility.yul\":6294:6314   */\n      sub\n        /* \"#utility.yul\":6290:6291   */\n      0x00\n        /* \"#utility.yul\":6279:6288   */\n      dup4\n        /* \"#utility.yul\":6275:6292   */\n      add\n        /* \"#utility.yul\":6268:6315   */\n      mstore\n        /* \"#utility.yul\":6332:6440   */\n      tag_288\n        /* \"#utility.yul\":6435:6439   */\n      dup2\n        /* \"#utility.yul\":6426:6432   */\n      dup6\n        /* \"#utility.yul\":6332:6440   */\n      tag_186\n      jump\t// in\n    tag_288:\n        /* \"#utility.yul\":6324:6440   */\n      swap1\n      pop\n        /* \"#utility.yul\":6487:6496   */\n      dup2\n        /* \"#utility.yul\":6481:6485   */\n      dup2\n        /* \"#utility.yul\":6477:6497   */\n      sub\n        /* \"#utility.yul\":6472:6474   */\n      0x20\n        /* \"#utility.yul\":6461:6470   */\n      dup4\n        /* \"#utility.yul\":6457:6475   */\n      add\n        /* \"#utility.yul\":6450:6498   */\n      mstore\n        /* \"#utility.yul\":6515:6623   */\n      tag_289\n        /* \"#utility.yul\":6618:6622   */\n      dup2\n        /* \"#utility.yul\":6609:6615   */\n      dup5\n        /* \"#utility.yul\":6515:6623   */\n      tag_193\n      jump\t// in\n    tag_289:\n        /* \"#utility.yul\":6507:6623   */\n      swap1\n      pop\n        /* \"#utility.yul\":5996:6630   */\n      swap4\n      swap3\n      pop\n      pop\n      pop\n      jump\t// out\n        /* \"#utility.yul\":6636:6758   */\n    tag_194:\n        /* \"#utility.yul\":6709:6733   */\n      tag_291\n        /* \"#utility.yul\":6727:6732   */\n      dup2\n        /* \"#utility.yul\":6709:6733   */\n      tag_170\n      jump\t// in\n    tag_291:\n        /* \"#utility.yul\":6702:6707   */\n      dup2\n        /* \"#utility.yul\":6699:6734   */\n      eq\n        /* \"#utility.yul\":6689:6752   */\n      tag_292\n      jumpi\n        /* \"#utility.yul\":6748:6749   */\n      0x00\n        /* \"#utility.yul\":6745:6746   */\n      0x00\n        /* \"#utility.yul\":6738:6750   */\n      revert\n        /* \"#utility.yul\":6689:6752   */\n    tag_292:\n        /* \"#utility.yul\":6636:6758   */\n      pop\n      jump\t// out\n        /* \"#utility.yul\":6764:6903   */\n    tag_195:\n        /* \"#utility.yul\":6810:6815   */\n      0x00\n        /* \"#utility.yul\":6848:6854   */\n      dup2\n        /* \"#utility.yul\":6835:6855   */\n      calldataload\n        /* \"#utility.yul\":6826:6855   */\n      swap1\n      pop\n        /* \"#utility.yul\":6864:6897   */\n      tag_294\n        /* \"#utility.yul\":6891:6896   */\n      dup2\n        /* \"#utility.yul\":6864:6897   */\n      tag_194\n      jump\t// in\n    tag_294:\n        /* \"#utility.yul\":6764:6903   */\n      swap3\n      swap2\n      pop\n      pop\n      jump\t// out\n        /* \"#utility.yul\":6909:7238   */\n    tag_64:\n        /* \"#utility.yul\":6968:6974   */\n      0x00\n        /* \"#utility.yul\":7017:7019   */\n      0x20\n        /* \"#utility.yul\":7005:7014   */\n      dup3\n        /* \"#utility.yul\":6996:7003   */\n      dup5\n        /* \"#utility.yul\":6992:7015   */\n      sub\n        /* \"#utility.yul\":6988:7020   */\n      slt\n        /* \"#utility.yul\":6985:7104   */\n      iszero\n      tag_296\n      jumpi\n        /* \"#utility.yul\":7023:7102   */\n      tag_297\n      tag_173\n      jump\t// in\n    tag_297:\n        /* \"#utility.yul\":6985:7104   */\n    tag_296:\n        /* \"#utility.yul\":7143:7144   */\n      0x00\n        /* \"#utility.yul\":7168:7221   */\n      tag_298\n        /* \"#utility.yul\":7213:7220   */\n      dup5\n        /* \"#utility.yul\":7204:7210   */\n      dup3\n        /* \"#utility.yul\":7193:7202   */\n      dup6\n        /* \"#utility.yul\":7189:7211   */\n      add\n        /* \"#utility.yul\":7168:7221   */\n      tag_195\n      jump\t// in\n    tag_298:\n        /* \"#utility.yul\":7158:7221   */\n      swap2\n      pop\n        /* \"#utility.yul\":7114:7231   */\n      pop\n        /* \"#utility.yul\":6909:7238   */\n      swap3\n      swap2\n      pop\n      pop\n      jump\t// out\n        /* \"#utility.yul\":7244:7424   */\n    tag_196:\n        /* \"#utility.yul\":7292:7369   */\n      0x4e487b7100000000000000000000000000000000000000000000000000000000\n        /* \"#utility.yul\":7289:7290   */\n      0x00\n        /* \"#utility.yul\":7282:7370   */\n      mstore\n        /* \"#utility.yul\":7389:7393   */\n      0x11\n        /* \"#utility.yul\":7386:7387   */\n      0x04\n        /* \"#utility.yul\":7379:7394   */\n      mstore\n        /* \"#utility.yul\":7413:7417   */\n      0x24\n        /* \"#utility.yul\":7410:7411   */\n      0x00\n        /* \"#utility.yul\":7403:7418   */\n      revert\n        /* \"#utility.yul\":7430:7624   */\n    tag_77:\n        /* \"#utility.yul\":7470:7474   */\n      0x00\n        /* \"#utility.yul\":7490:7510   */\n      tag_301\n        /* \"#utility.yul\":7508:7509   */\n      dup3\n        /* \"#utility.yul\":7490:7510   */\n      tag_170\n      jump\t// in\n    tag_301:\n        /* \"#utility.yul\":7485:7510   */\n      swap2\n      pop\n        /* \"#utility.yul\":7524:7544   */\n      tag_302\n        /* \"#utility.yul\":7542:7543   */\n      dup4\n        /* \"#utility.yul\":7524:7544   */\n      tag_170\n      jump\t// in\n    tag_302:\n        /* \"#utility.yul\":7519:7544   */\n      swap3\n      pop\n        /* \"#utility.yul\":7568:7569   */\n      dup3\n        /* \"#utility.yul\":7565:7566   */\n      dup3\n        /* \"#utility.yul\":7561:7570   */\n      sub\n        /* \"#utility.yul\":7553:7570   */\n      swap1\n      pop\n        /* \"#utility.yul\":7592:7593   */\n      dup2\n        /* \"#utility.yul\":7586:7590   */\n      dup2\n        /* \"#utility.yul\":7583:7594   */\n      gt\n        /* \"#utility.yul\":7580:7617   */\n      iszero\n      tag_303\n      jumpi\n        /* \"#utility.yul\":7597:7615   */\n      tag_304\n      tag_196\n      jump\t// in\n    tag_304:\n        /* \"#utility.yul\":7580:7617   */\n    tag_303:\n        /* \"#utility.yul\":7430:7624   */\n      swap3\n      swap2\n      pop\n      pop\n      jump\t// out\n        /* \"#utility.yul\":7630:7799   */\n    tag_197:\n        /* \"#utility.yul\":7714:7725   */\n      0x00\n        /* \"#utility.yul\":7748:7754   */\n      dup3\n        /* \"#utility.yul\":7743:7746   */\n      dup3\n        /* \"#utility.yul\":7736:7755   */\n      mstore\n        /* \"#utility.yul\":7788:7792   */\n      0x20\n        /* \"#utility.yul\":7783:7786   */\n      dup3\n        /* \"#utility.yul\":7779:7793   */\n      add\n        /* \"#utility.yul\":7764:7793   */\n      swap1\n      pop\n        /* \"#utility.yul\":7630:7799   */\n      swap3\n      swap2\n      pop\n      pop\n      jump\t// out\n        /* \"#utility.yul\":7805:7973   */\n    tag_198:\n        /* \"#utility.yul\":7945:7965   */\n      0x537562617374612066696e616c697a6164610000000000000000000000000000\n        /* \"#utility.yul\":7941:7942   */\n      0x00\n        /* \"#utility.yul\":7933:7939   */\n      dup3\n        /* \"#utility.yul\":7929:7943   */\n      add\n        /* \"#utility.yul\":7922:7966   */\n      mstore\n        /* \"#utility.yul\":7805:7973   */\n      pop\n      jump\t// out\n        /* \"#utility.yul\":7979:8345   */\n    tag_199:\n        /* \"#utility.yul\":8121:8124   */\n      0x00\n        /* \"#utility.yul\":8142:8209   */\n      tag_308\n        /* \"#utility.yul\":8206:8208   */\n      0x12\n        /* \"#utility.yul\":8201:8204   */\n      dup4\n        /* \"#utility.yul\":8142:8209   */\n      tag_197\n      jump\t// in\n    tag_308:\n        /* \"#utility.yul\":8135:8209   */\n      swap2\n      pop\n        /* \"#utility.yul\":8218:8311   */\n      tag_309\n        /* \"#utility.yul\":8307:8310   */\n      dup3\n        /* \"#utility.yul\":8218:8311   */\n      tag_198\n      jump\t// in\n    tag_309:\n        /* \"#utility.yul\":8336:8338   */\n      0x20\n        /* \"#utility.yul\":8331:8334   */\n      dup3\n        /* \"#utility.yul\":8327:8339   */\n      add\n        /* \"#utility.yul\":8320:8339   */\n      swap1\n      pop\n        /* \"#utility.yul\":7979:8345   */\n      swap2\n      swap1\n      pop\n      jump\t// out\n        /* \"#utility.yul\":8351:8770   */\n    tag_81:\n        /* \"#utility.yul\":8517:8521   */\n      0x00\n        /* \"#utility.yul\":8555:8557   */\n      0x20\n        /* \"#utility.yul\":8544:8553   */\n      dup3\n        /* \"#utility.yul\":8540:8558   */\n      add\n        /* \"#utility.yul\":8532:8558   */\n      swap1\n      pop\n        /* \"#utility.yul\":8604:8613   */\n      dup2\n        /* \"#utility.yul\":8598:8602   */\n      dup2\n        /* \"#utility.yul\":8594:8614   */\n      sub\n        /* \"#utility.yul\":8590:8591   */\n      0x00\n        /* \"#utility.yul\":8579:8588   */\n      dup4\n        /* \"#utility.yul\":8575:8592   */\n      add\n        /* \"#utility.yul\":8568:8615   */\n      mstore\n        /* \"#utility.yul\":8632:8763   */\n      tag_311\n        /* \"#utility.yul\":8758:8762   */\n      dup2\n        /* \"#utility.yul\":8632:8763   */\n      tag_199\n      jump\t// in\n    tag_311:\n        /* \"#utility.yul\":8624:8763   */\n      swap1\n      pop\n        /* \"#utility.yul\":8351:8770   */\n      swap2\n      swap1\n      pop\n      jump\t// out\n        /* \"#utility.yul\":8776:8944   */\n    tag_200:\n        /* \"#utility.yul\":8916:8936   */\n      0x5375626173746120796120636572726164610000000000000000000000000000\n        /* \"#utility.yul\":8912:8913   */\n      0x00\n        /* \"#utility.yul\":8904:8910   */\n      dup3\n        /* \"#utility.yul\":8900:8914   */\n      add\n        /* \"#utility.yul\":8893:8937   */\n      mstore\n        /* \"#utility.yul\":8776:8944   */\n      pop\n      jump\t// out\n        /* \"#utility.yul\":8950:9316   */\n    tag_201:\n        /* \"#utility.yul\":9092:9095   */\n      0x00\n        /* \"#utility.yul\":9113:9180   */\n      tag_314\n        /* \"#utility.yul\":9177:9179   */\n      0x12\n        /* \"#utility.yul\":9172:9175   */\n      dup4\n        /* \"#utility.yul\":9113:9180   */\n      tag_197\n      jump\t// in\n    tag_314:\n        /* \"#utility.yul\":9106:9180   */\n      swap2\n      pop\n        /* \"#utility.yul\":9189:9282   */\n      tag_315\n        /* \"#utility.yul\":9278:9281   */\n      dup3\n        /* \"#utility.yul\":9189:9282   */\n      tag_200\n      jump\t// in\n    tag_315:\n        /* \"#utility.yul\":9307:9309   */\n      0x20\n        /* \"#utility.yul\":9302:9305   */\n      dup3\n        /* \"#utility.yul\":9298:9310   */\n      add\n        /* \"#utility.yul\":9291:9310   */\n      swap1\n      pop\n        /* \"#utility.yul\":8950:9316   */\n      swap2\n      swap1\n      pop\n      jump\t// out\n        /* \"#utility.yul\":9322:9741   */\n    tag_84:\n        /* \"#utility.yul\":9488:9492   */\n      0x00\n        /* \"#utility.yul\":9526:9528   */\n      0x20\n        /* \"#utility.yul\":9515:9524   */\n      dup3\n        /* \"#utility.yul\":9511:9529   */\n      add\n        /* \"#utility.yul\":9503:9529   */\n      swap1\n      pop\n        /* \"#utility.yul\":9575:9584   */\n      dup2\n        /* \"#utility.yul\":9569:9573   */\n      dup2\n        /* \"#utility.yul\":9565:9585   */\n      sub\n        /* \"#utility.yul\":9561:9562   */\n      0x00\n        /* \"#utility.yul\":9550:9559   */\n      dup4\n        /* \"#utility.yul\":9546:9563   */\n      add\n        /* \"#utility.yul\":9539:9586   */\n      mstore\n        /* \"#utility.yul\":9603:9734   */\n      tag_317\n        /* \"#utility.yul\":9729:9733   */\n      dup2\n        /* \"#utility.yul\":9603:9734   */\n      tag_201\n      jump\t// in\n    tag_317:\n        /* \"#utility.yul\":9595:9734   */\n      swap1\n      pop\n        /* \"#utility.yul\":9322:9741   */\n      swap2\n      swap1\n      pop\n      jump\t// out\n        /* \"#utility.yul\":9747:9928   */\n    tag_202:\n        /* \"#utility.yul\":9887:9920   */\n      0x4c61206f6665727461206465626520736572206d61796f722061206365726f00\n        /* \"#utility.yul\":9883:9884   */\n      0x00\n        /* \"#utility.yul\":9875:9881   */\n      dup3\n        /* \"#utility.yul\":9871:9885   */\n      add\n        /* \"#utility.yul\":9864:9921   */\n      mstore\n        /* \"#utility.yul\":9747:9928   */\n      pop\n      jump\t// out\n        /* \"#utility.yul\":9934:10300   */\n    tag_203:\n        /* \"#utility.yul\":10076:10079   */\n      0x00\n        /* \"#utility.yul\":10097:10164   */\n      tag_320\n        /* \"#utility.yul\":10161:10163   */\n      0x1f\n        /* \"#utility.yul\":10156:10159   */\n      dup4\n        /* \"#utility.yul\":10097:10164   */\n      tag_197\n      jump\t// in\n    tag_320:\n        /* \"#utility.yul\":10090:10164   */\n      swap2\n      pop\n        /* \"#utility.yul\":10173:10266   */\n      tag_321\n        /* \"#utility.yul\":10262:10265   */\n      dup3\n        /* \"#utility.yul\":10173:10266   */\n      tag_202\n      jump\t// in\n    tag_321:\n        /* \"#utility.yul\":10291:10293   */\n      0x20\n        /* \"#utility.yul\":10286:10289   */\n      dup3\n        /* \"#utility.yul\":10282:10294   */\n      add\n        /* \"#utility.yul\":10275:10294   */\n      swap1\n      pop\n        /* \"#utility.yul\":9934:10300   */\n      swap2\n      swap1\n      pop\n      jump\t// out\n        /* \"#utility.yul\":10306:10725   */\n    tag_88:\n        /* \"#utility.yul\":10472:10476   */\n      0x00\n        /* \"#utility.yul\":10510:10512   */\n      0x20\n        /* \"#utility.yul\":10499:10508   */\n      dup3\n        /* \"#utility.yul\":10495:10513   */\n      add\n        /* \"#utility.yul\":10487:10513   */\n      swap1\n      pop\n        /* \"#utility.yul\":10559:10568   */\n      dup2\n        /* \"#utility.yul\":10553:10557   */\n      dup2\n        /* \"#utility.yul\":10549:10569   */\n      sub\n        /* \"#utility.yul\":10545:10546   */\n      0x00\n        /* \"#utility.yul\":10534:10543   */\n      dup4\n        /* \"#utility.yul\":10530:10547   */\n      add\n        /* \"#utility.yul\":10523:10570   */\n      mstore\n        /* \"#utility.yul\":10587:10718   */\n      tag_323\n        /* \"#utility.yul\":10713:10717   */\n      dup2\n        /* \"#utility.yul\":10587:10718   */\n      tag_203\n      jump\t// in\n    tag_323:\n        /* \"#utility.yul\":10579:10718   */\n      swap1\n      pop\n        /* \"#utility.yul\":10306:10725   */\n      swap2\n      swap1\n      pop\n      jump\t// out\n        /* \"#utility.yul\":10731:10922   */\n    tag_90:\n        /* \"#utility.yul\":10771:10774   */\n      0x00\n        /* \"#utility.yul\":10790:10810   */\n      tag_325\n        /* \"#utility.yul\":10808:10809   */\n      dup3\n        /* \"#utility.yul\":10790:10810   */\n      tag_170\n      jump\t// in\n    tag_325:\n        /* \"#utility.yul\":10785:10810   */\n      swap2\n      pop\n        /* \"#utility.yul\":10824:10844   */\n      tag_326\n        /* \"#utility.yul\":10842:10843   */\n      dup4\n        /* \"#utility.yul\":10824:10844   */\n      tag_170\n      jump\t// in\n    tag_326:\n        /* \"#utility.yul\":10819:10844   */\n      swap3\n      pop\n        /* \"#utility.yul\":10867:10868   */\n      dup3\n        /* \"#utility.yul\":10864:10865   */\n      dup3\n        /* \"#utility.yul\":10860:10869   */\n      add\n        /* \"#utility.yul\":10853:10869   */\n      swap1\n      pop\n        /* \"#utility.yul\":10888:10891   */\n      dup1\n        /* \"#utility.yul\":10885:10886   */\n      dup3\n        /* \"#utility.yul\":10882:10892   */\n      gt\n        /* \"#utility.yul\":10879:10915   */\n      iszero\n      tag_327\n      jumpi\n        /* \"#utility.yul\":10895:10913   */\n      tag_328\n      tag_196\n      jump\t// in\n    tag_328:\n        /* \"#utility.yul\":10879:10915   */\n    tag_327:\n        /* \"#utility.yul\":10731:10922   */\n      swap3\n      swap2\n      pop\n      pop\n      jump\t// out\n        /* \"#utility.yul\":10928:11338   */\n    tag_92:\n        /* \"#utility.yul\":10968:10975   */\n      0x00\n        /* \"#utility.yul\":10991:11011   */\n      tag_330\n        /* \"#utility.yul\":11009:11010   */\n      dup3\n        /* \"#utility.yul\":10991:11011   */\n      tag_170\n      jump\t// in\n    tag_330:\n        /* \"#utility.yul\":10986:11011   */\n      swap2\n      pop\n        /* \"#utility.yul\":11025:11045   */\n      tag_331\n        /* \"#utility.yul\":11043:11044   */\n      dup4\n        /* \"#utility.yul\":11025:11045   */\n      tag_170\n      jump\t// in\n    tag_331:\n        /* \"#utility.yul\":11020:11045   */\n      swap3\n      pop\n        /* \"#utility.yul\":11080:11081   */\n      dup3\n        /* \"#utility.yul\":11077:11078   */\n      dup3\n        /* \"#utility.yul\":11073:11082   */\n      mul\n        /* \"#utility.yul\":11102:11132   */\n      tag_332\n        /* \"#utility.yul\":11120:11131   */\n      dup2\n        /* \"#utility.yul\":11102:11132   */\n      tag_170\n      jump\t// in\n    tag_332:\n        /* \"#utility.yul\":11091:11132   */\n      swap2\n      pop\n        /* \"#utility.yul\":11281:11282   */\n      dup3\n        /* \"#utility.yul\":11272:11279   */\n      dup3\n        /* \"#utility.yul\":11268:11283   */\n      div\n        /* \"#utility.yul\":11265:11266   */\n      dup5\n        /* \"#utility.yul\":11262:11284   */\n      eq\n        /* \"#utility.yul\":11242:11243   */\n      dup4\n        /* \"#utility.yul\":11235:11244   */\n      iszero\n        /* \"#utility.yul\":11215:11298   */\n      or\n        /* \"#utility.yul\":11192:11331   */\n      tag_333\n      jumpi\n        /* \"#utility.yul\":11311:11329   */\n      tag_334\n      tag_196\n      jump\t// in\n    tag_334:\n        /* \"#utility.yul\":11192:11331   */\n    tag_333:\n        /* \"#utility.yul\":10976:11338   */\n      pop\n        /* \"#utility.yul\":10928:11338   */\n      swap3\n      swap2\n      pop\n      pop\n      jump\t// out\n        /* \"#utility.yul\":11344:11524   */\n    tag_204:\n        /* \"#utility.yul\":11392:11469   */\n      0x4e487b7100000000000000000000000000000000000000000000000000000000\n        /* \"#utility.yul\":11389:11390   */\n      0x00\n        /* \"#utility.yul\":11382:11470   */\n      mstore\n        /* \"#utility.yul\":11489:11493   */\n      0x12\n        /* \"#utility.yul\":11486:11487   */\n      0x04\n        /* \"#utility.yul\":11479:11494   */\n      mstore\n        /* \"#utility.yul\":11513:11517   */\n      0x24\n        /* \"#utility.yul\":11510:11511   */\n      0x00\n        /* \"#utility.yul\":11503:11518   */\n      revert\n        /* \"#utility.yul\":11530:11715   */\n    tag_94:\n        /* \"#utility.yul\":11570:11571   */\n      0x00\n        /* \"#utility.yul\":11587:11607   */\n      tag_337\n        /* \"#utility.yul\":11605:11606   */\n      dup3\n        /* \"#utility.yul\":11587:11607   */\n      tag_170\n      jump\t// in\n    tag_337:\n        /* \"#utility.yul\":11582:11607   */\n      swap2\n      pop\n        /* \"#utility.yul\":11621:11641   */\n      tag_338\n        /* \"#utility.yul\":11639:11640   */\n      dup4\n        /* \"#utility.yul\":11621:11641   */\n      tag_170\n      jump\t// in\n    tag_338:\n        /* \"#utility.yul\":11616:11641   */\n      swap3\n      pop\n        /* \"#utility.yul\":11660:11661   */\n      dup3\n        /* \"#utility.yul\":11650:11685   */\n      tag_339\n      jumpi\n        /* \"#utility.yul\":11665:11683   */\n      tag_340\n      tag_204\n      jump\t// in\n    tag_340:\n        /* \"#utility.yul\":11650:11685   */\n    tag_339:\n        /* \"#utility.yul\":11707:11708   */\n      dup3\n        /* \"#utility.yul\":11704:11705   */\n      dup3\n        /* \"#utility.yul\":11700:11709   */\n      div\n        /* \"#utility.yul\":11695:11709   */\n      swap1\n      pop\n        /* \"#utility.yul\":11530:11715   */\n      swap3\n      swap2\n      pop\n      pop\n      jump\t// out\n        /* \"#utility.yul\":11721:11890   */\n    tag_205:\n        /* \"#utility.yul\":11861:11882   */\n      0x4f666572746120696e737566696369656e746500000000000000000000000000\n        /* \"#utility.yul\":11857:11858   */\n      0x00\n        /* \"#utility.yul\":11849:11855   */\n      dup3\n        /* \"#utility.yul\":11845:11859   */\n      add\n        /* \"#utility.yul\":11838:11883   */\n      mstore\n        /* \"#utility.yul\":11721:11890   */\n      pop\n      jump\t// out\n        /* \"#utility.yul\":11896:12262   */\n    tag_206:\n        /* \"#utility.yul\":12038:12041   */\n      0x00\n        /* \"#utility.yul\":12059:12126   */\n      tag_343\n        /* \"#utility.yul\":12123:12125   */\n      0x13\n        /* \"#utility.yul\":12118:12121   */\n      dup4\n        /* \"#utility.yul\":12059:12126   */\n      tag_197\n      jump\t// in\n    tag_343:\n        /* \"#utility.yul\":12052:12126   */\n      swap2\n      pop\n        /* \"#utility.yul\":12135:12228   */\n      tag_344\n        /* \"#utility.yul\":12224:12227   */\n      dup3\n        /* \"#utility.yul\":12135:12228   */\n      tag_205\n      jump\t// in\n    tag_344:\n        /* \"#utility.yul\":12253:12255   */\n      0x20\n        /* \"#utility.yul\":12248:12251   */\n      dup3\n        /* \"#utility.yul\":12244:12256   */\n      add\n        /* \"#utility.yul\":12237:12256   */\n      swap1\n      pop\n        /* \"#utility.yul\":11896:12262   */\n      swap2\n      swap1\n      pop\n      jump\t// out\n        /* \"#utility.yul\":12268:12687   */\n    tag_98:\n        /* \"#utility.yul\":12434:12438   */\n      0x00\n        /* \"#utility.yul\":12472:12474   */\n      0x20\n        /* \"#utility.yul\":12461:12470   */\n      dup3\n        /* \"#utility.yul\":12457:12475   */\n      add\n        /* \"#utility.yul\":12449:12475   */\n      swap1\n      pop\n        /* \"#utility.yul\":12521:12530   */\n      dup2\n        /* \"#utility.yul\":12515:12519   */\n      dup2\n        /* \"#utility.yul\":12511:12531   */\n      sub\n        /* \"#utility.yul\":12507:12508   */\n      0x00\n        /* \"#utility.yul\":12496:12505   */\n      dup4\n        /* \"#utility.yul\":12492:12509   */\n      add\n        /* \"#utility.yul\":12485:12532   */\n      mstore\n        /* \"#utility.yul\":12549:12680   */\n      tag_346\n        /* \"#utility.yul\":12675:12679   */\n      dup2\n        /* \"#utility.yul\":12549:12680   */\n      tag_206\n      jump\t// in\n    tag_346:\n        /* \"#utility.yul\":12541:12680   */\n      swap1\n      pop\n        /* \"#utility.yul\":12268:12687   */\n      swap2\n      swap1\n      pop\n      jump\t// out\n        /* \"#utility.yul\":12693:12869   */\n    tag_207:\n        /* \"#utility.yul\":12833:12861   */\n      0x4e6f206861792065786365736f20706172612072657469726172000000000000\n        /* \"#utility.yul\":12829:12830   */\n      0x00\n        /* \"#utility.yul\":12821:12827   */\n      dup3\n        /* \"#utility.yul\":12817:12831   */\n      add\n        /* \"#utility.yul\":12810:12862   */\n      mstore\n        /* \"#utility.yul\":12693:12869   */\n      pop\n      jump\t// out\n        /* \"#utility.yul\":12875:13241   */\n    tag_208:\n        /* \"#utility.yul\":13017:13020   */\n      0x00\n        /* \"#utility.yul\":13038:13105   */\n      tag_349\n        /* \"#utility.yul\":13102:13104   */\n      0x1a\n        /* \"#utility.yul\":13097:13100   */\n      dup4\n        /* \"#utility.yul\":13038:13105   */\n      tag_197\n      jump\t// in\n    tag_349:\n        /* \"#utility.yul\":13031:13105   */\n      swap2\n      pop\n        /* \"#utility.yul\":13114:13207   */\n      tag_350\n        /* \"#utility.yul\":13203:13206   */\n      dup3\n        /* \"#utility.yul\":13114:13207   */\n      tag_207\n      jump\t// in\n    tag_350:\n        /* \"#utility.yul\":13232:13234   */\n      0x20\n        /* \"#utility.yul\":13227:13230   */\n      dup3\n        /* \"#utility.yul\":13223:13235   */\n      add\n        /* \"#utility.yul\":13216:13235   */\n      swap1\n      pop\n        /* \"#utility.yul\":12875:13241   */\n      swap2\n      swap1\n      pop\n      jump\t// out\n        /* \"#utility.yul\":13247:13666   */\n    tag_111:\n        /* \"#utility.yul\":13413:13417   */\n      0x00\n        /* \"#utility.yul\":13451:13453   */\n      0x20\n        /* \"#utility.yul\":13440:13449   */\n      dup3\n        /* \"#utility.yul\":13436:13454   */\n      add\n        /* \"#utility.yul\":13428:13454   */\n      swap1\n      pop\n        /* \"#utility.yul\":13500:13509   */\n      dup2\n        /* \"#utility.yul\":13494:13498   */\n      dup2\n        /* \"#utility.yul\":13490:13510   */\n      sub\n        /* \"#utility.yul\":13486:13487   */\n      0x00\n        /* \"#utility.yul\":13475:13484   */\n      dup4\n        /* \"#utility.yul\":13471:13488   */\n      add\n        /* \"#utility.yul\":13464:13511   */\n      mstore\n        /* \"#utility.yul\":13528:13659   */\n      tag_352\n        /* \"#utility.yul\":13654:13658   */\n      dup2\n        /* \"#utility.yul\":13528:13659   */\n      tag_208\n      jump\t// in\n    tag_352:\n        /* \"#utility.yul\":13520:13659   */\n      swap1\n      pop\n        /* \"#utility.yul\":13247:13666   */\n      swap2\n      swap1\n      pop\n      jump\t// out\n        /* \"#utility.yul\":13672:13819   */\n    tag_209:\n        /* \"#utility.yul\":13773:13784   */\n      0x00\n        /* \"#utility.yul\":13810:13813   */\n      dup2\n        /* \"#utility.yul\":13795:13813   */\n      swap1\n      pop\n        /* \"#utility.yul\":13672:13819   */\n      swap3\n      swap2\n      pop\n      pop\n      jump\t// out\n        /* \"#utility.yul\":13825:13939   */\n    tag_210:\n      pop\n      jump\t// out\n        /* \"#utility.yul\":13945:14343   */\n    tag_211:\n        /* \"#utility.yul\":14104:14107   */\n      0x00\n        /* \"#utility.yul\":14125:14208   */\n      tag_356\n        /* \"#utility.yul\":14206:14207   */\n      0x00\n        /* \"#utility.yul\":14201:14204   */\n      dup4\n        /* \"#utility.yul\":14125:14208   */\n      tag_209\n      jump\t// in\n    tag_356:\n        /* \"#utility.yul\":14118:14208   */\n      swap2\n      pop\n        /* \"#utility.yul\":14217:14310   */\n      tag_357\n        /* \"#utility.yul\":14306:14309   */\n      dup3\n        /* \"#utility.yul\":14217:14310   */\n      tag_210\n      jump\t// in\n    tag_357:\n        /* \"#utility.yul\":14335:14336   */\n      0x00\n        /* \"#utility.yul\":14330:14333   */\n      dup3\n        /* \"#utility.yul\":14326:14337   */\n      add\n        /* \"#utility.yul\":14319:14337   */\n      swap1\n      pop\n        /* \"#utility.yul\":13945:14343   */\n      swap2\n      swap1\n      pop\n      jump\t// out\n        /* \"#utility.yul\":14349:14728   */\n    tag_114:\n        /* \"#utility.yul\":14533:14536   */\n      0x00\n        /* \"#utility.yul\":14555:14702   */\n      tag_359\n        /* \"#utility.yul\":14698:14701   */\n      dup3\n        /* \"#utility.yul\":14555:14702   */\n      tag_211\n      jump\t// in\n    tag_359:\n        /* \"#utility.yul\":14548:14702   */\n      swap2\n      pop\n        /* \"#utility.yul\":14719:14722   */\n      dup2\n        /* \"#utility.yul\":14712:14722   */\n      swap1\n      pop\n        /* \"#utility.yul\":14349:14728   */\n      swap2\n      swap1\n      pop\n      jump\t// out\n        /* \"#utility.yul\":14734:14903   */\n    tag_212:\n        /* \"#utility.yul\":14874:14895   */\n      0x4572726f7220616c20656e766961722045544800000000000000000000000000\n        /* \"#utility.yul\":14870:14871   */\n      0x00\n        /* \"#utility.yul\":14862:14868   */\n      dup3\n        /* \"#utility.yul\":14858:14872   */\n      add\n        /* \"#utility.yul\":14851:14896   */\n      mstore\n        /* \"#utility.yul\":14734:14903   */\n      pop\n      jump\t// out\n        /* \"#utility.yul\":14909:15275   */\n    tag_213:\n        /* \"#utility.yul\":15051:15054   */\n      0x00\n        /* \"#utility.yul\":15072:15139   */\n      tag_362\n        /* \"#utility.yul\":15136:15138   */\n      0x13\n        /* \"#utility.yul\":15131:15134   */\n      dup4\n        /* \"#utility.yul\":15072:15139   */\n      tag_197\n      jump\t// in\n    tag_362:\n        /* \"#utility.yul\":15065:15139   */\n      swap2\n      pop\n        /* \"#utility.yul\":15148:15241   */\n      tag_363\n        /* \"#utility.yul\":15237:15240   */\n      dup3\n        /* \"#utility.yul\":15148:15241   */\n      tag_212\n      jump\t// in\n    tag_363:\n        /* \"#utility.yul\":15266:15268   */\n      0x20\n        /* \"#utility.yul\":15261:15264   */\n      dup3\n        /* \"#utility.yul\":15257:15269   */\n      add\n        /* \"#utility.yul\":15250:15269   */\n      swap1\n      pop\n        /* \"#utility.yul\":14909:15275   */\n      swap2\n      swap1\n      pop\n      jump\t// out\n        /* \"#utility.yul\":15281:15700   */\n    tag_120:\n        /* \"#utility.yul\":15447:15451   */\n      0x00\n        /* \"#utility.yul\":15485:15487   */\n      0x20\n        /* \"#utility.yul\":15474:15483   */\n      dup3\n        /* \"#utility.yul\":15470:15488   */\n      add\n        /* \"#utility.yul\":15462:15488   */\n      swap1\n      pop\n        /* \"#utility.yul\":15534:15543   */\n      dup2\n        /* \"#utility.yul\":15528:15532   */\n      dup2\n        /* \"#utility.yul\":15524:15544   */\n      sub\n        /* \"#utility.yul\":15520:15521   */\n      0x00\n        /* \"#utility.yul\":15509:15518   */\n      dup4\n        /* \"#utility.yul\":15505:15522   */\n      add\n        /* \"#utility.yul\":15498:15545   */\n      mstore\n        /* \"#utility.yul\":15562:15693   */\n      tag_365\n        /* \"#utility.yul\":15688:15692   */\n      dup2\n        /* \"#utility.yul\":15562:15693   */\n      tag_213\n      jump\t// in\n    tag_365:\n        /* \"#utility.yul\":15554:15693   */\n      swap1\n      pop\n        /* \"#utility.yul\":15281:15700   */\n      swap2\n      swap1\n      pop\n      jump\t// out\n        /* \"#utility.yul\":15706:15886   */\n    tag_134:\n        /* \"#utility.yul\":15754:15831   */\n      0x4e487b7100000000000000000000000000000000000000000000000000000000\n        /* \"#utility.yul\":15751:15752   */\n      0x00\n        /* \"#utility.yul\":15744:15832   */\n      mstore\n        /* \"#utility.yul\":15851:15855   */\n      0x41\n        /* \"#utility.yul\":15848:15849   */\n      0x04\n        /* \"#utility.yul\":15841:15856   */\n      mstore\n        /* \"#utility.yul\":15875:15879   */\n      0x24\n        /* \"#utility.yul\":15872:15873   */\n      0x00\n        /* \"#utility.yul\":15865:15880   */\n      revert\n        /* \"#utility.yul\":15892:16072   */\n    tag_141:\n        /* \"#utility.yul\":15940:16017   */\n      0x4e487b7100000000000000000000000000000000000000000000000000000000\n        /* \"#utility.yul\":15937:15938   */\n      0x00\n        /* \"#utility.yul\":15930:16018   */\n      mstore\n        /* \"#utility.yul\":16037:16041   */\n      0x32\n        /* \"#utility.yul\":16034:16035   */\n      0x04\n        /* \"#utility.yul\":16027:16042   */\n      mstore\n        /* \"#utility.yul\":16061:16065   */\n      0x24\n        /* \"#utility.yul\":16058:16059   */\n      0x00\n        /* \"#utility.yul\":16051:16066   */\n      revert\n        /* \"#utility.yul\":16078:16244   */\n    tag_214:\n        /* \"#utility.yul\":16218:16236   */\n      0x5375626173746120656e20637572736f00000000000000000000000000000000\n        /* \"#utility.yul\":16214:16215   */\n      0x00\n        /* \"#utility.yul\":16206:16212   */\n      dup3\n        /* \"#utility.yul\":16202:16216   */\n      add\n        /* \"#utility.yul\":16195:16237   */\n      mstore\n        /* \"#utility.yul\":16078:16244   */\n      pop\n      jump\t// out\n        /* \"#utility.yul\":16250:16616   */\n    tag_215:\n        /* \"#utility.yul\":16392:16395   */\n      0x00\n        /* \"#utility.yul\":16413:16480   */\n      tag_370\n        /* \"#utility.yul\":16477:16479   */\n      0x10\n        /* \"#utility.yul\":16472:16475   */\n      dup4\n        /* \"#utility.yul\":16413:16480   */\n      tag_197\n      jump\t// in\n    tag_370:\n        /* \"#utility.yul\":16406:16480   */\n      swap2\n      pop\n        /* \"#utility.yul\":16489:16582   */\n      tag_371\n        /* \"#utility.yul\":16578:16581   */\n      dup3\n        /* \"#utility.yul\":16489:16582   */\n      tag_214\n      jump\t// in\n    tag_371:\n        /* \"#utility.yul\":16607:16609   */\n      0x20\n        /* \"#utility.yul\":16602:16605   */\n      dup3\n        /* \"#utility.yul\":16598:16610   */\n      add\n        /* \"#utility.yul\":16591:16610   */\n      swap1\n      pop\n        /* \"#utility.yul\":16250:16616   */\n      swap2\n      swap1\n      pop\n      jump\t// out\n        /* \"#utility.yul\":16622:17041   */\n    tag_153:\n        /* \"#utility.yul\":16788:16792   */\n      0x00\n        /* \"#utility.yul\":16826:16828   */\n      0x20\n        /* \"#utility.yul\":16815:16824   */\n      dup3\n        /* \"#utility.yul\":16811:16829   */\n      add\n        /* \"#utility.yul\":16803:16829   */\n      swap1\n      pop\n        /* \"#utility.yul\":16875:16884   */\n      dup2\n        /* \"#utility.yul\":16869:16873   */\n      dup2\n        /* \"#utility.yul\":16865:16885   */\n      sub\n        /* \"#utility.yul\":16861:16862   */\n      0x00\n        /* \"#utility.yul\":16850:16859   */\n      dup4\n        /* \"#utility.yul\":16846:16863   */\n      add\n        /* \"#utility.yul\":16839:16886   */\n      mstore\n        /* \"#utility.yul\":16903:17034   */\n      tag_373\n        /* \"#utility.yul\":17029:17033   */\n      dup2\n        /* \"#utility.yul\":16903:17034   */\n      tag_215\n      jump\t// in\n    tag_373:\n        /* \"#utility.yul\":16895:17034   */\n      swap1\n      pop\n        /* \"#utility.yul\":16622:17041   */\n      swap2\n      swap1\n      pop\n      jump\t// out\n        /* \"#utility.yul\":17047:17218   */\n    tag_216:\n        /* \"#utility.yul\":17187:17210   */\n      0x537562617374612079612066696e616c697a6164610000000000000000000000\n        /* \"#utility.yul\":17183:17184   */\n      0x00\n        /* \"#utility.yul\":17175:17181   */\n      dup3\n        /* \"#utility.yul\":17171:17185   */\n      add\n        /* \"#utility.yul\":17164:17211   */\n      mstore\n        /* \"#utility.yul\":17047:17218   */\n      pop\n      jump\t// out\n        /* \"#utility.yul\":17224:17590   */\n    tag_217:\n        /* \"#utility.yul\":17366:17369   */\n      0x00\n        /* \"#utility.yul\":17387:17454   */\n      tag_376\n        /* \"#utility.yul\":17451:17453   */\n      0x15\n        /* \"#utility.yul\":17446:17449   */\n      dup4\n        /* \"#utility.yul\":17387:17454   */\n      tag_197\n      jump\t// in\n    tag_376:\n        /* \"#utility.yul\":17380:17454   */\n      swap2\n      pop\n        /* \"#utility.yul\":17463:17556   */\n      tag_377\n        /* \"#utility.yul\":17552:17555   */\n      dup3\n        /* \"#utility.yul\":17463:17556   */\n      tag_216\n      jump\t// in\n    tag_377:\n        /* \"#utility.yul\":17581:17583   */\n      0x20\n        /* \"#utility.yul\":17576:17579   */\n      dup3\n        /* \"#utility.yul\":17572:17584   */\n      add\n        /* \"#utility.yul\":17565:17584   */\n      swap1\n      pop\n        /* \"#utility.yul\":17224:17590   */\n      swap2\n      swap1\n      pop\n      jump\t// out\n        /* \"#utility.yul\":17596:18015   */\n    tag_156:\n        /* \"#utility.yul\":17762:17766   */\n      0x00\n        /* \"#utility.yul\":17800:17802   */\n      0x20\n        /* \"#utility.yul\":17789:17798   */\n      dup3\n        /* \"#utility.yul\":17785:17803   */\n      add\n        /* \"#utility.yul\":17777:17803   */\n      swap1\n      pop\n        /* \"#utility.yul\":17849:17858   */\n      dup2\n        /* \"#utility.yul\":17843:17847   */\n      dup2\n        /* \"#utility.yul\":17839:17859   */\n      sub\n        /* \"#utility.yul\":17835:17836   */\n      0x00\n        /* \"#utility.yul\":17824:17833   */\n      dup4\n        /* \"#utility.yul\":17820:17837   */\n      add\n        /* \"#utility.yul\":17813:17860   */\n      mstore\n        /* \"#utility.yul\":17877:18008   */\n      tag_379\n        /* \"#utility.yul\":18003:18007   */\n      dup2\n        /* \"#utility.yul\":17877:18008   */\n      tag_217\n      jump\t// in\n    tag_379:\n        /* \"#utility.yul\":17869:18008   */\n      swap1\n      pop\n        /* \"#utility.yul\":17596:18015   */\n      swap2\n      swap1\n      pop\n      jump\t// out\n        /* \"#utility.yul\":18021:18199   */\n    tag_218:\n        /* \"#utility.yul\":18161:18191   */\n      0x4572726f7220616c20656e766961722045544820616c206475656e6f00000000\n        /* \"#utility.yul\":18157:18158   */\n      0x00\n        /* \"#utility.yul\":18149:18155   */\n      dup3\n        /* \"#utility.yul\":18145:18159   */\n      add\n        /* \"#utility.yul\":18138:18192   */\n      mstore\n        /* \"#utility.yul\":18021:18199   */\n      pop\n      jump\t// out\n        /* \"#utility.yul\":18205:18571   */\n    tag_219:\n        /* \"#utility.yul\":18347:18350   */\n      0x00\n        /* \"#utility.yul\":18368:18435   */\n      tag_382\n        /* \"#utility.yul\":18432:18434   */\n      0x1c\n        /* \"#utility.yul\":18427:18430   */\n      dup4\n        /* \"#utility.yul\":18368:18435   */\n      tag_197\n      jump\t// in\n    tag_382:\n        /* \"#utility.yul\":18361:18435   */\n      swap2\n      pop\n        /* \"#utility.yul\":18444:18537   */\n      tag_383\n        /* \"#utility.yul\":18533:18536   */\n      dup3\n        /* \"#utility.yul\":18444:18537   */\n      tag_218\n      jump\t// in\n    tag_383:\n        /* \"#utility.yul\":18562:18564   */\n      0x20\n        /* \"#utility.yul\":18557:18560   */\n      dup3\n        /* \"#utility.yul\":18553:18565   */\n      add\n        /* \"#utility.yul\":18546:18565   */\n      swap1\n      pop\n        /* \"#utility.yul\":18205:18571   */\n      swap2\n      swap1\n      pop\n      jump\t// out\n        /* \"#utility.yul\":18577:18996   */\n    tag_166:\n        /* \"#utility.yul\":18743:18747   */\n      0x00\n        /* \"#utility.yul\":18781:18783   */\n      0x20\n        /* \"#utility.yul\":18770:18779   */\n      dup3\n        /* \"#utility.yul\":18766:18784   */\n      add\n        /* \"#utility.yul\":18758:18784   */\n      swap1\n      pop\n        /* \"#utility.yul\":18830:18839   */\n      dup2\n        /* \"#utility.yul\":18824:18828   */\n      dup2\n        /* \"#utility.yul\":18820:18840   */\n      sub\n        /* \"#utility.yul\":18816:18817   */\n      0x00\n        /* \"#utility.yul\":18805:18814   */\n      dup4\n        /* \"#utility.yul\":18801:18818   */\n      add\n        /* \"#utility.yul\":18794:18841   */\n      mstore\n        /* \"#utility.yul\":18858:18989   */\n      tag_385\n        /* \"#utility.yul\":18984:18988   */\n      dup2\n        /* \"#utility.yul\":18858:18989   */\n      tag_219\n      jump\t// in\n    tag_385:\n        /* \"#utility.yul\":18850:18989   */\n      swap1\n      pop\n        /* \"#utility.yul\":18577:18996   */\n      swap2\n      swap1\n      pop\n      jump\t// out\n\n    auxdata: 0xa26469706673582212200e9a4307f58000f324e739a274711fd2e4dd8db5044399a52cb013d6b8c23ab064736f6c634300081e0033\n}\n",
				"bytecode": {
					"linkReferences": {},
					"object": "608060405234801561000f575f5ffd5b506040516118d53803806118d5833981810160405281019061003191906100bf565b335f5f6101000a81548173ffffffffffffffffffffffffffffffffffffffff021916908373ffffffffffffffffffffffffffffffffffffffff160217905550804261007c9190610117565b6003819055505061014a565b5f5ffd5b5f819050919050565b61009e8161008c565b81146100a8575f5ffd5b50565b5f815190506100b981610095565b92915050565b5f602082840312156100d4576100d3610088565b5b5f6100e1848285016100ab565b91505092915050565b7f4e487b71000000000000000000000000000000000000000000000000000000005f52601160045260245ffd5b5f6101218261008c565b915061012c8361008c565b9250828201905080821115610144576101436100ea565b5b92915050565b61177e806101575f395ff3fe6080604052600436106100c1575f3560e01c80638e7ea5b21161007e578063cb6632ef11610058578063cb6632ef1461021e578063cff29dfd14610249578063d57bde7914610285578063fe67a54b146102af576100c1565b80638e7ea5b2146101b357806391f90157146101de578063c264a06314610208576100c1565b806312fa6feb146100c55780631300a6d1146100ef5780631998aeef146101195780633197cbb61461012357806362ea82db1461014d5780638da5cb5b14610189575b5f5ffd5b3480156100d0575f5ffd5b506100d96102c5565b6040516100e69190610eaa565b60405180910390f35b3480156100fa575f5ffd5b506101036102d7565b6040516101109190610edb565b60405180910390f35b6101216102fd565b005b34801561012e575f5ffd5b5061013761063e565b6040516101449190610edb565b60405180910390f35b348015610158575f5ffd5b50610173600480360381019061016e9190610f52565b610644565b6040516101809190610edb565b60405180910390f35b348015610194575f5ffd5b5061019d610659565b6040516101aa9190610f8c565b60405180910390f35b3480156101be575f5ffd5b506101c761067d565b6040516101d5929190610fa5565b60405180910390f35b3480156101e9575f5ffd5b506101f26106ac565b6040516101ff9190610f8c565b60405180910390f35b348015610213575f5ffd5b5061021c6106d1565b005b348015610229575f5ffd5b50610232610a43565b60405161024092919061113a565b60405180910390f35b348015610254575f5ffd5b5061026f600480360381019061026a9190611199565b610be0565b60405161027c9190610f8c565b60405180910390f35b348015610290575f5ffd5b50610299610c1b565b6040516102a69190610edb565b60405180910390f35b3480156102ba575f5ffd5b506102c3610c21565b005b60045f9054906101000a900460ff1681565b5f60035442106102e9575f90506102fa565b426003546102f791906111f1565b90505b90565b6003544210610341576040517f08c379a00000000000000000000000000000000000000000000000000000000081526004016103389061127e565b60405180910390fd5b60045f9054906101000a900460ff1615610390576040517f08c379a0000000000000000000000000000000000000000000000000000000008152600401610387906112e6565b60405180910390fd5b5f34116103d2576040517f08c379a00000000000000000000000000000000000000000000000000000000081526004016103c99061134e565b60405180910390fd5b5f3460055f3373ffffffffffffffffffffffffffffffffffffffff1673ffffffffffffffffffffffffffffffffffffffff1681526020019081526020015f205461041c919061136c565b90506064600560025461042f919061139f565b610439919061140d565b600254610446919061136c565b811015610488576040517f08c379a000000000000000000000000000000000000000000000000000000000815260040161047f90611487565b60405180910390fd5b5f60055f3373ffffffffffffffffffffffffffffffffffffffff1673ffffffffffffffffffffffffffffffffffffffff1681526020019081526020015f20540361052d57600633908060018154018082558091505060019003905f5260205f20015f9091909190916101000a81548173ffffffffffffffffffffffffffffffffffffffff021916908373ffffffffffffffffffffffffffffffffffffffff1602179055505b8060055f3373ffffffffffffffffffffffffffffffffffffffff1673ffffffffffffffffffffffffffffffffffffffff1681526020019081526020015f208190555060025481111561063b573360015f6101000a81548173ffffffffffffffffffffffffffffffffffffffff021916908373ffffffffffffffffffffffffffffffffffffffff16021790555080600281905550600354610258426105d1919061136c565b11156105ec57610258426105e5919061136c565b6003819055505b3373ffffffffffffffffffffffffffffffffffffffff167fdd0b6c6a77960e2066c96171b4d7ac9e8b4c184011f38544afa36a5bb63ec59f826040516106329190610edb565b60405180910390a25b50565b60035481565b6005602052805f5260405f205f915090505481565b5f5f9054906101000a900473ffffffffffffffffffffffffffffffffffffffff1681565b5f5f60015f9054906101000a900473ffffffffffffffffffffffffffffffffffffffff16600254915091509091565b60015f9054906101000a900473ffffffffffffffffffffffffffffffffffffffff1681565b5f60055f3373ffffffffffffffffffffffffffffffffffffffff1673ffffffffffffffffffffffffffffffffffffffff1681526020019081526020015f2054905060015f9054906101000a900473ffffffffffffffffffffffffffffffffffffffff1673ffffffffffffffffffffffffffffffffffffffff163373ffffffffffffffffffffffffffffffffffffffff16036108fd575f60025490508082116107ae576040517f08c379a00000000000000000000000000000000000000000000000000000000081526004016107a5906114ef565b60405180910390fd5b5f81836107bb91906111f1565b90508160055f3373ffffffffffffffffffffffffffffffffffffffff1673ffffffffffffffffffffffffffffffffffffffff1681526020019081526020015f20819055505f3373ffffffffffffffffffffffffffffffffffffffff16826040516108249061153a565b5f6040518083038185875af1925050503d805f811461085e576040519150601f19603f3d011682016040523d82523d5f602084013e610863565b606091505b50509050806108a7576040517f08c379a000000000000000000000000000000000000000000000000000000000815260040161089e90611598565b60405180910390fd5b3373ffffffffffffffffffffffffffffffffffffffff167f7084f5476618d8e60b11ef0d7d3f06914655adb8793e28ff7f018d4c76d505d5836040516108ed9190610edb565b60405180910390a2505050610a40565b5f811115610a3f575f60055f3373ffffffffffffffffffffffffffffffffffffffff1673ffffffffffffffffffffffffffffffffffffffff1681526020019081526020015f20819055505f3373ffffffffffffffffffffffffffffffffffffffff168260405161096c9061153a565b5f6040518083038185875af1925050503d805f81146109a6576040519150601f19603f3d011682016040523d82523d5f602084013e6109ab565b606091505b50509050806109ef576040517f08c379a00000000000000000000000000000000000000000000000000000000081526004016109e690611598565b60405180910390fd5b3373ffffffffffffffffffffffffffffffffffffffff167f7084f5476618d8e60b11ef0d7d3f06914655adb8793e28ff7f018d4c76d505d583604051610a359190610edb565b60405180910390a2505b5b50565b6060805f60068054905067ffffffffffffffff811115610a6657610a656115b6565b5b604051908082528060200260200182016040528015610a945781602001602082028036833780820191505090505b5090505f5f90505b600680549050811015610b4e5760055f60068381548110610ac057610abf6115e3565b5b905f5260205f20015f9054906101000a900473ffffffffffffffffffffffffffffffffffffffff1673ffffffffffffffffffffffffffffffffffffffff1673ffffffffffffffffffffffffffffffffffffffff1681526020019081526020015f2054828281518110610b3557610b346115e3565b5b6020026020010181815250508080600101915050610a9c565b5060068181805480602002602001604051908101604052809291908181526020018280548015610bd057602002820191905f5260205f20905b815f9054906101000a900473ffffffffffffffffffffffffffffffffffffffff1673ffffffffffffffffffffffffffffffffffffffff1681526020019060010190808311610b87575b5050505050915092509250509091565b60068181548110610bef575f80fd5b905f5260205f20015f915054906101000a900473ffffffffffffffffffffffffffffffffffffffff1681565b60025481565b600354421180610c7c57505f5f9054906101000a900473ffffffffffffffffffffffffffffffffffffffff1673ffffffffffffffffffffffffffffffffffffffff163373ffffffffffffffffffffffffffffffffffffffff16145b610cbb576040517f08c379a0000000000000000000000000000000000000000000000000000000008152600401610cb29061165a565b60405180910390fd5b60045f9054906101000a900460ff1615610d0a576040517f08c379a0000000000000000000000000000000000000000000000000000000008152600401610d01906116c2565b60405180910390fd5b600160045f6101000a81548160ff0219169083151502179055505f606460028054610d35919061139f565b610d3f919061140d565b90505f81600254610d5091906111f1565b90505f5f5f9054906101000a900473ffffffffffffffffffffffffffffffffffffffff1673ffffffffffffffffffffffffffffffffffffffff1682604051610d979061153a565b5f6040518083038185875af1925050503d805f8114610dd1576040519150601f19603f3d011682016040523d82523d5f602084013e610dd6565b606091505b5050905080610e1a576040517f08c379a0000000000000000000000000000000000000000000000000000000008152600401610e119061172a565b60405180910390fd5b60015f9054906101000a900473ffffffffffffffffffffffffffffffffffffffff1673ffffffffffffffffffffffffffffffffffffffff167fdaec4582d5d9595688c8c98545fdd1c696d41c6aeaeb636737e84ed2f5c00eda600254604051610e839190610edb565b60405180910390a2505050565b5f8115159050919050565b610ea481610e90565b82525050565b5f602082019050610ebd5f830184610e9b565b92915050565b5f819050919050565b610ed581610ec3565b82525050565b5f602082019050610eee5f830184610ecc565b92915050565b5f5ffd5b5f73ffffffffffffffffffffffffffffffffffffffff82169050919050565b5f610f2182610ef8565b9050919050565b610f3181610f17565b8114610f3b575f5ffd5b50565b5f81359050610f4c81610f28565b92915050565b5f60208284031215610f6757610f66610ef4565b5b5f610f7484828501610f3e565b91505092915050565b610f8681610f17565b82525050565b5f602082019050610f9f5f830184610f7d565b92915050565b5f604082019050610fb85f830185610f7d565b610fc56020830184610ecc565b9392505050565b5f81519050919050565b5f82825260208201905092915050565b5f819050602082019050919050565b610ffe81610f17565b82525050565b5f61100f8383610ff5565b60208301905092915050565b5f602082019050919050565b5f61103182610fcc565b61103b8185610fd6565b935061104683610fe6565b805f5b8381101561107657815161105d8882611004565b97506110688361101b565b925050600181019050611049565b5085935050505092915050565b5f81519050919050565b5f82825260208201905092915050565b5f819050602082019050919050565b6110b581610ec3565b82525050565b5f6110c683836110ac565b60208301905092915050565b5f602082019050919050565b5f6110e882611083565b6110f2818561108d565b93506110fd8361109d565b805f5b8381101561112d57815161111488826110bb565b975061111f836110d2565b925050600181019050611100565b5085935050505092915050565b5f6040820190508181035f8301526111528185611027565b9050818103602083015261116681846110de565b90509392505050565b61117881610ec3565b8114611182575f5ffd5b50565b5f813590506111938161116f565b92915050565b5f602082840312156111ae576111ad610ef4565b5b5f6111bb84828501611185565b91505092915050565b7f4e487b71000000000000000000000000000000000000000000000000000000005f52601160045260245ffd5b5f6111fb82610ec3565b915061120683610ec3565b925082820390508181111561121e5761121d6111c4565b5b92915050565b5f82825260208201905092915050565b7f537562617374612066696e616c697a61646100000000000000000000000000005f82015250565b5f611268601283611224565b915061127382611234565b602082019050919050565b5f6020820190508181035f8301526112958161125c565b9050919050565b7f53756261737461207961206365727261646100000000000000000000000000005f82015250565b5f6112d0601283611224565b91506112db8261129c565b602082019050919050565b5f6020820190508181035f8301526112fd816112c4565b9050919050565b7f4c61206f6665727461206465626520736572206d61796f722061206365726f005f82015250565b5f611338601f83611224565b915061134382611304565b602082019050919050565b5f6020820190508181035f8301526113658161132c565b9050919050565b5f61137682610ec3565b915061138183610ec3565b9250828201905080821115611399576113986111c4565b5b92915050565b5f6113a982610ec3565b91506113b483610ec3565b92508282026113c281610ec3565b915082820484148315176113d9576113d86111c4565b5b5092915050565b7f4e487b71000000000000000000000000000000000000000000000000000000005f52601260045260245ffd5b5f61141782610ec3565b915061142283610ec3565b925082611432576114316113e0565b5b828204905092915050565b7f4f666572746120696e737566696369656e7465000000000000000000000000005f82015250565b5f611471601383611224565b915061147c8261143d565b602082019050919050565b5f6020820190508181035f83015261149e81611465565b9050919050565b7f4e6f206861792065786365736f207061726120726574697261720000000000005f82015250565b5f6114d9601a83611224565b91506114e4826114a5565b602082019050919050565b5f6020820190508181035f830152611506816114cd565b9050919050565b5f81905092915050565b50565b5f6115255f8361150d565b915061153082611517565b5f82019050919050565b5f6115448261151a565b9150819050919050565b7f4572726f7220616c20656e7669617220455448000000000000000000000000005f82015250565b5f611582601383611224565b915061158d8261154e565b602082019050919050565b5f6020820190508181035f8301526115af81611576565b9050919050565b7f4e487b71000000000000000000000000000000000000000000000000000000005f52604160045260245ffd5b7f4e487b71000000000000000000000000000000000000000000000000000000005f52603260045260245ffd5b7f5375626173746120656e20637572736f000000000000000000000000000000005f82015250565b5f611644601083611224565b915061164f82611610565b602082019050919050565b5f6020820190508181035f83015261167181611638565b9050919050565b7f537562617374612079612066696e616c697a61646100000000000000000000005f82015250565b5f6116ac601583611224565b91506116b782611678565b602082019050919050565b5f6020820190508181035f8301526116d9816116a0565b9050919050565b7f4572726f7220616c20656e766961722045544820616c206475656e6f000000005f82015250565b5f611714601c83611224565b915061171f826116e0565b602082019050919050565b5f6020820190508181035f83015261174181611708565b905091905056fea26469706673582212200e9a4307f58000f324e739a274711fd2e4dd8db5044399a52cb013d6b8c23ab064736f6c634300081e0033",
					"opcodes": "PUSH1 0x80 PUSH1 0x40 MSTORE CALLVALUE DUP1 ISZERO PUSH2 0xF JUMPI PUSH0 PUSH0 REVERT JUMPDEST POP PUSH1 0x40 MLOAD PUSH2 0x18D5 CODESIZE SUB DUP1 PUSH2 0x18D5 DUP4 CODECOPY DUP2 DUP2 ADD PUSH1 0x40 MSTORE DUP2 ADD SWAP1 PUSH2 0x31 SWAP2 SWAP1 PUSH2 0xBF JUMP JUMPDEST CALLER PUSH0 PUSH0 PUSH2 0x100 EXP DUP2 SLOAD DUP2 PUSH20 0xFFFFFFFFFFFFFFFFFFFFFFFFFFFFFFFFFFFFFFFF MUL NOT AND SWAP1 DUP4 PUSH20 0xFFFFFFFFFFFFFFFFFFFFFFFFFFFFFFFFFFFFFFFF AND MUL OR SWAP1 SSTORE POP DUP1 TIMESTAMP PUSH2 0x7C SWAP2 SWAP1 PUSH2 0x117 JUMP JUMPDEST PUSH1 0x3 DUP2 SWAP1 SSTORE POP POP PUSH2 0x14A JUMP JUMPDEST PUSH0 PUSH0 REVERT JUMPDEST PUSH0 DUP2 SWAP1 POP SWAP2 SWAP1 POP JUMP JUMPDEST PUSH2 0x9E DUP2 PUSH2 0x8C JUMP JUMPDEST DUP2 EQ PUSH2 0xA8 JUMPI PUSH0 PUSH0 REVERT JUMPDEST POP JUMP JUMPDEST PUSH0 DUP2 MLOAD SWAP1 POP PUSH2 0xB9 DUP2 PUSH2 0x95 JUMP JUMPDEST SWAP3 SWAP2 POP POP JUMP JUMPDEST PUSH0 PUSH1 0x20 DUP3 DUP5 SUB SLT ISZERO PUSH2 0xD4 JUMPI PUSH2 0xD3 PUSH2 0x88 JUMP JUMPDEST JUMPDEST PUSH0 PUSH2 0xE1 DUP5 DUP3 DUP6 ADD PUSH2 0xAB JUMP JUMPDEST SWAP2 POP POP SWAP3 SWAP2 POP POP JUMP JUMPDEST PUSH32 0x4E487B7100000000000000000000000000000000000000000000000000000000 PUSH0 MSTORE PUSH1 0x11 PUSH1 0x4 MSTORE PUSH1 0x24 PUSH0 REVERT JUMPDEST PUSH0 PUSH2 0x121 DUP3 PUSH2 0x8C JUMP JUMPDEST SWAP2 POP PUSH2 0x12C DUP4 PUSH2 0x8C JUMP JUMPDEST SWAP3 POP DUP3 DUP3 ADD SWAP1 POP DUP1 DUP3 GT ISZERO PUSH2 0x144 JUMPI PUSH2 0x143 PUSH2 0xEA JUMP JUMPDEST JUMPDEST SWAP3 SWAP2 POP POP JUMP JUMPDEST PUSH2 0x177E DUP1 PUSH2 0x157 PUSH0 CODECOPY PUSH0 RETURN INVALID PUSH1 0x80 PUSH1 0x40 MSTORE PUSH1 0x4 CALLDATASIZE LT PUSH2 0xC1 JUMPI PUSH0 CALLDATALOAD PUSH1 0xE0 SHR DUP1 PUSH4 0x8E7EA5B2 GT PUSH2 0x7E JUMPI DUP1 PUSH4 0xCB6632EF GT PUSH2 0x58 JUMPI DUP1 PUSH4 0xCB6632EF EQ PUSH2 0x21E JUMPI DUP1 PUSH4 0xCFF29DFD EQ PUSH2 0x249 JUMPI DUP1 PUSH4 0xD57BDE79 EQ PUSH2 0x285 JUMPI DUP1 PUSH4 0xFE67A54B EQ PUSH2 0x2AF JUMPI PUSH2 0xC1 JUMP JUMPDEST DUP1 PUSH4 0x8E7EA5B2 EQ PUSH2 0x1B3 JUMPI DUP1 PUSH4 0x91F90157 EQ PUSH2 0x1DE JUMPI DUP1 PUSH4 0xC264A063 EQ PUSH2 0x208 JUMPI PUSH2 0xC1 JUMP JUMPDEST DUP1 PUSH4 0x12FA6FEB EQ PUSH2 0xC5 JUMPI DUP1 PUSH4 0x1300A6D1 EQ PUSH2 0xEF JUMPI DUP1 PUSH4 0x1998AEEF EQ PUSH2 0x119 JUMPI DUP1 PUSH4 0x3197CBB6 EQ PUSH2 0x123 JUMPI DUP1 PUSH4 0x62EA82DB EQ PUSH2 0x14D JUMPI DUP1 PUSH4 0x8DA5CB5B EQ PUSH2 0x189 JUMPI JUMPDEST PUSH0 PUSH0 REVERT JUMPDEST CALLVALUE DUP1 ISZERO PUSH2 0xD0 JUMPI PUSH0 PUSH0 REVERT JUMPDEST POP PUSH2 0xD9 PUSH2 0x2C5 JUMP JUMPDEST PUSH1 0x40 MLOAD PUSH2 0xE6 SWAP2 SWAP1 PUSH2 0xEAA JUMP JUMPDEST PUSH1 0x40 MLOAD DUP1 SWAP2 SUB SWAP1 RETURN JUMPDEST CALLVALUE DUP1 ISZERO PUSH2 0xFA JUMPI PUSH0 PUSH0 REVERT JUMPDEST POP PUSH2 0x103 PUSH2 0x2D7 JUMP JUMPDEST PUSH1 0x40 MLOAD PUSH2 0x110 SWAP2 SWAP1 PUSH2 0xEDB JUMP JUMPDEST PUSH1 0x40 MLOAD DUP1 SWAP2 SUB SWAP1 RETURN JUMPDEST PUSH2 0x121 PUSH2 0x2FD JUMP JUMPDEST STOP JUMPDEST CALLVALUE DUP1 ISZERO PUSH2 0x12E JUMPI PUSH0 PUSH0 REVERT JUMPDEST POP PUSH2 0x137 PUSH2 0x63E JUMP JUMPDEST PUSH1 0x40 MLOAD PUSH2 0x144 SWAP2 SWAP1 PUSH2 0xEDB JUMP JUMPDEST PUSH1 0x40 MLOAD DUP1 SWAP2 SUB SWAP1 RETURN JUMPDEST CALLVALUE DUP1 ISZERO PUSH2 0x158 JUMPI PUSH0 PUSH0 REVERT JUMPDEST POP PUSH2 0x173 PUSH1 0x4 DUP1 CALLDATASIZE SUB DUP2 ADD SWAP1 PUSH2 0x16E SWAP2 SWAP1 PUSH2 0xF52 JUMP JUMPDEST PUSH2 0x644 JUMP JUMPDEST PUSH1 0x40 MLOAD PUSH2 0x180 SWAP2 SWAP1 PUSH2 0xEDB JUMP JUMPDEST PUSH1 0x40 MLOAD DUP1 SWAP2 SUB SWAP1 RETURN JUMPDEST CALLVALUE DUP1 ISZERO PUSH2 0x194 JUMPI PUSH0 PUSH0 REVERT JUMPDEST POP PUSH2 0x19D PUSH2 0x659 JUMP JUMPDEST PUSH1 0x40 MLOAD PUSH2 0x1AA SWAP2 SWAP1 PUSH2 0xF8C JUMP JUMPDEST PUSH1 0x40 MLOAD DUP1 SWAP2 SUB SWAP1 RETURN JUMPDEST CALLVALUE DUP1 ISZERO PUSH2 0x1BE JUMPI PUSH0 PUSH0 REVERT JUMPDEST POP PUSH2 0x1C7 PUSH2 0x67D JUMP JUMPDEST PUSH1 0x40 MLOAD PUSH2 0x1D5 SWAP3 SWAP2 SWAP1 PUSH2 0xFA5 JUMP JUMPDEST PUSH1 0x40 MLOAD DUP1 SWAP2 SUB SWAP1 RETURN JUMPDEST CALLVALUE DUP1 ISZERO PUSH2 0x1E9 JUMPI PUSH0 PUSH0 REVERT JUMPDEST POP PUSH2 0x1F2 PUSH2 0x6AC JUMP JUMPDEST PUSH1 0x40 MLOAD PUSH2 0x1FF SWAP2 SWAP1 PUSH2 0xF8C JUMP JUMPDEST PUSH1 0x40 MLOAD DUP1 SWAP2 SUB SWAP1 RETURN JUMPDEST CALLVALUE DUP1 ISZERO PUSH2 0x213 JUMPI PUSH0 PUSH0 REVERT JUMPDEST POP PUSH2 0x21C PUSH2 0x6D1 JUMP JUMPDEST STOP JUMPDEST CALLVALUE DUP1 ISZERO PUSH2 0x229 JUMPI PUSH0 PUSH0 REVERT JUMPDEST POP PUSH2 0x232 PUSH2 0xA43 JUMP JUMPDEST PUSH1 0x40 MLOAD PUSH2 0x240 SWAP3 SWAP2 SWAP1 PUSH2 0x113A JUMP JUMPDEST PUSH1 0x40 MLOAD DUP1 SWAP2 SUB SWAP1 RETURN JUMPDEST CALLVALUE DUP1 ISZERO PUSH2 0x254 JUMPI PUSH0 PUSH0 REVERT JUMPDEST POP PUSH2 0x26F PUSH1 0x4 DUP1 CALLDATASIZE SUB DUP2 ADD SWAP1 PUSH2 0x26A SWAP2 SWAP1 PUSH2 0x1199 JUMP JUMPDEST PUSH2 0xBE0 JUMP JUMPDEST PUSH1 0x40 MLOAD PUSH2 0x27C SWAP2 SWAP1 PUSH2 0xF8C JUMP JUMPDEST PUSH1 0x40 MLOAD DUP1 SWAP2 SUB SWAP1 RETURN JUMPDEST CALLVALUE DUP1 ISZERO PUSH2 0x290 JUMPI PUSH0 PUSH0 REVERT JUMPDEST POP PUSH2 0x299 PUSH2 0xC1B JUMP JUMPDEST PUSH1 0x40 MLOAD PUSH2 0x2A6 SWAP2 SWAP1 PUSH2 0xEDB JUMP JUMPDEST PUSH1 0x40 MLOAD DUP1 SWAP2 SUB SWAP1 RETURN JUMPDEST CALLVALUE DUP1 ISZERO PUSH2 0x2BA JUMPI PUSH0 PUSH0 REVERT JUMPDEST POP PUSH2 0x2C3 PUSH2 0xC21 JUMP JUMPDEST STOP JUMPDEST PUSH1 0x4 PUSH0 SWAP1 SLOAD SWAP1 PUSH2 0x100 EXP SWAP1 DIV PUSH1 0xFF AND DUP2 JUMP JUMPDEST PUSH0 PUSH1 0x3 SLOAD TIMESTAMP LT PUSH2 0x2E9 JUMPI PUSH0 SWAP1 POP PUSH2 0x2FA JUMP JUMPDEST TIMESTAMP PUSH1 0x3 SLOAD PUSH2 0x2F7 SWAP2 SWAP1 PUSH2 0x11F1 JUMP JUMPDEST SWAP1 POP JUMPDEST SWAP1 JUMP JUMPDEST PUSH1 0x3 SLOAD TIMESTAMP LT PUSH2 0x341 JUMPI PUSH1 0x40 MLOAD PUSH32 0x8C379A000000000000000000000000000000000000000000000000000000000 DUP2 MSTORE PUSH1 0x4 ADD PUSH2 0x338 SWAP1 PUSH2 0x127E JUMP JUMPDEST PUSH1 0x40 MLOAD DUP1 SWAP2 SUB SWAP1 REVERT JUMPDEST PUSH1 0x4 PUSH0 SWAP1 SLOAD SWAP1 PUSH2 0x100 EXP SWAP1 DIV PUSH1 0xFF AND ISZERO PUSH2 0x390 JUMPI PUSH1 0x40 MLOAD PUSH32 0x8C379A000000000000000000000000000000000000000000000000000000000 DUP2 MSTORE PUSH1 0x4 ADD PUSH2 0x387 SWAP1 PUSH2 0x12E6 JUMP JUMPDEST PUSH1 0x40 MLOAD DUP1 SWAP2 SUB SWAP1 REVERT JUMPDEST PUSH0 CALLVALUE GT PUSH2 0x3D2 JUMPI PUSH1 0x40 MLOAD PUSH32 0x8C379A000000000000000000000000000000000000000000000000000000000 DUP2 MSTORE PUSH1 0x4 ADD PUSH2 0x3C9 SWAP1 PUSH2 0x134E JUMP JUMPDEST PUSH1 0x40 MLOAD DUP1 SWAP2 SUB SWAP1 REVERT JUMPDEST PUSH0 CALLVALUE PUSH1 0x5 PUSH0 CALLER PUSH20 0xFFFFFFFFFFFFFFFFFFFFFFFFFFFFFFFFFFFFFFFF AND PUSH20 0xFFFFFFFFFFFFFFFFFFFFFFFFFFFFFFFFFFFFFFFF AND DUP2 MSTORE PUSH1 0x20 ADD SWAP1 DUP2 MSTORE PUSH1 0x20 ADD PUSH0 KECCAK256 SLOAD PUSH2 0x41C SWAP2 SWAP1 PUSH2 0x136C JUMP JUMPDEST SWAP1 POP PUSH1 0x64 PUSH1 0x5 PUSH1 0x2 SLOAD PUSH2 0x42F SWAP2 SWAP1 PUSH2 0x139F JUMP JUMPDEST PUSH2 0x439 SWAP2 SWAP1 PUSH2 0x140D JUMP JUMPDEST PUSH1 0x2 SLOAD PUSH2 0x446 SWAP2 SWAP1 PUSH2 0x136C JUMP JUMPDEST DUP2 LT ISZERO PUSH2 0x488 JUMPI PUSH1 0x40 MLOAD PUSH32 0x8C379A000000000000000000000000000000000000000000000000000000000 DUP2 MSTORE PUSH1 0x4 ADD PUSH2 0x47F SWAP1 PUSH2 0x1487 JUMP JUMPDEST PUSH1 0x40 MLOAD DUP1 SWAP2 SUB SWAP1 REVERT JUMPDEST PUSH0 PUSH1 0x5 PUSH0 CALLER PUSH20 0xFFFFFFFFFFFFFFFFFFFFFFFFFFFFFFFFFFFFFFFF AND PUSH20 0xFFFFFFFFFFFFFFFFFFFFFFFFFFFFFFFFFFFFFFFF AND DUP2 MSTORE PUSH1 0x20 ADD SWAP1 DUP2 MSTORE PUSH1 0x20 ADD PUSH0 KECCAK256 SLOAD SUB PUSH2 0x52D JUMPI PUSH1 0x6 CALLER SWAP1 DUP1 PUSH1 0x1 DUP2 SLOAD ADD DUP1 DUP3 SSTORE DUP1 SWAP2 POP POP PUSH1 0x1 SWAP1 SUB SWAP1 PUSH0 MSTORE PUSH1 0x20 PUSH0 KECCAK256 ADD PUSH0 SWAP1 SWAP2 SWAP1 SWAP2 SWAP1 SWAP2 PUSH2 0x100 EXP DUP2 SLOAD DUP2 PUSH20 0xFFFFFFFFFFFFFFFFFFFFFFFFFFFFFFFFFFFFFFFF MUL NOT AND SWAP1 DUP4 PUSH20 0xFFFFFFFFFFFFFFFFFFFFFFFFFFFFFFFFFFFFFFFF AND MUL OR SWAP1 SSTORE POP JUMPDEST DUP1 PUSH1 0x5 PUSH0 CALLER PUSH20 0xFFFFFFFFFFFFFFFFFFFFFFFFFFFFFFFFFFFFFFFF AND PUSH20 0xFFFFFFFFFFFFFFFFFFFFFFFFFFFFFFFFFFFFFFFF AND DUP2 MSTORE PUSH1 0x20 ADD SWAP1 DUP2 MSTORE PUSH1 0x20 ADD PUSH0 KECCAK256 DUP2 SWAP1 SSTORE POP PUSH1 0x2 SLOAD DUP2 GT ISZERO PUSH2 0x63B JUMPI CALLER PUSH1 0x1 PUSH0 PUSH2 0x100 EXP DUP2 SLOAD DUP2 PUSH20 0xFFFFFFFFFFFFFFFFFFFFFFFFFFFFFFFFFFFFFFFF MUL NOT AND SWAP1 DUP4 PUSH20 0xFFFFFFFFFFFFFFFFFFFFFFFFFFFFFFFFFFFFFFFF AND MUL OR SWAP1 SSTORE POP DUP1 PUSH1 0x2 DUP2 SWAP1 SSTORE POP PUSH1 0x3 SLOAD PUSH2 0x258 TIMESTAMP PUSH2 0x5D1 SWAP2 SWAP1 PUSH2 0x136C JUMP JUMPDEST GT ISZERO PUSH2 0x5EC JUMPI PUSH2 0x258 TIMESTAMP PUSH2 0x5E5 SWAP2 SWAP1 PUSH2 0x136C JUMP JUMPDEST PUSH1 0x3 DUP2 SWAP1 SSTORE POP JUMPDEST CALLER PUSH20 0xFFFFFFFFFFFFFFFFFFFFFFFFFFFFFFFFFFFFFFFF AND PUSH32 0xDD0B6C6A77960E2066C96171B4D7AC9E8B4C184011F38544AFA36A5BB63EC59F DUP3 PUSH1 0x40 MLOAD PUSH2 0x632 SWAP2 SWAP1 PUSH2 0xEDB JUMP JUMPDEST PUSH1 0x40 MLOAD DUP1 SWAP2 SUB SWAP1 LOG2 JUMPDEST POP JUMP JUMPDEST PUSH1 0x3 SLOAD DUP2 JUMP JUMPDEST PUSH1 0x5 PUSH1 0x20 MSTORE DUP1 PUSH0 MSTORE PUSH1 0x40 PUSH0 KECCAK256 PUSH0 SWAP2 POP SWAP1 POP SLOAD DUP2 JUMP JUMPDEST PUSH0 PUSH0 SWAP1 SLOAD SWAP1 PUSH2 0x100 EXP SWAP1 DIV PUSH20 0xFFFFFFFFFFFFFFFFFFFFFFFFFFFFFFFFFFFFFFFF AND DUP2 JUMP JUMPDEST PUSH0 PUSH0 PUSH1 0x1 PUSH0 SWAP1 SLOAD SWAP1 PUSH2 0x100 EXP SWAP1 DIV PUSH20 0xFFFFFFFFFFFFFFFFFFFFFFFFFFFFFFFFFFFFFFFF AND PUSH1 0x2 SLOAD SWAP2 POP SWAP2 POP SWAP1 SWAP2 JUMP JUMPDEST PUSH1 0x1 PUSH0 SWAP1 SLOAD SWAP1 PUSH2 0x100 EXP SWAP1 DIV PUSH20 0xFFFFFFFFFFFFFFFFFFFFFFFFFFFFFFFFFFFFFFFF AND DUP2 JUMP JUMPDEST PUSH0 PUSH1 0x5 PUSH0 CALLER PUSH20 0xFFFFFFFFFFFFFFFFFFFFFFFFFFFFFFFFFFFFFFFF AND PUSH20 0xFFFFFFFFFFFFFFFFFFFFFFFFFFFFFFFFFFFFFFFF AND DUP2 MSTORE PUSH1 0x20 ADD SWAP1 DUP2 MSTORE PUSH1 0x20 ADD PUSH0 KECCAK256 SLOAD SWAP1 POP PUSH1 0x1 PUSH0 SWAP1 SLOAD SWAP1 PUSH2 0x100 EXP SWAP1 DIV PUSH20 0xFFFFFFFFFFFFFFFFFFFFFFFFFFFFFFFFFFFFFFFF AND PUSH20 0xFFFFFFFFFFFFFFFFFFFFFFFFFFFFFFFFFFFFFFFF AND CALLER PUSH20 0xFFFFFFFFFFFFFFFFFFFFFFFFFFFFFFFFFFFFFFFF AND SUB PUSH2 0x8FD JUMPI PUSH0 PUSH1 0x2 SLOAD SWAP1 POP DUP1 DUP3 GT PUSH2 0x7AE JUMPI PUSH1 0x40 MLOAD PUSH32 0x8C379A000000000000000000000000000000000000000000000000000000000 DUP2 MSTORE PUSH1 0x4 ADD PUSH2 0x7A5 SWAP1 PUSH2 0x14EF JUMP JUMPDEST PUSH1 0x40 MLOAD DUP1 SWAP2 SUB SWAP1 REVERT JUMPDEST PUSH0 DUP2 DUP4 PUSH2 0x7BB SWAP2 SWAP1 PUSH2 0x11F1 JUMP JUMPDEST SWAP1 POP DUP2 PUSH1 0x5 PUSH0 CALLER PUSH20 0xFFFFFFFFFFFFFFFFFFFFFFFFFFFFFFFFFFFFFFFF AND PUSH20 0xFFFFFFFFFFFFFFFFFFFFFFFFFFFFFFFFFFFFFFFF AND DUP2 MSTORE PUSH1 0x20 ADD SWAP1 DUP2 MSTORE PUSH1 0x20 ADD PUSH0 KECCAK256 DUP2 SWAP1 SSTORE POP PUSH0 CALLER PUSH20 0xFFFFFFFFFFFFFFFFFFFFFFFFFFFFFFFFFFFFFFFF AND DUP3 PUSH1 0x40 MLOAD PUSH2 0x824 SWAP1 PUSH2 0x153A JUMP JUMPDEST PUSH0 PUSH1 0x40 MLOAD DUP1 DUP4 SUB DUP2 DUP6 DUP8 GAS CALL SWAP3 POP POP POP RETURNDATASIZE DUP1 PUSH0 DUP2 EQ PUSH2 0x85E JUMPI PUSH1 0x40 MLOAD SWAP2 POP PUSH1 0x1F NOT PUSH1 0x3F RETURNDATASIZE ADD AND DUP3 ADD PUSH1 0x40 MSTORE RETURNDATASIZE DUP3 MSTORE RETURNDATASIZE PUSH0 PUSH1 0x20 DUP5 ADD RETURNDATACOPY PUSH2 0x863 JUMP JUMPDEST PUSH1 0x60 SWAP2 POP JUMPDEST POP POP SWAP1 POP DUP1 PUSH2 0x8A7 JUMPI PUSH1 0x40 MLOAD PUSH32 0x8C379A000000000000000000000000000000000000000000000000000000000 DUP2 MSTORE PUSH1 0x4 ADD PUSH2 0x89E SWAP1 PUSH2 0x1598 JUMP JUMPDEST PUSH1 0x40 MLOAD DUP1 SWAP2 SUB SWAP1 REVERT JUMPDEST CALLER PUSH20 0xFFFFFFFFFFFFFFFFFFFFFFFFFFFFFFFFFFFFFFFF AND PUSH32 0x7084F5476618D8E60B11EF0D7D3F06914655ADB8793E28FF7F018D4C76D505D5 DUP4 PUSH1 0x40 MLOAD PUSH2 0x8ED SWAP2 SWAP1 PUSH2 0xEDB JUMP JUMPDEST PUSH1 0x40 MLOAD DUP1 SWAP2 SUB SWAP1 LOG2 POP POP POP PUSH2 0xA40 JUMP JUMPDEST PUSH0 DUP2 GT ISZERO PUSH2 0xA3F JUMPI PUSH0 PUSH1 0x5 PUSH0 CALLER PUSH20 0xFFFFFFFFFFFFFFFFFFFFFFFFFFFFFFFFFFFFFFFF AND PUSH20 0xFFFFFFFFFFFFFFFFFFFFFFFFFFFFFFFFFFFFFFFF AND DUP2 MSTORE PUSH1 0x20 ADD SWAP1 DUP2 MSTORE PUSH1 0x20 ADD PUSH0 KECCAK256 DUP2 SWAP1 SSTORE POP PUSH0 CALLER PUSH20 0xFFFFFFFFFFFFFFFFFFFFFFFFFFFFFFFFFFFFFFFF AND DUP3 PUSH1 0x40 MLOAD PUSH2 0x96C SWAP1 PUSH2 0x153A JUMP JUMPDEST PUSH0 PUSH1 0x40 MLOAD DUP1 DUP4 SUB DUP2 DUP6 DUP8 GAS CALL SWAP3 POP POP POP RETURNDATASIZE DUP1 PUSH0 DUP2 EQ PUSH2 0x9A6 JUMPI PUSH1 0x40 MLOAD SWAP2 POP PUSH1 0x1F NOT PUSH1 0x3F RETURNDATASIZE ADD AND DUP3 ADD PUSH1 0x40 MSTORE RETURNDATASIZE DUP3 MSTORE RETURNDATASIZE PUSH0 PUSH1 0x20 DUP5 ADD RETURNDATACOPY PUSH2 0x9AB JUMP JUMPDEST PUSH1 0x60 SWAP2 POP JUMPDEST POP POP SWAP1 POP DUP1 PUSH2 0x9EF JUMPI PUSH1 0x40 MLOAD PUSH32 0x8C379A000000000000000000000000000000000000000000000000000000000 DUP2 MSTORE PUSH1 0x4 ADD PUSH2 0x9E6 SWAP1 PUSH2 0x1598 JUMP JUMPDEST PUSH1 0x40 MLOAD DUP1 SWAP2 SUB SWAP1 REVERT JUMPDEST CALLER PUSH20 0xFFFFFFFFFFFFFFFFFFFFFFFFFFFFFFFFFFFFFFFF AND PUSH32 0x7084F5476618D8E60B11EF0D7D3F06914655ADB8793E28FF7F018D4C76D505D5 DUP4 PUSH1 0x40 MLOAD PUSH2 0xA35 SWAP2 SWAP1 PUSH2 0xEDB JUMP JUMPDEST PUSH1 0x40 MLOAD DUP1 SWAP2 SUB SWAP1 LOG2 POP JUMPDEST JUMPDEST POP JUMP JUMPDEST PUSH1 0x60 DUP1 PUSH0 PUSH1 0x6 DUP1 SLOAD SWAP1 POP PUSH8 0xFFFFFFFFFFFFFFFF DUP2 GT ISZERO PUSH2 0xA66 JUMPI PUSH2 0xA65 PUSH2 0x15B6 JUMP JUMPDEST JUMPDEST PUSH1 0x40 MLOAD SWAP1 DUP1 DUP3 MSTORE DUP1 PUSH1 0x20 MUL PUSH1 0x20 ADD DUP3 ADD PUSH1 0x40 MSTORE DUP1 ISZERO PUSH2 0xA94 JUMPI DUP2 PUSH1 0x20 ADD PUSH1 0x20 DUP3 MUL DUP1 CALLDATASIZE DUP4 CALLDATACOPY DUP1 DUP3 ADD SWAP2 POP POP SWAP1 POP JUMPDEST POP SWAP1 POP PUSH0 PUSH0 SWAP1 POP JUMPDEST PUSH1 0x6 DUP1 SLOAD SWAP1 POP DUP2 LT ISZERO PUSH2 0xB4E JUMPI PUSH1 0x5 PUSH0 PUSH1 0x6 DUP4 DUP2 SLOAD DUP2 LT PUSH2 0xAC0 JUMPI PUSH2 0xABF PUSH2 0x15E3 JUMP JUMPDEST JUMPDEST SWAP1 PUSH0 MSTORE PUSH1 0x20 PUSH0 KECCAK256 ADD PUSH0 SWAP1 SLOAD SWAP1 PUSH2 0x100 EXP SWAP1 DIV PUSH20 0xFFFFFFFFFFFFFFFFFFFFFFFFFFFFFFFFFFFFFFFF AND PUSH20 0xFFFFFFFFFFFFFFFFFFFFFFFFFFFFFFFFFFFFFFFF AND PUSH20 0xFFFFFFFFFFFFFFFFFFFFFFFFFFFFFFFFFFFFFFFF AND DUP2 MSTORE PUSH1 0x20 ADD SWAP1 DUP2 MSTORE PUSH1 0x20 ADD PUSH0 KECCAK256 SLOAD DUP3 DUP3 DUP2 MLOAD DUP2 LT PUSH2 0xB35 JUMPI PUSH2 0xB34 PUSH2 0x15E3 JUMP JUMPDEST JUMPDEST PUSH1 0x20 MUL PUSH1 0x20 ADD ADD DUP2 DUP2 MSTORE POP POP DUP1 DUP1 PUSH1 0x1 ADD SWAP2 POP POP PUSH2 0xA9C JUMP JUMPDEST POP PUSH1 0x6 DUP2 DUP2 DUP1 SLOAD DUP1 PUSH1 0x20 MUL PUSH1 0x20 ADD PUSH1 0x40 MLOAD SWAP1 DUP2 ADD PUSH1 0x40 MSTORE DUP1 SWAP3 SWAP2 SWAP1 DUP2 DUP2 MSTORE PUSH1 0x20 ADD DUP3 DUP1 SLOAD DUP1 ISZERO PUSH2 0xBD0 JUMPI PUSH1 0x20 MUL DUP3 ADD SWAP2 SWAP1 PUSH0 MSTORE PUSH1 0x20 PUSH0 KECCAK256 SWAP1 JUMPDEST DUP2 PUSH0 SWAP1 SLOAD SWAP1 PUSH2 0x100 EXP SWAP1 DIV PUSH20 0xFFFFFFFFFFFFFFFFFFFFFFFFFFFFFFFFFFFFFFFF AND PUSH20 0xFFFFFFFFFFFFFFFFFFFFFFFFFFFFFFFFFFFFFFFF AND DUP2 MSTORE PUSH1 0x20 ADD SWAP1 PUSH1 0x1 ADD SWAP1 DUP1 DUP4 GT PUSH2 0xB87 JUMPI JUMPDEST POP POP POP POP POP SWAP2 POP SWAP3 POP SWAP3 POP POP SWAP1 SWAP2 JUMP JUMPDEST PUSH1 0x6 DUP2 DUP2 SLOAD DUP2 LT PUSH2 0xBEF JUMPI PUSH0 DUP1 REVERT JUMPDEST SWAP1 PUSH0 MSTORE PUSH1 0x20 PUSH0 KECCAK256 ADD PUSH0 SWAP2 POP SLOAD SWAP1 PUSH2 0x100 EXP SWAP1 DIV PUSH20 0xFFFFFFFFFFFFFFFFFFFFFFFFFFFFFFFFFFFFFFFF AND DUP2 JUMP JUMPDEST PUSH1 0x2 SLOAD DUP2 JUMP JUMPDEST PUSH1 0x3 SLOAD TIMESTAMP GT DUP1 PUSH2 0xC7C JUMPI POP PUSH0 PUSH0 SWAP1 SLOAD SWAP1 PUSH2 0x100 EXP SWAP1 DIV PUSH20 0xFFFFFFFFFFFFFFFFFFFFFFFFFFFFFFFFFFFFFFFF AND PUSH20 0xFFFFFFFFFFFFFFFFFFFFFFFFFFFFFFFFFFFFFFFF AND CALLER PUSH20 0xFFFFFFFFFFFFFFFFFFFFFFFFFFFFFFFFFFFFFFFF AND EQ JUMPDEST PUSH2 0xCBB JUMPI PUSH1 0x40 MLOAD PUSH32 0x8C379A000000000000000000000000000000000000000000000000000000000 DUP2 MSTORE PUSH1 0x4 ADD PUSH2 0xCB2 SWAP1 PUSH2 0x165A JUMP JUMPDEST PUSH1 0x40 MLOAD DUP1 SWAP2 SUB SWAP1 REVERT JUMPDEST PUSH1 0x4 PUSH0 SWAP1 SLOAD SWAP1 PUSH2 0x100 EXP SWAP1 DIV PUSH1 0xFF AND ISZERO PUSH2 0xD0A JUMPI PUSH1 0x40 MLOAD PUSH32 0x8C379A000000000000000000000000000000000000000000000000000000000 DUP2 MSTORE PUSH1 0x4 ADD PUSH2 0xD01 SWAP1 PUSH2 0x16C2 JUMP JUMPDEST PUSH1 0x40 MLOAD DUP1 SWAP2 SUB SWAP1 REVERT JUMPDEST PUSH1 0x1 PUSH1 0x4 PUSH0 PUSH2 0x100 EXP DUP2 SLOAD DUP2 PUSH1 0xFF MUL NOT AND SWAP1 DUP4 ISZERO ISZERO MUL OR SWAP1 SSTORE POP PUSH0 PUSH1 0x64 PUSH1 0x2 DUP1 SLOAD PUSH2 0xD35 SWAP2 SWAP1 PUSH2 0x139F JUMP JUMPDEST PUSH2 0xD3F SWAP2 SWAP1 PUSH2 0x140D JUMP JUMPDEST SWAP1 POP PUSH0 DUP2 PUSH1 0x2 SLOAD PUSH2 0xD50 SWAP2 SWAP1 PUSH2 0x11F1 JUMP JUMPDEST SWAP1 POP PUSH0 PUSH0 PUSH0 SWAP1 SLOAD SWAP1 PUSH2 0x100 EXP SWAP1 DIV PUSH20 0xFFFFFFFFFFFFFFFFFFFFFFFFFFFFFFFFFFFFFFFF AND PUSH20 0xFFFFFFFFFFFFFFFFFFFFFFFFFFFFFFFFFFFFFFFF AND DUP3 PUSH1 0x40 MLOAD PUSH2 0xD97 SWAP1 PUSH2 0x153A JUMP JUMPDEST PUSH0 PUSH1 0x40 MLOAD DUP1 DUP4 SUB DUP2 DUP6 DUP8 GAS CALL SWAP3 POP POP POP RETURNDATASIZE DUP1 PUSH0 DUP2 EQ PUSH2 0xDD1 JUMPI PUSH1 0x40 MLOAD SWAP2 POP PUSH1 0x1F NOT PUSH1 0x3F RETURNDATASIZE ADD AND DUP3 ADD PUSH1 0x40 MSTORE RETURNDATASIZE DUP3 MSTORE RETURNDATASIZE PUSH0 PUSH1 0x20 DUP5 ADD RETURNDATACOPY PUSH2 0xDD6 JUMP JUMPDEST PUSH1 0x60 SWAP2 POP JUMPDEST POP POP SWAP1 POP DUP1 PUSH2 0xE1A JUMPI PUSH1 0x40 MLOAD PUSH32 0x8C379A000000000000000000000000000000000000000000000000000000000 DUP2 MSTORE PUSH1 0x4 ADD PUSH2 0xE11 SWAP1 PUSH2 0x172A JUMP JUMPDEST PUSH1 0x40 MLOAD DUP1 SWAP2 SUB SWAP1 REVERT JUMPDEST PUSH1 0x1 PUSH0 SWAP1 SLOAD SWAP1 PUSH2 0x100 EXP SWAP1 DIV PUSH20 0xFFFFFFFFFFFFFFFFFFFFFFFFFFFFFFFFFFFFFFFF AND PUSH20 0xFFFFFFFFFFFFFFFFFFFFFFFFFFFFFFFFFFFFFFFF AND PUSH32 0xDAEC4582D5D9595688C8C98545FDD1C696D41C6AEAEB636737E84ED2F5C00EDA PUSH1 0x2 SLOAD PUSH1 0x40 MLOAD PUSH2 0xE83 SWAP2 SWAP1 PUSH2 0xEDB JUMP JUMPDEST PUSH1 0x40 MLOAD DUP1 SWAP2 SUB SWAP1 LOG2 POP POP POP JUMP JUMPDEST PUSH0 DUP2 ISZERO ISZERO SWAP1 POP SWAP2 SWAP1 POP JUMP JUMPDEST PUSH2 0xEA4 DUP2 PUSH2 0xE90 JUMP JUMPDEST DUP3 MSTORE POP POP JUMP JUMPDEST PUSH0 PUSH1 0x20 DUP3 ADD SWAP1 POP PUSH2 0xEBD PUSH0 DUP4 ADD DUP5 PUSH2 0xE9B JUMP JUMPDEST SWAP3 SWAP2 POP POP JUMP JUMPDEST PUSH0 DUP2 SWAP1 POP SWAP2 SWAP1 POP JUMP JUMPDEST PUSH2 0xED5 DUP2 PUSH2 0xEC3 JUMP JUMPDEST DUP3 MSTORE POP POP JUMP JUMPDEST PUSH0 PUSH1 0x20 DUP3 ADD SWAP1 POP PUSH2 0xEEE PUSH0 DUP4 ADD DUP5 PUSH2 0xECC JUMP JUMPDEST SWAP3 SWAP2 POP POP JUMP JUMPDEST PUSH0 PUSH0 REVERT JUMPDEST PUSH0 PUSH20 0xFFFFFFFFFFFFFFFFFFFFFFFFFFFFFFFFFFFFFFFF DUP3 AND SWAP1 POP SWAP2 SWAP1 POP JUMP JUMPDEST PUSH0 PUSH2 0xF21 DUP3 PUSH2 0xEF8 JUMP JUMPDEST SWAP1 POP SWAP2 SWAP1 POP JUMP JUMPDEST PUSH2 0xF31 DUP2 PUSH2 0xF17 JUMP JUMPDEST DUP2 EQ PUSH2 0xF3B JUMPI PUSH0 PUSH0 REVERT JUMPDEST POP JUMP JUMPDEST PUSH0 DUP2 CALLDATALOAD SWAP1 POP PUSH2 0xF4C DUP2 PUSH2 0xF28 JUMP JUMPDEST SWAP3 SWAP2 POP POP JUMP JUMPDEST PUSH0 PUSH1 0x20 DUP3 DUP5 SUB SLT ISZERO PUSH2 0xF67 JUMPI PUSH2 0xF66 PUSH2 0xEF4 JUMP JUMPDEST JUMPDEST PUSH0 PUSH2 0xF74 DUP5 DUP3 DUP6 ADD PUSH2 0xF3E JUMP JUMPDEST SWAP2 POP POP SWAP3 SWAP2 POP POP JUMP JUMPDEST PUSH2 0xF86 DUP2 PUSH2 0xF17 JUMP JUMPDEST DUP3 MSTORE POP POP JUMP JUMPDEST PUSH0 PUSH1 0x20 DUP3 ADD SWAP1 POP PUSH2 0xF9F PUSH0 DUP4 ADD DUP5 PUSH2 0xF7D JUMP JUMPDEST SWAP3 SWAP2 POP POP JUMP JUMPDEST PUSH0 PUSH1 0x40 DUP3 ADD SWAP1 POP PUSH2 0xFB8 PUSH0 DUP4 ADD DUP6 PUSH2 0xF7D JUMP JUMPDEST PUSH2 0xFC5 PUSH1 0x20 DUP4 ADD DUP5 PUSH2 0xECC JUMP JUMPDEST SWAP4 SWAP3 POP POP POP JUMP JUMPDEST PUSH0 DUP2 MLOAD SWAP1 POP SWAP2 SWAP1 POP JUMP JUMPDEST PUSH0 DUP3 DUP3 MSTORE PUSH1 0x20 DUP3 ADD SWAP1 POP SWAP3 SWAP2 POP POP JUMP JUMPDEST PUSH0 DUP2 SWAP1 POP PUSH1 0x20 DUP3 ADD SWAP1 POP SWAP2 SWAP1 POP JUMP JUMPDEST PUSH2 0xFFE DUP2 PUSH2 0xF17 JUMP JUMPDEST DUP3 MSTORE POP POP JUMP JUMPDEST PUSH0 PUSH2 0x100F DUP4 DUP4 PUSH2 0xFF5 JUMP JUMPDEST PUSH1 0x20 DUP4 ADD SWAP1 POP SWAP3 SWAP2 POP POP JUMP JUMPDEST PUSH0 PUSH1 0x20 DUP3 ADD SWAP1 POP SWAP2 SWAP1 POP JUMP JUMPDEST PUSH0 PUSH2 0x1031 DUP3 PUSH2 0xFCC JUMP JUMPDEST PUSH2 0x103B DUP2 DUP6 PUSH2 0xFD6 JUMP JUMPDEST SWAP4 POP PUSH2 0x1046 DUP4 PUSH2 0xFE6 JUMP JUMPDEST DUP1 PUSH0 JUMPDEST DUP4 DUP2 LT ISZERO PUSH2 0x1076 JUMPI DUP2 MLOAD PUSH2 0x105D DUP9 DUP3 PUSH2 0x1004 JUMP JUMPDEST SWAP8 POP PUSH2 0x1068 DUP4 PUSH2 0x101B JUMP JUMPDEST SWAP3 POP POP PUSH1 0x1 DUP2 ADD SWAP1 POP PUSH2 0x1049 JUMP JUMPDEST POP DUP6 SWAP4 POP POP POP POP SWAP3 SWAP2 POP POP JUMP JUMPDEST PUSH0 DUP2 MLOAD SWAP1 POP SWAP2 SWAP1 POP JUMP JUMPDEST PUSH0 DUP3 DUP3 MSTORE PUSH1 0x20 DUP3 ADD SWAP1 POP SWAP3 SWAP2 POP POP JUMP JUMPDEST PUSH0 DUP2 SWAP1 POP PUSH1 0x20 DUP3 ADD SWAP1 POP SWAP2 SWAP1 POP JUMP JUMPDEST PUSH2 0x10B5 DUP2 PUSH2 0xEC3 JUMP JUMPDEST DUP3 MSTORE POP POP JUMP JUMPDEST PUSH0 PUSH2 0x10C6 DUP4 DUP4 PUSH2 0x10AC JUMP JUMPDEST PUSH1 0x20 DUP4 ADD SWAP1 POP SWAP3 SWAP2 POP POP JUMP JUMPDEST PUSH0 PUSH1 0x20 DUP3 ADD SWAP1 POP SWAP2 SWAP1 POP JUMP JUMPDEST PUSH0 PUSH2 0x10E8 DUP3 PUSH2 0x1083 JUMP JUMPDEST PUSH2 0x10F2 DUP2 DUP6 PUSH2 0x108D JUMP JUMPDEST SWAP4 POP PUSH2 0x10FD DUP4 PUSH2 0x109D JUMP JUMPDEST DUP1 PUSH0 JUMPDEST DUP4 DUP2 LT ISZERO PUSH2 0x112D JUMPI DUP2 MLOAD PUSH2 0x1114 DUP9 DUP3 PUSH2 0x10BB JUMP JUMPDEST SWAP8 POP PUSH2 0x111F DUP4 PUSH2 0x10D2 JUMP JUMPDEST SWAP3 POP POP PUSH1 0x1 DUP2 ADD SWAP1 POP PUSH2 0x1100 JUMP JUMPDEST POP DUP6 SWAP4 POP POP POP POP SWAP3 SWAP2 POP POP JUMP JUMPDEST PUSH0 PUSH1 0x40 DUP3 ADD SWAP1 POP DUP2 DUP2 SUB PUSH0 DUP4 ADD MSTORE PUSH2 0x1152 DUP2 DUP6 PUSH2 0x1027 JUMP JUMPDEST SWAP1 POP DUP2 DUP2 SUB PUSH1 0x20 DUP4 ADD MSTORE PUSH2 0x1166 DUP2 DUP5 PUSH2 0x10DE JUMP JUMPDEST SWAP1 POP SWAP4 SWAP3 POP POP POP JUMP JUMPDEST PUSH2 0x1178 DUP2 PUSH2 0xEC3 JUMP JUMPDEST DUP2 EQ PUSH2 0x1182 JUMPI PUSH0 PUSH0 REVERT JUMPDEST POP JUMP JUMPDEST PUSH0 DUP2 CALLDATALOAD SWAP1 POP PUSH2 0x1193 DUP2 PUSH2 0x116F JUMP JUMPDEST SWAP3 SWAP2 POP POP JUMP JUMPDEST PUSH0 PUSH1 0x20 DUP3 DUP5 SUB SLT ISZERO PUSH2 0x11AE JUMPI PUSH2 0x11AD PUSH2 0xEF4 JUMP JUMPDEST JUMPDEST PUSH0 PUSH2 0x11BB DUP5 DUP3 DUP6 ADD PUSH2 0x1185 JUMP JUMPDEST SWAP2 POP POP SWAP3 SWAP2 POP POP JUMP JUMPDEST PUSH32 0x4E487B7100000000000000000000000000000000000000000000000000000000 PUSH0 MSTORE PUSH1 0x11 PUSH1 0x4 MSTORE PUSH1 0x24 PUSH0 REVERT JUMPDEST PUSH0 PUSH2 0x11FB DUP3 PUSH2 0xEC3 JUMP JUMPDEST SWAP2 POP PUSH2 0x1206 DUP4 PUSH2 0xEC3 JUMP JUMPDEST SWAP3 POP DUP3 DUP3 SUB SWAP1 POP DUP2 DUP2 GT ISZERO PUSH2 0x121E JUMPI PUSH2 0x121D PUSH2 0x11C4 JUMP JUMPDEST JUMPDEST SWAP3 SWAP2 POP POP JUMP JUMPDEST PUSH0 DUP3 DUP3 MSTORE PUSH1 0x20 DUP3 ADD SWAP1 POP SWAP3 SWAP2 POP POP JUMP JUMPDEST PUSH32 0x537562617374612066696E616C697A6164610000000000000000000000000000 PUSH0 DUP3 ADD MSTORE POP JUMP JUMPDEST PUSH0 PUSH2 0x1268 PUSH1 0x12 DUP4 PUSH2 0x1224 JUMP JUMPDEST SWAP2 POP PUSH2 0x1273 DUP3 PUSH2 0x1234 JUMP JUMPDEST PUSH1 0x20 DUP3 ADD SWAP1 POP SWAP2 SWAP1 POP JUMP JUMPDEST PUSH0 PUSH1 0x20 DUP3 ADD SWAP1 POP DUP2 DUP2 SUB PUSH0 DUP4 ADD MSTORE PUSH2 0x1295 DUP2 PUSH2 0x125C JUMP JUMPDEST SWAP1 POP SWAP2 SWAP1 POP JUMP JUMPDEST PUSH32 0x5375626173746120796120636572726164610000000000000000000000000000 PUSH0 DUP3 ADD MSTORE POP JUMP JUMPDEST PUSH0 PUSH2 0x12D0 PUSH1 0x12 DUP4 PUSH2 0x1224 JUMP JUMPDEST SWAP2 POP PUSH2 0x12DB DUP3 PUSH2 0x129C JUMP JUMPDEST PUSH1 0x20 DUP3 ADD SWAP1 POP SWAP2 SWAP1 POP JUMP JUMPDEST PUSH0 PUSH1 0x20 DUP3 ADD SWAP1 POP DUP2 DUP2 SUB PUSH0 DUP4 ADD MSTORE PUSH2 0x12FD DUP2 PUSH2 0x12C4 JUMP JUMPDEST SWAP1 POP SWAP2 SWAP1 POP JUMP JUMPDEST PUSH32 0x4C61206F6665727461206465626520736572206D61796F722061206365726F00 PUSH0 DUP3 ADD MSTORE POP JUMP JUMPDEST PUSH0 PUSH2 0x1338 PUSH1 0x1F DUP4 PUSH2 0x1224 JUMP JUMPDEST SWAP2 POP PUSH2 0x1343 DUP3 PUSH2 0x1304 JUMP JUMPDEST PUSH1 0x20 DUP3 ADD SWAP1 POP SWAP2 SWAP1 POP JUMP JUMPDEST PUSH0 PUSH1 0x20 DUP3 ADD SWAP1 POP DUP2 DUP2 SUB PUSH0 DUP4 ADD MSTORE PUSH2 0x1365 DUP2 PUSH2 0x132C JUMP JUMPDEST SWAP1 POP SWAP2 SWAP1 POP JUMP JUMPDEST PUSH0 PUSH2 0x1376 DUP3 PUSH2 0xEC3 JUMP JUMPDEST SWAP2 POP PUSH2 0x1381 DUP4 PUSH2 0xEC3 JUMP JUMPDEST SWAP3 POP DUP3 DUP3 ADD SWAP1 POP DUP1 DUP3 GT ISZERO PUSH2 0x1399 JUMPI PUSH2 0x1398 PUSH2 0x11C4 JUMP JUMPDEST JUMPDEST SWAP3 SWAP2 POP POP JUMP JUMPDEST PUSH0 PUSH2 0x13A9 DUP3 PUSH2 0xEC3 JUMP JUMPDEST SWAP2 POP PUSH2 0x13B4 DUP4 PUSH2 0xEC3 JUMP JUMPDEST SWAP3 POP DUP3 DUP3 MUL PUSH2 0x13C2 DUP2 PUSH2 0xEC3 JUMP JUMPDEST SWAP2 POP DUP3 DUP3 DIV DUP5 EQ DUP4 ISZERO OR PUSH2 0x13D9 JUMPI PUSH2 0x13D8 PUSH2 0x11C4 JUMP JUMPDEST JUMPDEST POP SWAP3 SWAP2 POP POP JUMP JUMPDEST PUSH32 0x4E487B7100000000000000000000000000000000000000000000000000000000 PUSH0 MSTORE PUSH1 0x12 PUSH1 0x4 MSTORE PUSH1 0x24 PUSH0 REVERT JUMPDEST PUSH0 PUSH2 0x1417 DUP3 PUSH2 0xEC3 JUMP JUMPDEST SWAP2 POP PUSH2 0x1422 DUP4 PUSH2 0xEC3 JUMP JUMPDEST SWAP3 POP DUP3 PUSH2 0x1432 JUMPI PUSH2 0x1431 PUSH2 0x13E0 JUMP JUMPDEST JUMPDEST DUP3 DUP3 DIV SWAP1 POP SWAP3 SWAP2 POP POP JUMP JUMPDEST PUSH32 0x4F666572746120696E737566696369656E746500000000000000000000000000 PUSH0 DUP3 ADD MSTORE POP JUMP JUMPDEST PUSH0 PUSH2 0x1471 PUSH1 0x13 DUP4 PUSH2 0x1224 JUMP JUMPDEST SWAP2 POP PUSH2 0x147C DUP3 PUSH2 0x143D JUMP JUMPDEST PUSH1 0x20 DUP3 ADD SWAP1 POP SWAP2 SWAP1 POP JUMP JUMPDEST PUSH0 PUSH1 0x20 DUP3 ADD SWAP1 POP DUP2 DUP2 SUB PUSH0 DUP4 ADD MSTORE PUSH2 0x149E DUP2 PUSH2 0x1465 JUMP JUMPDEST SWAP1 POP SWAP2 SWAP1 POP JUMP JUMPDEST PUSH32 0x4E6F206861792065786365736F20706172612072657469726172000000000000 PUSH0 DUP3 ADD MSTORE POP JUMP JUMPDEST PUSH0 PUSH2 0x14D9 PUSH1 0x1A DUP4 PUSH2 0x1224 JUMP JUMPDEST SWAP2 POP PUSH2 0x14E4 DUP3 PUSH2 0x14A5 JUMP JUMPDEST PUSH1 0x20 DUP3 ADD SWAP1 POP SWAP2 SWAP1 POP JUMP JUMPDEST PUSH0 PUSH1 0x20 DUP3 ADD SWAP1 POP DUP2 DUP2 SUB PUSH0 DUP4 ADD MSTORE PUSH2 0x1506 DUP2 PUSH2 0x14CD JUMP JUMPDEST SWAP1 POP SWAP2 SWAP1 POP JUMP JUMPDEST PUSH0 DUP2 SWAP1 POP SWAP3 SWAP2 POP POP JUMP JUMPDEST POP JUMP JUMPDEST PUSH0 PUSH2 0x1525 PUSH0 DUP4 PUSH2 0x150D JUMP JUMPDEST SWAP2 POP PUSH2 0x1530 DUP3 PUSH2 0x1517 JUMP JUMPDEST PUSH0 DUP3 ADD SWAP1 POP SWAP2 SWAP1 POP JUMP JUMPDEST PUSH0 PUSH2 0x1544 DUP3 PUSH2 0x151A JUMP JUMPDEST SWAP2 POP DUP2 SWAP1 POP SWAP2 SWAP1 POP JUMP JUMPDEST PUSH32 0x4572726F7220616C20656E766961722045544800000000000000000000000000 PUSH0 DUP3 ADD MSTORE POP JUMP JUMPDEST PUSH0 PUSH2 0x1582 PUSH1 0x13 DUP4 PUSH2 0x1224 JUMP JUMPDEST SWAP2 POP PUSH2 0x158D DUP3 PUSH2 0x154E JUMP JUMPDEST PUSH1 0x20 DUP3 ADD SWAP1 POP SWAP2 SWAP1 POP JUMP JUMPDEST PUSH0 PUSH1 0x20 DUP3 ADD SWAP1 POP DUP2 DUP2 SUB PUSH0 DUP4 ADD MSTORE PUSH2 0x15AF DUP2 PUSH2 0x1576 JUMP JUMPDEST SWAP1 POP SWAP2 SWAP1 POP JUMP JUMPDEST PUSH32 0x4E487B7100000000000000000000000000000000000000000000000000000000 PUSH0 MSTORE PUSH1 0x41 PUSH1 0x4 MSTORE PUSH1 0x24 PUSH0 REVERT JUMPDEST PUSH32 0x4E487B7100000000000000000000000000000000000000000000000000000000 PUSH0 MSTORE PUSH1 0x32 PUSH1 0x4 MSTORE PUSH1 0x24 PUSH0 REVERT JUMPDEST PUSH32 0x5375626173746120656E20637572736F00000000000000000000000000000000 PUSH0 DUP3 ADD MSTORE POP JUMP JUMPDEST PUSH0 PUSH2 0x1644 PUSH1 0x10 DUP4 PUSH2 0x1224 JUMP JUMPDEST SWAP2 POP PUSH2 0x164F DUP3 PUSH2 0x1610 JUMP JUMPDEST PUSH1 0x20 DUP3 ADD SWAP1 POP SWAP2 SWAP1 POP JUMP JUMPDEST PUSH0 PUSH1 0x20 DUP3 ADD SWAP1 POP DUP2 DUP2 SUB PUSH0 DUP4 ADD MSTORE PUSH2 0x1671 DUP2 PUSH2 0x1638 JUMP JUMPDEST SWAP1 POP SWAP2 SWAP1 POP JUMP JUMPDEST PUSH32 0x537562617374612079612066696E616C697A6164610000000000000000000000 PUSH0 DUP3 ADD MSTORE POP JUMP JUMPDEST PUSH0 PUSH2 0x16AC PUSH1 0x15 DUP4 PUSH2 0x1224 JUMP JUMPDEST SWAP2 POP PUSH2 0x16B7 DUP3 PUSH2 0x1678 JUMP JUMPDEST PUSH1 0x20 DUP3 ADD SWAP1 POP SWAP2 SWAP1 POP JUMP JUMPDEST PUSH0 PUSH1 0x20 DUP3 ADD SWAP1 POP DUP2 DUP2 SUB PUSH0 DUP4 ADD MSTORE PUSH2 0x16D9 DUP2 PUSH2 0x16A0 JUMP JUMPDEST SWAP1 POP SWAP2 SWAP1 POP JUMP JUMPDEST PUSH32 0x4572726F7220616C20656E766961722045544820616C206475656E6F00000000 PUSH0 DUP3 ADD MSTORE POP JUMP JUMPDEST PUSH0 PUSH2 0x1714 PUSH1 0x1C DUP4 PUSH2 0x1224 JUMP JUMPDEST SWAP2 POP PUSH2 0x171F DUP3 PUSH2 0x16E0 JUMP JUMPDEST PUSH1 0x20 DUP3 ADD SWAP1 POP SWAP2 SWAP1 POP JUMP JUMPDEST PUSH0 PUSH1 0x20 DUP3 ADD SWAP1 POP DUP2 DUP2 SUB PUSH0 DUP4 ADD MSTORE PUSH2 0x1741 DUP2 PUSH2 0x1708 JUMP JUMPDEST SWAP1 POP SWAP2 SWAP1 POP JUMP INVALID LOG2 PUSH5 0x6970667358 0x22 SLT KECCAK256 0xE SWAP11 NUMBER SMOD CREATE2 DUP1 STOP RETURN 0x24 SWAPN 0x39 LOG2 PUSH21 0x711FD2E4DD8DB5044399A52CB013D6B8C23AB06473 PUSH16 0x6C634300081E00330000000000000000 "
				},
				"gasEstimates": {
					"creation": {
						"codeDepositCost": "1202800",
						"executionCost": "infinite",
						"totalCost": "infinite"
					},
					"external": {
						"bid()": "infinite",
						"bidders(uint256)": "4988",
						"bids(address)": "2891",
						"endAuction()": "infinite",
						"endTime()": "2492",
						"ended()": "2467",
						"getBidders()": "infinite",
						"getWinner()": "4750",
						"highestBid()": "2491",
						"highestBidder()": "2553",
						"owner()": "2618",
						"timeLeft()": "infinite",
						"withdrawExcess()": "infinite"
					}
				},
				"methodIdentifiers": {
					"bid()": "1998aeef",
					"bidders(uint256)": "cff29dfd",
					"bids(address)": "62ea82db",
					"endAuction()": "fe67a54b",
					"endTime()": "3197cbb6",
					"ended()": "12fa6feb",
					"getBidders()": "cb6632ef",
					"getWinner()": "8e7ea5b2",
					"highestBid()": "d57bde79",
					"highestBidder()": "91f90157",
					"owner()": "8da5cb5b",
					"timeLeft()": "1300a6d1",
					"withdrawExcess()": "c264a063"
				}
			},
			"storageLayout": {
				"storage": [
					{
						"astId": 3,
						"contract": "contracts/auction.sol:Auction",
						"label": "owner",
						"offset": 0,
						"slot": "0",
						"type": "t_address"
					},
					{
						"astId": 5,
						"contract": "contracts/auction.sol:Auction",
						"label": "highestBidder",
						"offset": 0,
						"slot": "1",
						"type": "t_address"
					},
					{
						"astId": 7,
						"contract": "contracts/auction.sol:Auction",
						"label": "highestBid",
						"offset": 0,
						"slot": "2",
						"type": "t_uint256"
					},
					{
						"astId": 9,
						"contract": "contracts/auction.sol:Auction",
						"label": "endTime",
						"offset": 0,
						"slot": "3",
						"type": "t_uint256"
					},
					{
						"astId": 11,
						"contract": "contracts/auction.sol:Auction",
						"label": "ended",
						"offset": 0,
						"slot": "4",
						"type": "t_bool"
					},
					{
						"astId": 24,
						"contract": "contracts/auction.sol:Auction",
						"label": "bids",
						"offset": 0,
						"slot": "5",
						"type": "t_mapping(t_address,t_uint256)"
					},
					{
						"astId": 27,
						"contract": "contracts/auction.sol:Auction",
						"label": "bidders",
						"offset": 0,
						"slot": "6",
						"type": "t_array(t_address)dyn_storage"
					}
				],
				"types": {
					"t_address": {
						"encoding": "inplace",
						"label": "address",
						"numberOfBytes": "20"
					},
					"t_array(t_address)dyn_storage": {
						"base": "t_address",
						"encoding": "dynamic_array",
						"label": "address[]",
						"numberOfBytes": "32"
					},
					"t_bool": {
						"encoding": "inplace",
						"label": "bool",
						"numberOfBytes": "1"
					},
					"t_mapping(t_address,t_uint256)": {
						"encoding": "mapping",
						"key": "t_address",
						"label": "mapping(address => uint256)",
						"numberOfBytes": "32",
						"value": "t_uint256"
					},
					"t_uint256": {
						"encoding": "inplace",
						"label": "uint256",
						"numberOfBytes": "32"
					}
				}
			},
			"userdoc": {
				"kind": "user",
				"methods": {},
				"version": 1
			}
		}
	}
}